Archive member included to satisfy reference by file (symbol)

/usr/local/mcuxpressoide-11.1.0_3209/ide/plugins/com.nxp.mcuxpresso.tools.linux_11.1.0.201909161352/tools/bin/../lib/gcc/arm-none-eabi/8.3.1/../../../../arm-none-eabi/lib/thumb/v7e-m+dp/hard/libcr_nohost_nf.a(_cr__main.o)
                              ./startup/startup_mimxrt1062.o (__main)
/usr/local/mcuxpressoide-11.1.0_3209/ide/plugins/com.nxp.mcuxpresso.tools.linux_11.1.0.201909161352/tools/bin/../lib/gcc/arm-none-eabi/8.3.1/../../../../arm-none-eabi/lib/thumb/v7e-m+dp/hard/libcr_c.a(memcpy.o)
                              ./amazon-freertos/freertos_kernel/queue.o (memcpy)
/usr/local/mcuxpressoide-11.1.0_3209/ide/plugins/com.nxp.mcuxpresso.tools.linux_11.1.0.201909161352/tools/bin/../lib/gcc/arm-none-eabi/8.3.1/../../../../arm-none-eabi/lib/thumb/v7e-m+dp/hard/libcr_c.a(memset.o)
                              ./utilities/fsl_debug_console.o (memset)
/usr/local/mcuxpressoide-11.1.0_3209/ide/plugins/com.nxp.mcuxpresso.tools.linux_11.1.0.201909161352/tools/bin/../lib/gcc/arm-none-eabi/8.3.1/../../../../arm-none-eabi/lib/thumb/v7e-m+dp/hard/libcr_c.a(alloc.o)
                              ./drivers/fsl_common.o (malloc)
/usr/local/mcuxpressoide-11.1.0_3209/ide/plugins/com.nxp.mcuxpresso.tools.linux_11.1.0.201909161352/tools/bin/../lib/gcc/arm-none-eabi/8.3.1/../../../../arm-none-eabi/lib/thumb/v7e-m+dp/hard/libcr_c.a(initio.o)
                              /usr/local/mcuxpressoide-11.1.0_3209/ide/plugins/com.nxp.mcuxpresso.tools.linux_11.1.0.201909161352/tools/bin/../lib/gcc/arm-none-eabi/8.3.1/../../../../arm-none-eabi/lib/thumb/v7e-m+dp/hard/libcr_nohost_nf.a(_cr__main.o) (_initio)
/usr/local/mcuxpressoide-11.1.0_3209/ide/plugins/com.nxp.mcuxpresso.tools.linux_11.1.0.201909161352/tools/bin/../lib/gcc/arm-none-eabi/8.3.1/../../../../arm-none-eabi/lib/thumb/v7e-m+dp/hard/libcr_c.a(setvbuf.o)
                              /usr/local/mcuxpressoide-11.1.0_3209/ide/plugins/com.nxp.mcuxpresso.tools.linux_11.1.0.201909161352/tools/bin/../lib/gcc/arm-none-eabi/8.3.1/../../../../arm-none-eabi/lib/thumb/v7e-m+dp/hard/libcr_c.a(initio.o) (setvbuf)
/usr/local/mcuxpressoide-11.1.0_3209/ide/plugins/com.nxp.mcuxpresso.tools.linux_11.1.0.201909161352/tools/bin/../lib/gcc/arm-none-eabi/8.3.1/../../../../arm-none-eabi/lib/thumb/v7e-m+dp/hard/libcr_c.a(strlen.o)
                              ./utilities/fsl_str.o (strlen)
/usr/local/mcuxpressoide-11.1.0_3209/ide/plugins/com.nxp.mcuxpresso.tools.linux_11.1.0.201909161352/tools/bin/../lib/gcc/arm-none-eabi/8.3.1/../../../../arm-none-eabi/lib/thumb/v7e-m+dp/hard/libcr_c.a(__init_alloc.o)
                              /usr/local/mcuxpressoide-11.1.0_3209/ide/plugins/com.nxp.mcuxpresso.tools.linux_11.1.0.201909161352/tools/bin/../lib/gcc/arm-none-eabi/8.3.1/../../../../arm-none-eabi/lib/thumb/v7e-m+dp/hard/libcr_c.a(alloc.o) (__heaps)
/usr/local/mcuxpressoide-11.1.0_3209/ide/plugins/com.nxp.mcuxpresso.tools.linux_11.1.0.201909161352/tools/bin/../lib/gcc/arm-none-eabi/8.3.1/../../../../arm-none-eabi/lib/thumb/v7e-m+dp/hard/libcr_c.a(_cr_sbrk.o)
                              /usr/local/mcuxpressoide-11.1.0_3209/ide/plugins/com.nxp.mcuxpresso.tools.linux_11.1.0.201909161352/tools/bin/../lib/gcc/arm-none-eabi/8.3.1/../../../../arm-none-eabi/lib/thumb/v7e-m+dp/hard/libcr_c.a(alloc.o) (_sbrk)
/usr/local/mcuxpressoide-11.1.0_3209/ide/plugins/com.nxp.mcuxpresso.tools.linux_11.1.0.201909161352/tools/bin/../lib/gcc/arm-none-eabi/8.3.1/../../../../arm-none-eabi/lib/thumb/v7e-m+dp/hard/libcr_c.a(_fdopen.o)
                              /usr/local/mcuxpressoide-11.1.0_3209/ide/plugins/com.nxp.mcuxpresso.tools.linux_11.1.0.201909161352/tools/bin/../lib/gcc/arm-none-eabi/8.3.1/../../../../arm-none-eabi/lib/thumb/v7e-m+dp/hard/libcr_c.a(initio.o) (_fdopen)
/usr/local/mcuxpressoide-11.1.0_3209/ide/plugins/com.nxp.mcuxpresso.tools.linux_11.1.0.201909161352/tools/bin/../lib/gcc/arm-none-eabi/8.3.1/../../../../arm-none-eabi/lib/thumb/v7e-m+dp/hard/libcr_c.a(errno.o)
                              /usr/local/mcuxpressoide-11.1.0_3209/ide/plugins/com.nxp.mcuxpresso.tools.linux_11.1.0.201909161352/tools/bin/../lib/gcc/arm-none-eabi/8.3.1/../../../../arm-none-eabi/lib/thumb/v7e-m+dp/hard/libcr_c.a(_cr_sbrk.o) (errno)
/usr/local/mcuxpressoide-11.1.0_3209/ide/plugins/com.nxp.mcuxpresso.tools.linux_11.1.0.201909161352/tools/bin/../lib/gcc/arm-none-eabi/8.3.1/../../../../arm-none-eabi/lib/thumb/v7e-m+dp/hard/libcr_c.a(fclose.o)
                              /usr/local/mcuxpressoide-11.1.0_3209/ide/plugins/com.nxp.mcuxpresso.tools.linux_11.1.0.201909161352/tools/bin/../lib/gcc/arm-none-eabi/8.3.1/../../../../arm-none-eabi/lib/thumb/v7e-m+dp/hard/libcr_c.a(initio.o) (fclose)
/usr/local/mcuxpressoide-11.1.0_3209/ide/plugins/com.nxp.mcuxpresso.tools.linux_11.1.0.201909161352/tools/bin/../lib/gcc/arm-none-eabi/8.3.1/../../../../arm-none-eabi/lib/thumb/v7e-m+dp/hard/libcr_c.a(fflush.o)
                              /usr/local/mcuxpressoide-11.1.0_3209/ide/plugins/com.nxp.mcuxpresso.tools.linux_11.1.0.201909161352/tools/bin/../lib/gcc/arm-none-eabi/8.3.1/../../../../arm-none-eabi/lib/thumb/v7e-m+dp/hard/libcr_c.a(fclose.o) (fflush)
/usr/local/mcuxpressoide-11.1.0_3209/ide/plugins/com.nxp.mcuxpresso.tools.linux_11.1.0.201909161352/tools/bin/../lib/gcc/arm-none-eabi/8.3.1/../../../../arm-none-eabi/lib/thumb/v7e-m+dp/hard/libcr_c.a(fseek.o)
                              /usr/local/mcuxpressoide-11.1.0_3209/ide/plugins/com.nxp.mcuxpresso.tools.linux_11.1.0.201909161352/tools/bin/../lib/gcc/arm-none-eabi/8.3.1/../../../../arm-none-eabi/lib/thumb/v7e-m+dp/hard/libcr_c.a(_fdopen.o) (fseek)
/usr/local/mcuxpressoide-11.1.0_3209/ide/plugins/com.nxp.mcuxpresso.tools.linux_11.1.0.201909161352/tools/bin/../lib/gcc/arm-none-eabi/8.3.1/../../../../arm-none-eabi/lib/thumb/v7e-m+dp/hard/libcr_c.a(ftell.o)
                              /usr/local/mcuxpressoide-11.1.0_3209/ide/plugins/com.nxp.mcuxpresso.tools.linux_11.1.0.201909161352/tools/bin/../lib/gcc/arm-none-eabi/8.3.1/../../../../arm-none-eabi/lib/thumb/v7e-m+dp/hard/libcr_c.a(fseek.o) (ftell)
/usr/local/mcuxpressoide-11.1.0_3209/ide/plugins/com.nxp.mcuxpresso.tools.linux_11.1.0.201909161352/tools/bin/../lib/gcc/arm-none-eabi/8.3.1/../../../../arm-none-eabi/lib/thumb/v7e-m+dp/hard/libcr_c.a(remove.o)
                              /usr/local/mcuxpressoide-11.1.0_3209/ide/plugins/com.nxp.mcuxpresso.tools.linux_11.1.0.201909161352/tools/bin/../lib/gcc/arm-none-eabi/8.3.1/../../../../arm-none-eabi/lib/thumb/v7e-m+dp/hard/libcr_c.a(fclose.o) (remove)
/usr/local/mcuxpressoide-11.1.0_3209/ide/plugins/com.nxp.mcuxpresso.tools.linux_11.1.0.201909161352/tools/bin/../lib/gcc/arm-none-eabi/8.3.1/../../../../arm-none-eabi/lib/thumb/v7e-m+dp/hard/libcr_c.a(_cr_check_heap.o)
                              /usr/local/mcuxpressoide-11.1.0_3209/ide/plugins/com.nxp.mcuxpresso.tools.linux_11.1.0.201909161352/tools/bin/../lib/gcc/arm-none-eabi/8.3.1/../../../../arm-none-eabi/lib/thumb/v7e-m+dp/hard/libcr_c.a(_cr_sbrk.o) (__check_heap_overflow)
/usr/local/mcuxpressoide-11.1.0_3209/ide/plugins/com.nxp.mcuxpresso.tools.linux_11.1.0.201909161352/tools/bin/../lib/gcc/arm-none-eabi/8.3.1/../../../../arm-none-eabi/lib/thumb/v7e-m+dp/hard/libcr_c.a(_do_fflush.o)
                              /usr/local/mcuxpressoide-11.1.0_3209/ide/plugins/com.nxp.mcuxpresso.tools.linux_11.1.0.201909161352/tools/bin/../lib/gcc/arm-none-eabi/8.3.1/../../../../arm-none-eabi/lib/thumb/v7e-m+dp/hard/libcr_c.a(fflush.o) (_do_fflush)
/usr/local/mcuxpressoide-11.1.0_3209/ide/plugins/com.nxp.mcuxpresso.tools.linux_11.1.0.201909161352/tools/bin/../lib/gcc/arm-none-eabi/8.3.1/../../../../arm-none-eabi/lib/thumb/v7e-m+dp/hard/libcr_c.a(_fflush.o)
                              /usr/local/mcuxpressoide-11.1.0_3209/ide/plugins/com.nxp.mcuxpresso.tools.linux_11.1.0.201909161352/tools/bin/../lib/gcc/arm-none-eabi/8.3.1/../../../../arm-none-eabi/lib/thumb/v7e-m+dp/hard/libcr_c.a(_do_fflush.o) (_fflush)
/usr/local/mcuxpressoide-11.1.0_3209/ide/plugins/com.nxp.mcuxpresso.tools.linux_11.1.0.201909161352/tools/bin/../lib/gcc/arm-none-eabi/8.3.1/../../../../arm-none-eabi/lib/thumb/v7e-m+dp/hard/libcr_c.a(_writebuf.o)
                              /usr/local/mcuxpressoide-11.1.0_3209/ide/plugins/com.nxp.mcuxpresso.tools.linux_11.1.0.201909161352/tools/bin/../lib/gcc/arm-none-eabi/8.3.1/../../../../arm-none-eabi/lib/thumb/v7e-m+dp/hard/libcr_c.a(_fflush.o) (_Cwritebuf)
/usr/local/mcuxpressoide-11.1.0_3209/ide/plugins/com.nxp.mcuxpresso.tools.linux_11.1.0.201909161352/tools/bin/../lib/gcc/arm-none-eabi/8.3.1/../../../../arm-none-eabi/lib/thumb/v7e-m+dp/hard/libcr_c.a(_deferredlazyseek.o)
                              /usr/local/mcuxpressoide-11.1.0_3209/ide/plugins/com.nxp.mcuxpresso.tools.linux_11.1.0.201909161352/tools/bin/../lib/gcc/arm-none-eabi/8.3.1/../../../../arm-none-eabi/lib/thumb/v7e-m+dp/hard/libcr_c.a(_do_fflush.o) (_deferredlazyseek)
/usr/local/mcuxpressoide-11.1.0_3209/ide/plugins/com.nxp.mcuxpresso.tools.linux_11.1.0.201909161352/tools/bin/../lib/gcc/arm-none-eabi/8.3.1/thumb/v7e-m+dp/hard/libcr_eabihelpers.a(division_64.o)
                              ./drivers/fsl_common.o (__aeabi_uldivmod)
/usr/local/mcuxpressoide-11.1.0_3209/ide/plugins/com.nxp.mcuxpresso.tools.linux_11.1.0.201909161352/tools/bin/../lib/gcc/arm-none-eabi/8.3.1/thumb/v7e-m+dp/hard/libcr_eabihelpers.a(division_idiv0.o)
                              /usr/local/mcuxpressoide-11.1.0_3209/ide/plugins/com.nxp.mcuxpresso.tools.linux_11.1.0.201909161352/tools/bin/../lib/gcc/arm-none-eabi/8.3.1/thumb/v7e-m+dp/hard/libcr_eabihelpers.a(division_64.o) (__aeabi_idiv0)
/usr/local/mcuxpressoide-11.1.0_3209/ide/plugins/com.nxp.mcuxpresso.tools.linux_11.1.0.201909161352/tools/bin/../lib/gcc/arm-none-eabi/8.3.1/thumb/v7e-m+dp/hard/libcr_eabihelpers.a(memcpy.o)
                              /usr/local/mcuxpressoide-11.1.0_3209/ide/plugins/com.nxp.mcuxpresso.tools.linux_11.1.0.201909161352/tools/bin/../lib/gcc/arm-none-eabi/8.3.1/../../../../arm-none-eabi/lib/thumb/v7e-m+dp/hard/libcr_c.a(memcpy.o) (__aeabi_memcpy)
/usr/local/mcuxpressoide-11.1.0_3209/ide/plugins/com.nxp.mcuxpresso.tools.linux_11.1.0.201909161352/tools/bin/../lib/gcc/arm-none-eabi/8.3.1/../../../../arm-none-eabi/lib/thumb/v7e-m+dp/hard/libcr_nohost_nf.a(__ciob.o)
                              /usr/local/mcuxpressoide-11.1.0_3209/ide/plugins/com.nxp.mcuxpresso.tools.linux_11.1.0.201909161352/tools/bin/../lib/gcc/arm-none-eabi/8.3.1/../../../../arm-none-eabi/lib/thumb/v7e-m+dp/hard/libcr_c.a(initio.o) (__Ciob)
/usr/local/mcuxpressoide-11.1.0_3209/ide/plugins/com.nxp.mcuxpresso.tools.linux_11.1.0.201909161352/tools/bin/../lib/gcc/arm-none-eabi/8.3.1/../../../../arm-none-eabi/lib/thumb/v7e-m+dp/hard/libcr_nohost_nf.a(__sys_appexit.o)
                              /usr/local/mcuxpressoide-11.1.0_3209/ide/plugins/com.nxp.mcuxpresso.tools.linux_11.1.0.201909161352/tools/bin/../lib/gcc/arm-none-eabi/8.3.1/../../../../arm-none-eabi/lib/thumb/v7e-m+dp/hard/libcr_c.a(alloc.o) (__sys_appexit)
/usr/local/mcuxpressoide-11.1.0_3209/ide/plugins/com.nxp.mcuxpresso.tools.linux_11.1.0.201909161352/tools/bin/../lib/gcc/arm-none-eabi/8.3.1/../../../../arm-none-eabi/lib/thumb/v7e-m+dp/hard/libcr_nohost_nf.a(__sys_close.o)
                              /usr/local/mcuxpressoide-11.1.0_3209/ide/plugins/com.nxp.mcuxpresso.tools.linux_11.1.0.201909161352/tools/bin/../lib/gcc/arm-none-eabi/8.3.1/../../../../arm-none-eabi/lib/thumb/v7e-m+dp/hard/libcr_c.a(fclose.o) (__sys_close)
/usr/local/mcuxpressoide-11.1.0_3209/ide/plugins/com.nxp.mcuxpresso.tools.linux_11.1.0.201909161352/tools/bin/../lib/gcc/arm-none-eabi/8.3.1/../../../../arm-none-eabi/lib/thumb/v7e-m+dp/hard/libcr_nohost_nf.a(__sys_flen.o)
                              /usr/local/mcuxpressoide-11.1.0_3209/ide/plugins/com.nxp.mcuxpresso.tools.linux_11.1.0.201909161352/tools/bin/../lib/gcc/arm-none-eabi/8.3.1/../../../../arm-none-eabi/lib/thumb/v7e-m+dp/hard/libcr_c.a(fseek.o) (__sys_flen)
/usr/local/mcuxpressoide-11.1.0_3209/ide/plugins/com.nxp.mcuxpresso.tools.linux_11.1.0.201909161352/tools/bin/../lib/gcc/arm-none-eabi/8.3.1/../../../../arm-none-eabi/lib/thumb/v7e-m+dp/hard/libcr_nohost_nf.a(__sys_istty.o)
                              /usr/local/mcuxpressoide-11.1.0_3209/ide/plugins/com.nxp.mcuxpresso.tools.linux_11.1.0.201909161352/tools/bin/../lib/gcc/arm-none-eabi/8.3.1/../../../../arm-none-eabi/lib/thumb/v7e-m+dp/hard/libcr_c.a(fseek.o) (__sys_istty)
/usr/local/mcuxpressoide-11.1.0_3209/ide/plugins/com.nxp.mcuxpresso.tools.linux_11.1.0.201909161352/tools/bin/../lib/gcc/arm-none-eabi/8.3.1/../../../../arm-none-eabi/lib/thumb/v7e-m+dp/hard/libcr_nohost_nf.a(__sys_remove.o)
                              /usr/local/mcuxpressoide-11.1.0_3209/ide/plugins/com.nxp.mcuxpresso.tools.linux_11.1.0.201909161352/tools/bin/../lib/gcc/arm-none-eabi/8.3.1/../../../../arm-none-eabi/lib/thumb/v7e-m+dp/hard/libcr_c.a(remove.o) (__sys_remove)
/usr/local/mcuxpressoide-11.1.0_3209/ide/plugins/com.nxp.mcuxpresso.tools.linux_11.1.0.201909161352/tools/bin/../lib/gcc/arm-none-eabi/8.3.1/../../../../arm-none-eabi/lib/thumb/v7e-m+dp/hard/libcr_nohost_nf.a(__sys_rename.o)
                              /usr/local/mcuxpressoide-11.1.0_3209/ide/plugins/com.nxp.mcuxpresso.tools.linux_11.1.0.201909161352/tools/bin/../lib/gcc/arm-none-eabi/8.3.1/../../../../arm-none-eabi/lib/thumb/v7e-m+dp/hard/libcr_c.a(remove.o) (__sys_rename)
/usr/local/mcuxpressoide-11.1.0_3209/ide/plugins/com.nxp.mcuxpresso.tools.linux_11.1.0.201909161352/tools/bin/../lib/gcc/arm-none-eabi/8.3.1/../../../../arm-none-eabi/lib/thumb/v7e-m+dp/hard/libcr_nohost_nf.a(__sys_seek.o)
                              /usr/local/mcuxpressoide-11.1.0_3209/ide/plugins/com.nxp.mcuxpresso.tools.linux_11.1.0.201909161352/tools/bin/../lib/gcc/arm-none-eabi/8.3.1/../../../../arm-none-eabi/lib/thumb/v7e-m+dp/hard/libcr_c.a(_writebuf.o) (__sys_seek)
/usr/local/mcuxpressoide-11.1.0_3209/ide/plugins/com.nxp.mcuxpresso.tools.linux_11.1.0.201909161352/tools/bin/../lib/gcc/arm-none-eabi/8.3.1/../../../../arm-none-eabi/lib/thumb/v7e-m+dp/hard/libcr_nohost_nf.a(__sys_tmpnam.o)
                              /usr/local/mcuxpressoide-11.1.0_3209/ide/plugins/com.nxp.mcuxpresso.tools.linux_11.1.0.201909161352/tools/bin/../lib/gcc/arm-none-eabi/8.3.1/../../../../arm-none-eabi/lib/thumb/v7e-m+dp/hard/libcr_c.a(fclose.o) (__sys_tmpnam)
/usr/local/mcuxpressoide-11.1.0_3209/ide/plugins/com.nxp.mcuxpresso.tools.linux_11.1.0.201909161352/tools/bin/../lib/gcc/arm-none-eabi/8.3.1/../../../../arm-none-eabi/lib/thumb/v7e-m+dp/hard/libcr_nohost_nf.a(__sys_write.o)
                              /usr/local/mcuxpressoide-11.1.0_3209/ide/plugins/com.nxp.mcuxpresso.tools.linux_11.1.0.201909161352/tools/bin/../lib/gcc/arm-none-eabi/8.3.1/../../../../arm-none-eabi/lib/thumb/v7e-m+dp/hard/libcr_c.a(alloc.o) (__sys_write)

Discarded input sections

 .group         0x0000000000000000        0xc ./xip/evkmimxrt1060_flexspi_nor_config.o
 .group         0x0000000000000000        0xc ./xip/evkmimxrt1060_flexspi_nor_config.o
 .group         0x0000000000000000        0xc ./xip/evkmimxrt1060_flexspi_nor_config.o
 .group         0x0000000000000000        0xc ./xip/evkmimxrt1060_flexspi_nor_config.o
 .group         0x0000000000000000        0xc ./xip/evkmimxrt1060_flexspi_nor_config.o
 .group         0x0000000000000000        0xc ./xip/evkmimxrt1060_flexspi_nor_config.o
 .group         0x0000000000000000        0xc ./xip/evkmimxrt1060_flexspi_nor_config.o
 .group         0x0000000000000000        0xc ./xip/evkmimxrt1060_flexspi_nor_config.o
 .group         0x0000000000000000        0xc ./xip/evkmimxrt1060_flexspi_nor_config.o
 .group         0x0000000000000000        0xc ./xip/evkmimxrt1060_flexspi_nor_config.o
 .group         0x0000000000000000        0xc ./xip/evkmimxrt1060_flexspi_nor_config.o
 .group         0x0000000000000000        0xc ./xip/evkmimxrt1060_flexspi_nor_config.o
 .group         0x0000000000000000        0xc ./xip/evkmimxrt1060_flexspi_nor_config.o
 .group         0x0000000000000000        0xc ./xip/evkmimxrt1060_flexspi_nor_config.o
 .group         0x0000000000000000        0xc ./xip/evkmimxrt1060_flexspi_nor_config.o
 .group         0x0000000000000000        0xc ./xip/evkmimxrt1060_flexspi_nor_config.o
 .group         0x0000000000000000        0xc ./xip/evkmimxrt1060_flexspi_nor_config.o
 .group         0x0000000000000000        0xc ./xip/evkmimxrt1060_flexspi_nor_config.o
Memory Configuration

Name             Origin             Length             Attributes
BOARD_FLASH      0x0000000060000000 0x0000000000800000 xr
SRAM_DTC         0x0000000020000000 0x0000000000020000 xrw
SRAM_ITC         0x0000000000000000 0x0000000000020000 xrw
SRAM_OC          0x0000000020200000 0x00000000000c0000 xrw
BOARD_SDRAM      0x0000000080000000 0x0000000001e00000 xrw
NCACHE_REGION    0x0000000081e00000 0x0000000000200000 xrw
*default*        0x0000000000000000 0xffffffffffffffff

Linker script and memory map

LOAD ./xip/evkmimxrt1060_flexspi_nor_config.o
LOAD ./xip/evkmimxrt1060_sdram_ini_dcd.o
LOAD ./xip/fsl_flexspi_nor_boot.o
LOAD ./utilities/fsl_assert.o
LOAD ./utilities/fsl_debug_console.o
LOAD ./utilities/fsl_str.o
LOAD ./startup/startup_mimxrt1062.o
LOAD ./source/freertos_hello.o
LOAD ./source/semihost_hardfault.o
LOAD ./drivers/fsl_clock.o
LOAD ./drivers/fsl_common.o
LOAD ./drivers/fsl_gpio.o
LOAD ./drivers/fsl_lpuart.o
LOAD ./device/system_MIMXRT1062.o
LOAD ./component/uart/lpuart_adapter.o
LOAD ./component/serial_manager/serial_manager.o
LOAD ./component/serial_manager/serial_port_uart.o
LOAD ./component/lists/generic_list.o
LOAD ./board/board.o
LOAD ./board/clock_config.o
LOAD ./board/pin_mux.o
LOAD ./amazon-freertos/freertos_kernel/portable/MemMang/heap_4.o
LOAD ./amazon-freertos/freertos_kernel/portable/GCC/ARM_CM4F/port.o
LOAD ./amazon-freertos/freertos_kernel/event_groups.o
LOAD ./amazon-freertos/freertos_kernel/list.o
LOAD ./amazon-freertos/freertos_kernel/queue.o
LOAD ./amazon-freertos/freertos_kernel/stream_buffer.o
LOAD ./amazon-freertos/freertos_kernel/tasks.o
LOAD ./amazon-freertos/freertos_kernel/timers.o
START GROUP
LOAD /usr/local/mcuxpressoide-11.1.0_3209/ide/plugins/com.nxp.mcuxpresso.tools.linux_11.1.0.201909161352/tools/bin/../lib/gcc/arm-none-eabi/8.3.1/../../../../arm-none-eabi/lib/thumb/v7e-m+dp/hard/libcr_nohost_nf.a
LOAD /usr/local/mcuxpressoide-11.1.0_3209/ide/plugins/com.nxp.mcuxpresso.tools.linux_11.1.0.201909161352/tools/bin/../lib/gcc/arm-none-eabi/8.3.1/../../../../arm-none-eabi/lib/thumb/v7e-m+dp/hard/libcr_c.a
LOAD /usr/local/mcuxpressoide-11.1.0_3209/ide/plugins/com.nxp.mcuxpresso.tools.linux_11.1.0.201909161352/tools/bin/../lib/gcc/arm-none-eabi/8.3.1/thumb/v7e-m+dp/hard/libcr_eabihelpers.a
LOAD /usr/local/mcuxpressoide-11.1.0_3209/ide/plugins/com.nxp.mcuxpresso.tools.linux_11.1.0.201909161352/tools/bin/../lib/gcc/arm-none-eabi/8.3.1/thumb/v7e-m+dp/hard/libgcc.a
END GROUP
                0x0000000060000000                __base_BOARD_FLASH = 0x60000000
                0x0000000060000000                __base_Flash = 0x60000000
                0x0000000060800000                __top_BOARD_FLASH = 0x60800000
                0x0000000060800000                __top_Flash = 0x60800000
                0x0000000020000000                __base_SRAM_DTC = 0x20000000
                0x0000000020000000                __base_RAM = 0x20000000
                0x0000000020020000                __top_SRAM_DTC = 0x20020000
                0x0000000020020000                __top_RAM = 0x20020000
                0x0000000000000000                __base_SRAM_ITC = 0x0
                0x0000000000000000                __base_RAM2 = 0x0
                0x0000000000020000                __top_SRAM_ITC = 0x20000
                0x0000000000020000                __top_RAM2 = 0x20000
                0x0000000020200000                __base_SRAM_OC = 0x20200000
                0x0000000020200000                __base_RAM3 = 0x20200000
                0x00000000202c0000                __top_SRAM_OC = 0x202c0000
                0x00000000202c0000                __top_RAM3 = 0x202c0000
                0x0000000080000000                __base_BOARD_SDRAM = 0x80000000
                0x0000000080000000                __base_RAM4 = 0x80000000
                0x0000000081e00000                __top_BOARD_SDRAM = 0x81e00000
                0x0000000081e00000                __top_RAM4 = 0x81e00000
                0x0000000081e00000                __base_NCACHE_REGION = 0x81e00000
                0x0000000081e00000                __base_RAM5 = 0x81e00000
                0x0000000082000000                __top_NCACHE_REGION = 0x82000000
                0x0000000082000000                __top_RAM5 = 0x82000000

.boot_hdr       0x0000000060000000     0x2000
 FILL mask 0xff
                0x0000000060000000                __boot_hdr_start__ = ABSOLUTE (.)
 *(SORT_BY_ALIGNMENT(.boot_hdr.conf))
 .boot_hdr.conf
                0x0000000060000000      0x200 ./xip/evkmimxrt1060_flexspi_nor_config.o
                0x0000000060000000                qspiflash_config
                0x0000000000001000                . = 0x1000
 *fill*         0x0000000060000200      0xe00 ff
 *(SORT_BY_ALIGNMENT(.boot_hdr.ivt))
 .boot_hdr.ivt  0x0000000060001000       0x20 ./xip/fsl_flexspi_nor_boot.o
                0x0000000060001000                image_vector_table
                0x0000000000001020                . = 0x1020
 *(SORT_BY_ALIGNMENT(.boot_hdr.boot_data))
 .boot_hdr.boot_data
                0x0000000060001020       0x10 ./xip/fsl_flexspi_nor_boot.o
                0x0000000060001020                boot_data
                0x0000000000001030                . = 0x1030
 *(SORT_BY_ALIGNMENT(.boot_hdr.dcd_data))
                0x0000000060001030                __boot_hdr_end__ = ABSOLUTE (.)
                0x0000000000002000                . = 0x2000
 *fill*         0x0000000060001030      0xfd0 ff

.text           0x0000000060002000     0x6e4c
 FILL mask 0xff
                0x0000000060002000                __vectors_start__ = ABSOLUTE (.)
 *(SORT_BY_ALIGNMENT(.isr_vector))
 .isr_vector    0x0000000060002000      0x2b8 ./startup/startup_mimxrt1062.o
                0x0000000060002000                __Vectors
                0x0000000060002000                g_pfnVectors
                0x00000000600022b8                . = ALIGN (0x4)
                0x00000000600022b8                __section_table_start = .
                0x00000000600022b8                __data_section_table = .
                0x00000000600022b8        0x4 LONG 0x60008e4c LOADADDR (.data)
                0x00000000600022bc        0x4 LONG 0x20000000 ADDR (.data)
                0x00000000600022c0        0x4 LONG 0x8 SIZEOF (.data)
                0x00000000600022c4        0x4 LONG 0x60008e4c LOADADDR (.data_RAM2)
                0x00000000600022c8        0x4 LONG 0x0 ADDR (.data_RAM2)
                0x00000000600022cc        0x4 LONG 0x0 SIZEOF (.data_RAM2)
                0x00000000600022d0        0x4 LONG 0x60008e4c LOADADDR (.data_RAM3)
                0x00000000600022d4        0x4 LONG 0x20200000 ADDR (.data_RAM3)
                0x00000000600022d8        0x4 LONG 0x0 SIZEOF (.data_RAM3)
                0x00000000600022dc        0x4 LONG 0x60008e4c LOADADDR (.data_RAM4)
                0x00000000600022e0        0x4 LONG 0x80000000 ADDR (.data_RAM4)
                0x00000000600022e4        0x4 LONG 0x0 SIZEOF (.data_RAM4)
                0x00000000600022e8        0x4 LONG 0x60008e4c LOADADDR (.data_RAM5)
                0x00000000600022ec        0x4 LONG 0x81e00000 ADDR (.data_RAM5)
                0x00000000600022f0        0x4 LONG 0x0 SIZEOF (.data_RAM5)
                0x00000000600022f4                __data_section_table_end = .
                0x00000000600022f4                __bss_section_table = .
                0x00000000600022f4        0x4 LONG 0x20000008 ADDR (.bss)
                0x00000000600022f8        0x4 LONG 0x2aa8 SIZEOF (.bss)
                0x00000000600022fc        0x4 LONG 0x0 ADDR (.bss_RAM2)
                0x0000000060002300        0x4 LONG 0x0 SIZEOF (.bss_RAM2)
                0x0000000060002304        0x4 LONG 0x20200000 ADDR (.bss_RAM3)
                0x0000000060002308        0x4 LONG 0x0 SIZEOF (.bss_RAM3)
                0x000000006000230c        0x4 LONG 0x80000000 ADDR (.bss_RAM4)
                0x0000000060002310        0x4 LONG 0x0 SIZEOF (.bss_RAM4)
                0x0000000060002314        0x4 LONG 0x81e00000 ADDR (.bss_RAM5)
                0x0000000060002318        0x4 LONG 0x0 SIZEOF (.bss_RAM5)
                0x000000006000231c                __bss_section_table_end = .
                0x000000006000231c                __section_table_end = .
 *(SORT_BY_ALIGNMENT(.after_vectors*))
 .after_vectors.reset
                0x000000006000231c       0x4c ./startup/startup_mimxrt1062.o
                0x000000006000231c                ResetISR
 .after_vectors.init_data
                0x0000000060002368       0x1e ./startup/startup_mimxrt1062.o
                0x0000000060002368                data_init
 .after_vectors.init_bss
                0x0000000060002386       0x12 ./startup/startup_mimxrt1062.o
                0x0000000060002386                bss_init
 .after_vectors
                0x0000000060002398        0xc ./startup/startup_mimxrt1062.o
                0x0000000060002398                NMI_Handler
                0x00000000600023a2                ACMP4_DriverIRQHandler
                0x00000000600023a2                Reserved87_DriverIRQHandler
                0x00000000600023a2                KPP_DriverIRQHandler
                0x00000000600023a2                FLEXSPI2_DriverIRQHandler
                0x00000000600023a2                LPSPI2_DriverIRQHandler
                0x00000000600023a2                LCDIF_DriverIRQHandler
                0x00000000600023a2                SAI3_RX_DriverIRQHandler
                0x00000000600023a2                CCM_2_DriverIRQHandler
                0x00000000600023a2                PIT_DriverIRQHandler
                0x00000000600023a2                PMU_EVENT_DriverIRQHandler
                0x00000000600023a2                PWM4_FAULT_DriverIRQHandler
                0x00000000600023a2                DMA13_DMA29_DriverIRQHandler
                0x00000000600023a2                FLEXRAM_DriverIRQHandler
                0x00000000600023a2                LPSPI4_DriverIRQHandler
                0x00000000600023a2                SEMC_DriverIRQHandler
                0x00000000600023a2                SPDIF_DriverIRQHandler
                0x00000000600023a2                PWM4_3_DriverIRQHandler
                0x00000000600023a2                ENET2_DriverIRQHandler
                0x00000000600023a2                USB_PHY1_DriverIRQHandler
                0x00000000600023a2                GPIO3_Combined_0_15_DriverIRQHandler
                0x00000000600023a2                CAN3_DriverIRQHandler
                0x00000000600023a2                Reserved171_DriverIRQHandler
                0x00000000600023a2                DMA7_DMA23_DriverIRQHandler
                0x00000000600023a2                BEE_DriverIRQHandler
                0x00000000600023a2                LPI2C3_DriverIRQHandler
                0x00000000600023a2                GPR_IRQ_DriverIRQHandler
                0x00000000600023a2                PWM2_FAULT_DriverIRQHandler
                0x00000000600023a2                PWM3_1_DriverIRQHandler
                0x00000000600023a2                DMA14_DMA30_DriverIRQHandler
                0x00000000600023a2                TMR1_DriverIRQHandler
                0x00000000600023a2                TRNG_DriverIRQHandler
                0x00000000600023a2                PWM3_2_DriverIRQHandler
                0x00000000600023a2                ENET_1588_Timer_DriverIRQHandler
                0x00000000600023a2                FLEXIO2_DriverIRQHandler
                0x00000000600023a2                GPIO2_Combined_16_31_DriverIRQHandler
                0x00000000600023a2                Reserved143_DriverIRQHandler
                0x00000000600023a2                PWM4_1_DriverIRQHandler
                0x00000000600023a2                PWM3_3_DriverIRQHandler
                0x00000000600023a2                DMA0_DMA16_DriverIRQHandler
                0x00000000600023a2                IntDefaultHandler
                0x00000000600023a2                DMA2_DMA18_DriverIRQHandler
                0x00000000600023a2                SRC_DriverIRQHandler
                0x00000000600023a2                GPIO1_INT4_DriverIRQHandler
                0x00000000600023a2                Reserved144_DriverIRQHandler
                0x00000000600023a2                USDHC1_DriverIRQHandler
                0x00000000600023a2                ENC3_DriverIRQHandler
                0x00000000600023a2                PWM3_FAULT_DriverIRQHandler
                0x00000000600023a2                EWM_DriverIRQHandler
                0x00000000600023a2                TSC_DIG_DriverIRQHandler
                0x00000000600023a2                WDOG1_DriverIRQHandler
                0x00000000600023a2                FLEXIO1_DriverIRQHandler
                0x00000000600023a2                ENET_DriverIRQHandler
                0x00000000600023a2                Reserved78_DriverIRQHandler
                0x00000000600023a2                TMR4_DriverIRQHandler
                0x00000000600023a2                ENC2_DriverIRQHandler
                0x00000000600023a2                ADC_ETC_IRQ2_DriverIRQHandler
                0x00000000600023a2                GPIO1_Combined_16_31_DriverIRQHandler
                0x00000000600023a2                GPIO1_INT7_DriverIRQHandler
                0x00000000600023a2                SAI1_DriverIRQHandler
                0x00000000600023a2                DCDC_DriverIRQHandler
                0x00000000600023a2                DMA12_DMA28_DriverIRQHandler
                0x00000000600023a2                PWM4_0_DriverIRQHandler
                0x00000000600023a2                ADC_ETC_ERROR_IRQ_DriverIRQHandler
                0x00000000600023a2                ACMP2_DriverIRQHandler
                0x00000000600023a2                GPIO5_Combined_0_15_DriverIRQHandler
                0x00000000600023a2                GPIO1_INT0_DriverIRQHandler
                0x00000000600023a2                GPIO1_INT2_DriverIRQHandler
                0x00000000600023a2                RTWDOG_DriverIRQHandler
                0x00000000600023a2                FLEXSPI_DriverIRQHandler
                0x00000000600023a2                GPT2_DriverIRQHandler
                0x00000000600023a2                USB_PHY2_DriverIRQHandler
                0x00000000600023a2                DMA10_DMA26_DriverIRQHandler
                0x00000000600023a2                PWM2_1_DriverIRQHandler
                0x00000000600023a2                PWM1_1_DriverIRQHandler
                0x00000000600023a2                PXP_DriverIRQHandler
                0x00000000600023a2                ADC1_DriverIRQHandler
                0x00000000600023a2                PWM1_0_DriverIRQHandler
                0x00000000600023a2                SJC_DriverIRQHandler
                0x00000000600023a2                DMA1_DMA17_DriverIRQHandler
                0x00000000600023a2                ENC1_DriverIRQHandler
                0x00000000600023a2                ENC4_DriverIRQHandler
                0x00000000600023a2                CAN2_DriverIRQHandler
                0x00000000600023a2                DCP_DriverIRQHandler
                0x00000000600023a2                CTI0_ERROR_DriverIRQHandler
                0x00000000600023a2                DMA8_DMA24_DriverIRQHandler
                0x00000000600023a2                GPT1_DriverIRQHandler
                0x00000000600023a2                ACMP3_DriverIRQHandler
                0x00000000600023a2                DMA6_DMA22_DriverIRQHandler
                0x00000000600023a2                CSU_DriverIRQHandler
                0x00000000600023a2                GPIO1_INT5_DriverIRQHandler
                0x00000000600023a2                TMR3_DriverIRQHandler
                0x00000000600023a2                TMR2_DriverIRQHandler
                0x00000000600023a2                CTI1_ERROR_DriverIRQHandler
                0x00000000600023a2                GPIO1_Combined_0_15_DriverIRQHandler
                0x00000000600023a2                USDHC2_DriverIRQHandler
                0x00000000600023a2                PWM4_2_DriverIRQHandler
                0x00000000600023a2                SAI2_DriverIRQHandler
                0x00000000600023a2                CORE_DriverIRQHandler
                0x00000000600023a2                DMA11_DMA27_DriverIRQHandler
                0x00000000600023a2                CSI_DriverIRQHandler
                0x00000000600023a2                PWM2_3_DriverIRQHandler
                0x00000000600023a2                XBAR1_IRQ_2_3_DriverIRQHandler
                0x00000000600023a2                SNVS_HP_WRAPPER_TZ_DriverIRQHandler
                0x00000000600023a2                GPIO3_Combined_16_31_DriverIRQHandler
                0x00000000600023a2                PWM1_FAULT_DriverIRQHandler
                0x00000000600023a2                LPI2C1_DriverIRQHandler
                0x00000000600023a2                ENET2_1588_Timer_DriverIRQHandler
                0x00000000600023a2                PWM2_2_DriverIRQHandler
                0x00000000600023a2                DMA4_DMA20_DriverIRQHandler
                0x00000000600023a2                DMA9_DMA25_DriverIRQHandler
                0x00000000600023a2                SNVS_HP_WRAPPER_DriverIRQHandler
                0x00000000600023a2                XBAR1_IRQ_0_1_DriverIRQHandler
                0x00000000600023a2                ADC_ETC_IRQ1_DriverIRQHandler
                0x00000000600023a2                LPSPI1_DriverIRQHandler
                0x00000000600023a2                DMA3_DMA19_DriverIRQHandler
                0x00000000600023a2                GPIO1_INT3_DriverIRQHandler
                0x00000000600023a2                DCP_VMI_DriverIRQHandler
                0x00000000600023a2                LPI2C4_DriverIRQHandler
                0x00000000600023a2                GPC_DriverIRQHandler
                0x00000000600023a2                GPIO2_Combined_0_15_DriverIRQHandler
                0x00000000600023a2                PWM1_2_DriverIRQHandler
                0x00000000600023a2                USB_OTG1_DriverIRQHandler
                0x00000000600023a2                TEMP_LOW_HIGH_DriverIRQHandler
                0x00000000600023a2                SAI3_TX_DriverIRQHandler
                0x00000000600023a2                FLEXIO3_DriverIRQHandler
                0x00000000600023a2                WDOG2_DriverIRQHandler
                0x00000000600023a2                Reserved68_DriverIRQHandler
                0x00000000600023a2                PWM3_0_DriverIRQHandler
                0x00000000600023a2                GPIO4_Combined_0_15_DriverIRQHandler
                0x00000000600023a2                GPIO4_Combined_16_31_DriverIRQHandler
                0x00000000600023a2                GPIO6_7_8_9_DriverIRQHandler
                0x00000000600023a2                GPIO5_Combined_16_31_DriverIRQHandler
                0x00000000600023a2                DMA5_DMA21_DriverIRQHandler
                0x00000000600023a2                CCM_1_DriverIRQHandler
                0x00000000600023a2                ADC2_DriverIRQHandler
                0x00000000600023a2                Reserved115_DriverIRQHandler
                0x00000000600023a2                TEMP_PANIC_DriverIRQHandler
                0x00000000600023a2                DMA15_DMA31_DriverIRQHandler
                0x00000000600023a2                LPSPI3_DriverIRQHandler
                0x00000000600023a2                PWM1_3_DriverIRQHandler
                0x00000000600023a2                ACMP1_DriverIRQHandler
                0x00000000600023a2                LPI2C2_DriverIRQHandler
                0x00000000600023a2                Reserved86_DriverIRQHandler
                0x00000000600023a2                DMA_ERROR_DriverIRQHandler
                0x00000000600023a2                ADC_ETC_IRQ0_DriverIRQHandler
                0x00000000600023a2                CAN1_DriverIRQHandler
                0x00000000600023a2                GPIO1_INT6_DriverIRQHandler
                0x00000000600023a2                GPIO1_INT1_DriverIRQHandler
                0x00000000600023a2                PWM2_0_DriverIRQHandler
                0x00000000600023a2                SNVS_LP_WRAPPER_DriverIRQHandler
                0x00000000600023a2                USB_OTG2_DriverIRQHandler
 *(SORT_BY_ALIGNMENT(.text*))
 *fill*         0x00000000600023a4        0xc ff
 .text.SVC_Handler
                0x00000000600023b0       0x28 ./amazon-freertos/freertos_kernel/portable/GCC/ARM_CM4F/port.o
                0x00000000600023b0                SVC_Handler
 *fill*         0x00000000600023d8        0x8 ff
 .text.PendSV_Handler
                0x00000000600023e0       0x68 ./amazon-freertos/freertos_kernel/portable/GCC/ARM_CM4F/port.o
                0x00000000600023e0                PendSV_Handler
 .text.__assertion_failed
                0x0000000060002448       0x18 ./utilities/fsl_assert.o
                0x0000000060002448                __assertion_failed
 .text.DbgConsole_SendDataReliable
                0x0000000060002460       0x68 ./utilities/fsl_debug_console.o
                0x0000000060002460                DbgConsole_SendDataReliable
 .text.DbgConsole_Init
                0x00000000600024c8      0x104 ./utilities/fsl_debug_console.o
                0x00000000600024c8                DbgConsole_Init
 .text.DbgConsole_Printf
                0x00000000600025cc       0x74 ./utilities/fsl_debug_console.o
                0x00000000600025cc                DbgConsole_Printf
 .text.main     0x0000000060002640       0x68 ./source/freertos_hello.o
                0x0000000060002640                main
 .text.hello_task
                0x00000000600026a8       0x28 ./source/freertos_hello.o
 .text.CLOCK_GetOscFreq
                0x00000000600026d0       0x30 ./drivers/fsl_clock.o
 .text.CLOCK_InitExternalClk
                0x0000000060002700       0x6c ./drivers/fsl_clock.o
                0x0000000060002700                CLOCK_InitExternalClk
 .text.CLOCK_SwitchOsc
                0x000000006000276c       0x34 ./drivers/fsl_clock.o
                0x000000006000276c                CLOCK_SwitchOsc
 .text.CLOCK_InitRcOsc24M
                0x00000000600027a0       0x24 ./drivers/fsl_clock.o
                0x00000000600027a0                CLOCK_InitRcOsc24M
 .text.CLOCK_InitArmPll
                0x00000000600027c4       0x68 ./drivers/fsl_clock.o
                0x00000000600027c4                CLOCK_InitArmPll
 .text.CLOCK_InitSysPll
                0x000000006000282c       0x9c ./drivers/fsl_clock.o
                0x000000006000282c                CLOCK_InitSysPll
 .text.CLOCK_DeinitUsb2Pll
                0x00000000600028c8       0x18 ./drivers/fsl_clock.o
                0x00000000600028c8                CLOCK_DeinitUsb2Pll
 .text.CLOCK_DeinitAudioPll
                0x00000000600028e0       0x1c ./drivers/fsl_clock.o
                0x00000000600028e0                CLOCK_DeinitAudioPll
 .text.CLOCK_DeinitEnetPll
                0x00000000600028fc       0x1c ./drivers/fsl_clock.o
                0x00000000600028fc                CLOCK_DeinitEnetPll
 .text.CLOCK_GetPllFreq
                0x0000000060002918      0x3b0 ./drivers/fsl_clock.o
                0x0000000060002918                CLOCK_GetPllFreq
 .text.CLOCK_InitSysPfd
                0x0000000060002cc8       0x64 ./drivers/fsl_clock.o
                0x0000000060002cc8                CLOCK_InitSysPfd
 .text.SDK_DelayAtLeastUs
                0x0000000060002d2c       0x90 ./drivers/fsl_common.o
                0x0000000060002d2c                SDK_DelayAtLeastUs
 .text.CLOCK_ControlGate
                0x0000000060002dbc       0x64 ./drivers/fsl_gpio.o
 .text.GPIO_GetInstance
                0x0000000060002e20       0x4c ./drivers/fsl_gpio.o
 .text.GPIO_PinInit
                0x0000000060002e6c       0xa4 ./drivers/fsl_gpio.o
                0x0000000060002e6c                GPIO_PinInit
 .text.GPIO_PinWrite
                0x0000000060002f10       0x54 ./drivers/fsl_gpio.o
                0x0000000060002f10                GPIO_PinWrite
 .text.GPIO_PinSetInterruptConfig
                0x0000000060002f64       0xfc ./drivers/fsl_gpio.o
                0x0000000060002f64                GPIO_PinSetInterruptConfig
 .text.CLOCK_ControlGate
                0x0000000060003060       0x64 ./drivers/fsl_lpuart.o
 .text.LPUART_GetInstance
                0x00000000600030c4       0x4c ./drivers/fsl_lpuart.o
                0x00000000600030c4                LPUART_GetInstance
 .text.LPUART_Init
                0x0000000060003110      0x310 ./drivers/fsl_lpuart.o
                0x0000000060003110                LPUART_Init
 .text.LPUART_GetDefaultConfig
                0x0000000060003420       0x88 ./drivers/fsl_lpuart.o
                0x0000000060003420                LPUART_GetDefaultConfig
 .text.LPUART_WriteBlocking
                0x00000000600034a8       0x68 ./drivers/fsl_lpuart.o
                0x00000000600034a8                LPUART_WriteBlocking
 .text.LPUART1_DriverIRQHandler
                0x0000000060003510       0x24 ./drivers/fsl_lpuart.o
                0x0000000060003510                LPUART1_DriverIRQHandler
 .text.LPUART2_DriverIRQHandler
                0x0000000060003534       0x24 ./drivers/fsl_lpuart.o
                0x0000000060003534                LPUART2_DriverIRQHandler
 .text.LPUART3_DriverIRQHandler
                0x0000000060003558       0x24 ./drivers/fsl_lpuart.o
                0x0000000060003558                LPUART3_DriverIRQHandler
 .text.LPUART4_DriverIRQHandler
                0x000000006000357c       0x24 ./drivers/fsl_lpuart.o
                0x000000006000357c                LPUART4_DriverIRQHandler
 .text.LPUART5_DriverIRQHandler
                0x00000000600035a0       0x24 ./drivers/fsl_lpuart.o
                0x00000000600035a0                LPUART5_DriverIRQHandler
 .text.LPUART6_DriverIRQHandler
                0x00000000600035c4       0x24 ./drivers/fsl_lpuart.o
                0x00000000600035c4                LPUART6_DriverIRQHandler
 .text.LPUART7_DriverIRQHandler
                0x00000000600035e8       0x24 ./drivers/fsl_lpuart.o
                0x00000000600035e8                LPUART7_DriverIRQHandler
 .text.LPUART8_DriverIRQHandler
                0x000000006000360c       0x24 ./drivers/fsl_lpuart.o
                0x000000006000360c                LPUART8_DriverIRQHandler
 .text.SystemInit
                0x0000000060003630      0x1c8 ./device/system_MIMXRT1062.o
                0x0000000060003630                SystemInit
 .text.HAL_UartInit
                0x00000000600037f8      0x100 ./component/uart/lpuart_adapter.o
                0x00000000600037f8                HAL_UartInit
 .text.HAL_UartSendBlocking
                0x00000000600038f8       0x64 ./component/uart/lpuart_adapter.o
                0x00000000600038f8                HAL_UartSendBlocking
 .text.SerialManager_Write
                0x000000006000395c       0x6c ./component/serial_manager/serial_manager.o
 .text.SerialManager_Init
                0x00000000600039c8       0x74 ./component/serial_manager/serial_manager.o
                0x00000000600039c8                SerialManager_Init
 .text.SerialManager_OpenWriteHandle
                0x0000000060003a3c       0x64 ./component/serial_manager/serial_manager.o
                0x0000000060003a3c                SerialManager_OpenWriteHandle
 .text.SerialManager_OpenReadHandle
                0x0000000060003aa0       0x74 ./component/serial_manager/serial_manager.o
                0x0000000060003aa0                SerialManager_OpenReadHandle
 .text.Serial_UartInit
                0x0000000060003b14       0x80 ./component/serial_manager/serial_port_uart.o
                0x0000000060003b14                Serial_UartInit
 .text.Serial_UartWrite
                0x0000000060003b94       0x58 ./component/serial_manager/serial_port_uart.o
                0x0000000060003b94                Serial_UartWrite
 .text.ARM_MPU_Enable
                0x0000000060003bec       0x3c ./board/board.o
 .text.ARM_MPU_Disable
                0x0000000060003c28       0x34 ./board/board.o
 .text.CLOCK_GetMux
                0x0000000060003c5c       0x44 ./board/board.o
 .text.CLOCK_GetDiv
                0x0000000060003ca0       0x44 ./board/board.o
 .text.CLOCK_GetOscFreq
                0x0000000060003ce4       0x30 ./board/board.o
 .text.BOARD_DebugConsoleSrcFreq
                0x0000000060003d14       0x64 ./board/board.o
                0x0000000060003d14                BOARD_DebugConsoleSrcFreq
 .text.BOARD_ConfigMPU
                0x0000000060003d78      0x2b0 ./board/board.o
                0x0000000060003d78                BOARD_ConfigMPU
 .text.CLOCK_SetMux
                0x0000000060004028       0x9c ./board/clock_config.o
 .text.CLOCK_SetDiv
                0x00000000600040c4       0x9c ./board/clock_config.o
 .text.CLOCK_ControlGate
                0x0000000060004160       0x64 ./board/clock_config.o
 .text.CLOCK_SetXtalFreq
                0x00000000600041c4       0x20 ./board/clock_config.o
 .text.CLOCK_SetRtcXtalFreq
                0x00000000600041e4       0x20 ./board/clock_config.o
 .text.IOMUXC_EnableMode
                0x0000000060004204       0x48 ./board/clock_config.o
 .text.IOMUXC_MQSConfig
                0x000000006000424c       0x44 ./board/clock_config.o
 .text.BOARD_BootClockRUN
                0x0000000060004290      0x6d0 ./board/clock_config.o
                0x0000000060004290                BOARD_BootClockRUN
 .text.CLOCK_ControlGate
                0x0000000060004960       0x64 ./board/pin_mux.o
 .text.BOARD_InitPins
                0x00000000600049c4       0x78 ./board/pin_mux.o
                0x00000000600049c4                BOARD_InitPins
 .text.pvPortMalloc
                0x0000000060004a3c      0x184 ./amazon-freertos/freertos_kernel/portable/MemMang/heap_4.o
                0x0000000060004a3c                pvPortMalloc
 .text.vPortFree
                0x0000000060004bc0       0xb0 ./amazon-freertos/freertos_kernel/portable/MemMang/heap_4.o
                0x0000000060004bc0                vPortFree
 .text.prvHeapInit
                0x0000000060004c70       0xc4 ./amazon-freertos/freertos_kernel/portable/MemMang/heap_4.o
 .text.prvInsertBlockIntoFreeList
                0x0000000060004d34       0xb4 ./amazon-freertos/freertos_kernel/portable/MemMang/heap_4.o
 .text.pxPortInitialiseStack
                0x0000000060004de8       0x68 ./amazon-freertos/freertos_kernel/portable/GCC/ARM_CM4F/port.o
                0x0000000060004de8                pxPortInitialiseStack
 .text.prvTaskExitError
                0x0000000060004e50       0x54 ./amazon-freertos/freertos_kernel/portable/GCC/ARM_CM4F/port.o
 .text.prvPortStartFirstTask
                0x0000000060004ea4       0x28 ./amazon-freertos/freertos_kernel/portable/GCC/ARM_CM4F/port.o
 .text.xPortStartScheduler
                0x0000000060004ecc      0x13c ./amazon-freertos/freertos_kernel/portable/GCC/ARM_CM4F/port.o
                0x0000000060004ecc                xPortStartScheduler
 .text.vPortEnterCritical
                0x0000000060005008       0x5c ./amazon-freertos/freertos_kernel/portable/GCC/ARM_CM4F/port.o
                0x0000000060005008                vPortEnterCritical
 .text.vPortExitCritical
                0x0000000060005064       0x50 ./amazon-freertos/freertos_kernel/portable/GCC/ARM_CM4F/port.o
                0x0000000060005064                vPortExitCritical
 .text.SysTick_Handler
                0x00000000600050b4       0x40 ./amazon-freertos/freertos_kernel/portable/GCC/ARM_CM4F/port.o
                0x00000000600050b4                SysTick_Handler
 .text.vPortSetupTimerInterrupt
                0x00000000600050f4       0x48 ./amazon-freertos/freertos_kernel/portable/GCC/ARM_CM4F/port.o
                0x00000000600050f4                vPortSetupTimerInterrupt
 .text.vPortEnableVFP
                0x000000006000513c       0x14 ./amazon-freertos/freertos_kernel/portable/GCC/ARM_CM4F/port.o
 .text.vPortValidateInterruptPriority
                0x0000000060005150       0x7c ./amazon-freertos/freertos_kernel/portable/GCC/ARM_CM4F/port.o
                0x0000000060005150                vPortValidateInterruptPriority
 .text.xQueueGenericReset
                0x00000000600051cc       0xd0 ./amazon-freertos/freertos_kernel/queue.o
                0x00000000600051cc                xQueueGenericReset
 .text.xQueueGenericSend
                0x000000006000529c      0x1f4 ./amazon-freertos/freertos_kernel/queue.o
                0x000000006000529c                xQueueGenericSend
 .text.xQueueReceive
                0x0000000060005490      0x1b8 ./amazon-freertos/freertos_kernel/queue.o
                0x0000000060005490                xQueueReceive
 .text.vQueueAddToRegistry
                0x0000000060005648       0x50 ./amazon-freertos/freertos_kernel/queue.o
                0x0000000060005648                vQueueAddToRegistry
 .text.prvAddNewTaskToReadyList
                0x0000000060005698       0xdc ./amazon-freertos/freertos_kernel/tasks.o
 .text.vTaskStartScheduler
                0x0000000060005774       0x98 ./amazon-freertos/freertos_kernel/tasks.o
                0x0000000060005774                vTaskStartScheduler
 .text.vTaskSuspendAll
                0x000000006000580c       0x1c ./amazon-freertos/freertos_kernel/tasks.o
                0x000000006000580c                vTaskSuspendAll
 .text.xTaskResumeAll
                0x0000000060005828      0x138 ./amazon-freertos/freertos_kernel/tasks.o
                0x0000000060005828                xTaskResumeAll
 .text.xTaskGetTickCount
                0x0000000060005960       0x20 ./amazon-freertos/freertos_kernel/tasks.o
                0x0000000060005960                xTaskGetTickCount
 .text.xTaskIncrementTick
                0x0000000060005980      0x150 ./amazon-freertos/freertos_kernel/tasks.o
                0x0000000060005980                xTaskIncrementTick
 .text.vTaskSwitchContext
                0x0000000060005ad0       0xb4 ./amazon-freertos/freertos_kernel/tasks.o
                0x0000000060005ad0                vTaskSwitchContext
 .text.vTaskPlaceOnEventList
                0x0000000060005b84       0x48 ./amazon-freertos/freertos_kernel/tasks.o
                0x0000000060005b84                vTaskPlaceOnEventList
 .text.vTaskPlaceOnEventListRestricted
                0x0000000060005bcc       0x54 ./amazon-freertos/freertos_kernel/tasks.o
                0x0000000060005bcc                vTaskPlaceOnEventListRestricted
 .text.xTaskRemoveFromEventList
                0x0000000060005c20       0xc4 ./amazon-freertos/freertos_kernel/tasks.o
                0x0000000060005c20                xTaskRemoveFromEventList
 .text.vTaskInternalSetTimeOutState
                0x0000000060005ce4       0x2c ./amazon-freertos/freertos_kernel/tasks.o
                0x0000000060005ce4                vTaskInternalSetTimeOutState
 .text.xTaskCheckForTimeOut
                0x0000000060005d10       0xc0 ./amazon-freertos/freertos_kernel/tasks.o
                0x0000000060005d10                xTaskCheckForTimeOut
 .text.vTaskMissedYield
                0x0000000060005dd0       0x18 ./amazon-freertos/freertos_kernel/tasks.o
                0x0000000060005dd0                vTaskMissedYield
 .text.prvIdleTask
                0x0000000060005de8       0x30 ./amazon-freertos/freertos_kernel/tasks.o
 .text.prvInitialiseTaskLists
                0x0000000060005e18       0x80 ./amazon-freertos/freertos_kernel/tasks.o
 .text.prvCheckTasksWaitingTermination
                0x0000000060005e98       0x58 ./amazon-freertos/freertos_kernel/tasks.o
 .text.prvResetNextTaskUnblockTime
                0x0000000060005ef0       0x40 ./amazon-freertos/freertos_kernel/tasks.o
 .text.xTaskGetSchedulerState
                0x0000000060005f30       0x3c ./amazon-freertos/freertos_kernel/tasks.o
                0x0000000060005f30                xTaskGetSchedulerState
 .text.xTaskPriorityDisinherit
                0x0000000060005f6c      0x108 ./amazon-freertos/freertos_kernel/tasks.o
                0x0000000060005f6c                xTaskPriorityDisinherit
 .text.prvAddCurrentTaskToDelayedList
                0x0000000060006074       0xcc ./amazon-freertos/freertos_kernel/tasks.o
 .text.xTimerCreateTimerTask
                0x0000000060006140       0x60 ./amazon-freertos/freertos_kernel/timers.o
                0x0000000060006140                xTimerCreateTimerTask
 .text.xTimerGenericCommand
                0x00000000600061a0       0x98 ./amazon-freertos/freertos_kernel/timers.o
                0x00000000600061a0                xTimerGenericCommand
 .text.prvProcessExpiredTimer
                0x0000000060006238       0x98 ./amazon-freertos/freertos_kernel/timers.o
 .text.prvProcessTimerOrBlockTask
                0x00000000600062d0       0x9c ./amazon-freertos/freertos_kernel/timers.o
 .text.prvGetNextExpireTime
                0x000000006000636c       0x48 ./amazon-freertos/freertos_kernel/timers.o
 .text.prvSampleTimeNow
                0x00000000600063b4       0x40 ./amazon-freertos/freertos_kernel/timers.o
 .text.prvInsertTimerInActiveList
                0x00000000600063f4       0x84 ./amazon-freertos/freertos_kernel/timers.o
 .text.prvProcessReceivedCommands
                0x0000000060006478      0x1b8 ./amazon-freertos/freertos_kernel/timers.o
 .text.prvSwitchTimerLists
                0x0000000060006630       0xc8 ./amazon-freertos/freertos_kernel/timers.o
 .text.prvCheckForValidListAndQueue
                0x00000000600066f8       0x6c ./amazon-freertos/freertos_kernel/timers.o
 .text._initio  0x0000000060006764       0x78 /usr/local/mcuxpressoide-11.1.0_3209/ide/plugins/com.nxp.mcuxpresso.tools.linux_11.1.0.201909161352/tools/bin/../lib/gcc/arm-none-eabi/8.3.1/../../../../arm-none-eabi/lib/thumb/v7e-m+dp/hard/libcr_c.a(initio.o)
                0x0000000060006764                _initio
 .text.setvbuf  0x00000000600067dc       0x40 /usr/local/mcuxpressoide-11.1.0_3209/ide/plugins/com.nxp.mcuxpresso.tools.linux_11.1.0.201909161352/tools/bin/../lib/gcc/arm-none-eabi/8.3.1/../../../../arm-none-eabi/lib/thumb/v7e-m+dp/hard/libcr_c.a(setvbuf.o)
                0x00000000600067dc                setvbuf
 .text.fflush   0x000000006000681c       0x44 /usr/local/mcuxpressoide-11.1.0_3209/ide/plugins/com.nxp.mcuxpresso.tools.linux_11.1.0.201909161352/tools/bin/../lib/gcc/arm-none-eabi/8.3.1/../../../../arm-none-eabi/lib/thumb/v7e-m+dp/hard/libcr_c.a(fflush.o)
                0x000000006000681c                fflush
 .text.fseek    0x0000000060006860      0x100 /usr/local/mcuxpressoide-11.1.0_3209/ide/plugins/com.nxp.mcuxpresso.tools.linux_11.1.0.201909161352/tools/bin/../lib/gcc/arm-none-eabi/8.3.1/../../../../arm-none-eabi/lib/thumb/v7e-m+dp/hard/libcr_c.a(fseek.o)
                0x0000000060006860                fseek
 .text.ftell    0x0000000060006960       0x48 /usr/local/mcuxpressoide-11.1.0_3209/ide/plugins/com.nxp.mcuxpresso.tools.linux_11.1.0.201909161352/tools/bin/../lib/gcc/arm-none-eabi/8.3.1/../../../../arm-none-eabi/lib/thumb/v7e-m+dp/hard/libcr_c.a(ftell.o)
                0x0000000060006960                ftell
 .text._Cwritebuf
                0x00000000600069a8       0x6c /usr/local/mcuxpressoide-11.1.0_3209/ide/plugins/com.nxp.mcuxpresso.tools.linux_11.1.0.201909161352/tools/bin/../lib/gcc/arm-none-eabi/8.3.1/../../../../arm-none-eabi/lib/thumb/v7e-m+dp/hard/libcr_c.a(_writebuf.o)
                0x00000000600069a8                _Cwritebuf
 .text.DbgConsole_PrintCallback
                0x0000000060006a14       0x64 ./utilities/fsl_debug_console.o
 .text.ConvertRadixNumToString
                0x0000000060006a78      0x114 ./utilities/fsl_str.o
 .text.StrFormatPrintf
                0x0000000060006b8c      0x30c ./utilities/fsl_str.o
                0x0000000060006b8c                StrFormatPrintf
 .text.DMA0_DMA16_IRQHandler
                0x0000000060006e98        0x8 ./startup/startup_mimxrt1062.o
                0x0000000060006e98                DMA0_DMA16_IRQHandler
 .text.DMA1_DMA17_IRQHandler
                0x0000000060006ea0        0x8 ./startup/startup_mimxrt1062.o
                0x0000000060006ea0                DMA1_DMA17_IRQHandler
 .text.DMA2_DMA18_IRQHandler
                0x0000000060006ea8        0x8 ./startup/startup_mimxrt1062.o
                0x0000000060006ea8                DMA2_DMA18_IRQHandler
 .text.DMA3_DMA19_IRQHandler
                0x0000000060006eb0        0x8 ./startup/startup_mimxrt1062.o
                0x0000000060006eb0                DMA3_DMA19_IRQHandler
 .text.DMA4_DMA20_IRQHandler
                0x0000000060006eb8        0x8 ./startup/startup_mimxrt1062.o
                0x0000000060006eb8                DMA4_DMA20_IRQHandler
 .text.DMA5_DMA21_IRQHandler
                0x0000000060006ec0        0x8 ./startup/startup_mimxrt1062.o
                0x0000000060006ec0                DMA5_DMA21_IRQHandler
 .text.DMA6_DMA22_IRQHandler
                0x0000000060006ec8        0x8 ./startup/startup_mimxrt1062.o
                0x0000000060006ec8                DMA6_DMA22_IRQHandler
 .text.DMA7_DMA23_IRQHandler
                0x0000000060006ed0        0x8 ./startup/startup_mimxrt1062.o
                0x0000000060006ed0                DMA7_DMA23_IRQHandler
 .text.DMA8_DMA24_IRQHandler
                0x0000000060006ed8        0x8 ./startup/startup_mimxrt1062.o
                0x0000000060006ed8                DMA8_DMA24_IRQHandler
 .text.DMA9_DMA25_IRQHandler
                0x0000000060006ee0        0x8 ./startup/startup_mimxrt1062.o
                0x0000000060006ee0                DMA9_DMA25_IRQHandler
 .text.DMA10_DMA26_IRQHandler
                0x0000000060006ee8        0x8 ./startup/startup_mimxrt1062.o
                0x0000000060006ee8                DMA10_DMA26_IRQHandler
 .text.DMA11_DMA27_IRQHandler
                0x0000000060006ef0        0x8 ./startup/startup_mimxrt1062.o
                0x0000000060006ef0                DMA11_DMA27_IRQHandler
 .text.DMA12_DMA28_IRQHandler
                0x0000000060006ef8        0x8 ./startup/startup_mimxrt1062.o
                0x0000000060006ef8                DMA12_DMA28_IRQHandler
 .text.DMA13_DMA29_IRQHandler
                0x0000000060006f00        0x8 ./startup/startup_mimxrt1062.o
                0x0000000060006f00                DMA13_DMA29_IRQHandler
 .text.DMA14_DMA30_IRQHandler
                0x0000000060006f08        0x8 ./startup/startup_mimxrt1062.o
                0x0000000060006f08                DMA14_DMA30_IRQHandler
 .text.DMA15_DMA31_IRQHandler
                0x0000000060006f10        0x8 ./startup/startup_mimxrt1062.o
                0x0000000060006f10                DMA15_DMA31_IRQHandler
 .text.DMA_ERROR_IRQHandler
                0x0000000060006f18        0x8 ./startup/startup_mimxrt1062.o
                0x0000000060006f18                DMA_ERROR_IRQHandler
 .text.CTI0_ERROR_IRQHandler
                0x0000000060006f20        0x8 ./startup/startup_mimxrt1062.o
                0x0000000060006f20                CTI0_ERROR_IRQHandler
 .text.CTI1_ERROR_IRQHandler
                0x0000000060006f28        0x8 ./startup/startup_mimxrt1062.o
                0x0000000060006f28                CTI1_ERROR_IRQHandler
 .text.CORE_IRQHandler
                0x0000000060006f30        0x8 ./startup/startup_mimxrt1062.o
                0x0000000060006f30                CORE_IRQHandler
 .text.LPUART1_IRQHandler
                0x0000000060006f38        0x8 ./startup/startup_mimxrt1062.o
                0x0000000060006f38                LPUART1_IRQHandler
 .text.LPUART2_IRQHandler
                0x0000000060006f40        0x8 ./startup/startup_mimxrt1062.o
                0x0000000060006f40                LPUART2_IRQHandler
 .text.LPUART3_IRQHandler
                0x0000000060006f48        0x8 ./startup/startup_mimxrt1062.o
                0x0000000060006f48                LPUART3_IRQHandler
 .text.LPUART4_IRQHandler
                0x0000000060006f50        0x8 ./startup/startup_mimxrt1062.o
                0x0000000060006f50                LPUART4_IRQHandler
 .text.LPUART5_IRQHandler
                0x0000000060006f58        0x8 ./startup/startup_mimxrt1062.o
                0x0000000060006f58                LPUART5_IRQHandler
 .text.LPUART6_IRQHandler
                0x0000000060006f60        0x8 ./startup/startup_mimxrt1062.o
                0x0000000060006f60                LPUART6_IRQHandler
 .text.LPUART7_IRQHandler
                0x0000000060006f68        0x8 ./startup/startup_mimxrt1062.o
                0x0000000060006f68                LPUART7_IRQHandler
 .text.LPUART8_IRQHandler
                0x0000000060006f70        0x8 ./startup/startup_mimxrt1062.o
                0x0000000060006f70                LPUART8_IRQHandler
 .text.LPI2C1_IRQHandler
                0x0000000060006f78        0x8 ./startup/startup_mimxrt1062.o
                0x0000000060006f78                LPI2C1_IRQHandler
 .text.LPI2C2_IRQHandler
                0x0000000060006f80        0x8 ./startup/startup_mimxrt1062.o
                0x0000000060006f80                LPI2C2_IRQHandler
 .text.LPI2C3_IRQHandler
                0x0000000060006f88        0x8 ./startup/startup_mimxrt1062.o
                0x0000000060006f88                LPI2C3_IRQHandler
 .text.LPI2C4_IRQHandler
                0x0000000060006f90        0x8 ./startup/startup_mimxrt1062.o
                0x0000000060006f90                LPI2C4_IRQHandler
 .text.LPSPI1_IRQHandler
                0x0000000060006f98        0x8 ./startup/startup_mimxrt1062.o
                0x0000000060006f98                LPSPI1_IRQHandler
 .text.LPSPI2_IRQHandler
                0x0000000060006fa0        0x8 ./startup/startup_mimxrt1062.o
                0x0000000060006fa0                LPSPI2_IRQHandler
 .text.LPSPI3_IRQHandler
                0x0000000060006fa8        0x8 ./startup/startup_mimxrt1062.o
                0x0000000060006fa8                LPSPI3_IRQHandler
 .text.LPSPI4_IRQHandler
                0x0000000060006fb0        0x8 ./startup/startup_mimxrt1062.o
                0x0000000060006fb0                LPSPI4_IRQHandler
 .text.CAN1_IRQHandler
                0x0000000060006fb8        0x8 ./startup/startup_mimxrt1062.o
                0x0000000060006fb8                CAN1_IRQHandler
 .text.CAN2_IRQHandler
                0x0000000060006fc0        0x8 ./startup/startup_mimxrt1062.o
                0x0000000060006fc0                CAN2_IRQHandler
 .text.FLEXRAM_IRQHandler
                0x0000000060006fc8        0x8 ./startup/startup_mimxrt1062.o
                0x0000000060006fc8                FLEXRAM_IRQHandler
 .text.KPP_IRQHandler
                0x0000000060006fd0        0x8 ./startup/startup_mimxrt1062.o
                0x0000000060006fd0                KPP_IRQHandler
 .text.TSC_DIG_IRQHandler
                0x0000000060006fd8        0x8 ./startup/startup_mimxrt1062.o
                0x0000000060006fd8                TSC_DIG_IRQHandler
 .text.GPR_IRQ_IRQHandler
                0x0000000060006fe0        0x8 ./startup/startup_mimxrt1062.o
                0x0000000060006fe0                GPR_IRQ_IRQHandler
 .text.LCDIF_IRQHandler
                0x0000000060006fe8        0x8 ./startup/startup_mimxrt1062.o
                0x0000000060006fe8                LCDIF_IRQHandler
 .text.CSI_IRQHandler
                0x0000000060006ff0        0x8 ./startup/startup_mimxrt1062.o
                0x0000000060006ff0                CSI_IRQHandler
 .text.PXP_IRQHandler
                0x0000000060006ff8        0x8 ./startup/startup_mimxrt1062.o
                0x0000000060006ff8                PXP_IRQHandler
 .text.WDOG2_IRQHandler
                0x0000000060007000        0x8 ./startup/startup_mimxrt1062.o
                0x0000000060007000                WDOG2_IRQHandler
 .text.SNVS_HP_WRAPPER_IRQHandler
                0x0000000060007008        0x8 ./startup/startup_mimxrt1062.o
                0x0000000060007008                SNVS_HP_WRAPPER_IRQHandler
 .text.SNVS_HP_WRAPPER_TZ_IRQHandler
                0x0000000060007010        0x8 ./startup/startup_mimxrt1062.o
                0x0000000060007010                SNVS_HP_WRAPPER_TZ_IRQHandler
 .text.SNVS_LP_WRAPPER_IRQHandler
                0x0000000060007018        0x8 ./startup/startup_mimxrt1062.o
                0x0000000060007018                SNVS_LP_WRAPPER_IRQHandler
 .text.CSU_IRQHandler
                0x0000000060007020        0x8 ./startup/startup_mimxrt1062.o
                0x0000000060007020                CSU_IRQHandler
 .text.DCP_IRQHandler
                0x0000000060007028        0x8 ./startup/startup_mimxrt1062.o
                0x0000000060007028                DCP_IRQHandler
 .text.DCP_VMI_IRQHandler
                0x0000000060007030        0x8 ./startup/startup_mimxrt1062.o
                0x0000000060007030                DCP_VMI_IRQHandler
 .text.Reserved68_IRQHandler
                0x0000000060007038        0x8 ./startup/startup_mimxrt1062.o
                0x0000000060007038                Reserved68_IRQHandler
 .text.TRNG_IRQHandler
                0x0000000060007040        0x8 ./startup/startup_mimxrt1062.o
                0x0000000060007040                TRNG_IRQHandler
 .text.SJC_IRQHandler
                0x0000000060007048        0x8 ./startup/startup_mimxrt1062.o
                0x0000000060007048                SJC_IRQHandler
 .text.BEE_IRQHandler
                0x0000000060007050        0x8 ./startup/startup_mimxrt1062.o
                0x0000000060007050                BEE_IRQHandler
 .text.SAI1_IRQHandler
                0x0000000060007058        0x8 ./startup/startup_mimxrt1062.o
                0x0000000060007058                SAI1_IRQHandler
 .text.SAI2_IRQHandler
                0x0000000060007060        0x8 ./startup/startup_mimxrt1062.o
                0x0000000060007060                SAI2_IRQHandler
 .text.SAI3_RX_IRQHandler
                0x0000000060007068        0x8 ./startup/startup_mimxrt1062.o
                0x0000000060007068                SAI3_RX_IRQHandler
 .text.SAI3_TX_IRQHandler
                0x0000000060007070        0x8 ./startup/startup_mimxrt1062.o
                0x0000000060007070                SAI3_TX_IRQHandler
 .text.SPDIF_IRQHandler
                0x0000000060007078        0x8 ./startup/startup_mimxrt1062.o
                0x0000000060007078                SPDIF_IRQHandler
 .text.PMU_EVENT_IRQHandler
                0x0000000060007080        0x8 ./startup/startup_mimxrt1062.o
                0x0000000060007080                PMU_EVENT_IRQHandler
 .text.Reserved78_IRQHandler
                0x0000000060007088        0x8 ./startup/startup_mimxrt1062.o
                0x0000000060007088                Reserved78_IRQHandler
 .text.TEMP_LOW_HIGH_IRQHandler
                0x0000000060007090        0x8 ./startup/startup_mimxrt1062.o
                0x0000000060007090                TEMP_LOW_HIGH_IRQHandler
 .text.TEMP_PANIC_IRQHandler
                0x0000000060007098        0x8 ./startup/startup_mimxrt1062.o
                0x0000000060007098                TEMP_PANIC_IRQHandler
 .text.USB_PHY1_IRQHandler
                0x00000000600070a0        0x8 ./startup/startup_mimxrt1062.o
                0x00000000600070a0                USB_PHY1_IRQHandler
 .text.USB_PHY2_IRQHandler
                0x00000000600070a8        0x8 ./startup/startup_mimxrt1062.o
                0x00000000600070a8                USB_PHY2_IRQHandler
 .text.ADC1_IRQHandler
                0x00000000600070b0        0x8 ./startup/startup_mimxrt1062.o
                0x00000000600070b0                ADC1_IRQHandler
 .text.ADC2_IRQHandler
                0x00000000600070b8        0x8 ./startup/startup_mimxrt1062.o
                0x00000000600070b8                ADC2_IRQHandler
 .text.DCDC_IRQHandler
                0x00000000600070c0        0x8 ./startup/startup_mimxrt1062.o
                0x00000000600070c0                DCDC_IRQHandler
 .text.Reserved86_IRQHandler
                0x00000000600070c8        0x8 ./startup/startup_mimxrt1062.o
                0x00000000600070c8                Reserved86_IRQHandler
 .text.Reserved87_IRQHandler
                0x00000000600070d0        0x8 ./startup/startup_mimxrt1062.o
                0x00000000600070d0                Reserved87_IRQHandler
 .text.GPIO1_INT0_IRQHandler
                0x00000000600070d8        0x8 ./startup/startup_mimxrt1062.o
                0x00000000600070d8                GPIO1_INT0_IRQHandler
 .text.GPIO1_INT1_IRQHandler
                0x00000000600070e0        0x8 ./startup/startup_mimxrt1062.o
                0x00000000600070e0                GPIO1_INT1_IRQHandler
 .text.GPIO1_INT2_IRQHandler
                0x00000000600070e8        0x8 ./startup/startup_mimxrt1062.o
                0x00000000600070e8                GPIO1_INT2_IRQHandler
 .text.GPIO1_INT3_IRQHandler
                0x00000000600070f0        0x8 ./startup/startup_mimxrt1062.o
                0x00000000600070f0                GPIO1_INT3_IRQHandler
 .text.GPIO1_INT4_IRQHandler
                0x00000000600070f8        0x8 ./startup/startup_mimxrt1062.o
                0x00000000600070f8                GPIO1_INT4_IRQHandler
 .text.GPIO1_INT5_IRQHandler
                0x0000000060007100        0x8 ./startup/startup_mimxrt1062.o
                0x0000000060007100                GPIO1_INT5_IRQHandler
 .text.GPIO1_INT6_IRQHandler
                0x0000000060007108        0x8 ./startup/startup_mimxrt1062.o
                0x0000000060007108                GPIO1_INT6_IRQHandler
 .text.GPIO1_INT7_IRQHandler
                0x0000000060007110        0x8 ./startup/startup_mimxrt1062.o
                0x0000000060007110                GPIO1_INT7_IRQHandler
 .text.GPIO1_Combined_0_15_IRQHandler
                0x0000000060007118        0x8 ./startup/startup_mimxrt1062.o
                0x0000000060007118                GPIO1_Combined_0_15_IRQHandler
 .text.GPIO1_Combined_16_31_IRQHandler
                0x0000000060007120        0x8 ./startup/startup_mimxrt1062.o
                0x0000000060007120                GPIO1_Combined_16_31_IRQHandler
 .text.GPIO2_Combined_0_15_IRQHandler
                0x0000000060007128        0x8 ./startup/startup_mimxrt1062.o
                0x0000000060007128                GPIO2_Combined_0_15_IRQHandler
 .text.GPIO2_Combined_16_31_IRQHandler
                0x0000000060007130        0x8 ./startup/startup_mimxrt1062.o
                0x0000000060007130                GPIO2_Combined_16_31_IRQHandler
 .text.GPIO3_Combined_0_15_IRQHandler
                0x0000000060007138        0x8 ./startup/startup_mimxrt1062.o
                0x0000000060007138                GPIO3_Combined_0_15_IRQHandler
 .text.GPIO3_Combined_16_31_IRQHandler
                0x0000000060007140        0x8 ./startup/startup_mimxrt1062.o
                0x0000000060007140                GPIO3_Combined_16_31_IRQHandler
 .text.GPIO4_Combined_0_15_IRQHandler
                0x0000000060007148        0x8 ./startup/startup_mimxrt1062.o
                0x0000000060007148                GPIO4_Combined_0_15_IRQHandler
 .text.GPIO4_Combined_16_31_IRQHandler
                0x0000000060007150        0x8 ./startup/startup_mimxrt1062.o
                0x0000000060007150                GPIO4_Combined_16_31_IRQHandler
 .text.GPIO5_Combined_0_15_IRQHandler
                0x0000000060007158        0x8 ./startup/startup_mimxrt1062.o
                0x0000000060007158                GPIO5_Combined_0_15_IRQHandler
 .text.GPIO5_Combined_16_31_IRQHandler
                0x0000000060007160        0x8 ./startup/startup_mimxrt1062.o
                0x0000000060007160                GPIO5_Combined_16_31_IRQHandler
 .text.FLEXIO1_IRQHandler
                0x0000000060007168        0x8 ./startup/startup_mimxrt1062.o
                0x0000000060007168                FLEXIO1_IRQHandler
 .text.FLEXIO2_IRQHandler
                0x0000000060007170        0x8 ./startup/startup_mimxrt1062.o
                0x0000000060007170                FLEXIO2_IRQHandler
 .text.WDOG1_IRQHandler
                0x0000000060007178        0x8 ./startup/startup_mimxrt1062.o
                0x0000000060007178                WDOG1_IRQHandler
 .text.RTWDOG_IRQHandler
                0x0000000060007180        0x8 ./startup/startup_mimxrt1062.o
                0x0000000060007180                RTWDOG_IRQHandler
 .text.EWM_IRQHandler
                0x0000000060007188        0x8 ./startup/startup_mimxrt1062.o
                0x0000000060007188                EWM_IRQHandler
 .text.CCM_1_IRQHandler
                0x0000000060007190        0x8 ./startup/startup_mimxrt1062.o
                0x0000000060007190                CCM_1_IRQHandler
 .text.CCM_2_IRQHandler
                0x0000000060007198        0x8 ./startup/startup_mimxrt1062.o
                0x0000000060007198                CCM_2_IRQHandler
 .text.GPC_IRQHandler
                0x00000000600071a0        0x8 ./startup/startup_mimxrt1062.o
                0x00000000600071a0                GPC_IRQHandler
 .text.SRC_IRQHandler
                0x00000000600071a8        0x8 ./startup/startup_mimxrt1062.o
                0x00000000600071a8                SRC_IRQHandler
 .text.Reserved115_IRQHandler
                0x00000000600071b0        0x8 ./startup/startup_mimxrt1062.o
                0x00000000600071b0                Reserved115_IRQHandler
 .text.GPT1_IRQHandler
                0x00000000600071b8        0x8 ./startup/startup_mimxrt1062.o
                0x00000000600071b8                GPT1_IRQHandler
 .text.GPT2_IRQHandler
                0x00000000600071c0        0x8 ./startup/startup_mimxrt1062.o
                0x00000000600071c0                GPT2_IRQHandler
 .text.PWM1_0_IRQHandler
                0x00000000600071c8        0x8 ./startup/startup_mimxrt1062.o
                0x00000000600071c8                PWM1_0_IRQHandler
 .text.PWM1_1_IRQHandler
                0x00000000600071d0        0x8 ./startup/startup_mimxrt1062.o
                0x00000000600071d0                PWM1_1_IRQHandler
 .text.PWM1_2_IRQHandler
                0x00000000600071d8        0x8 ./startup/startup_mimxrt1062.o
                0x00000000600071d8                PWM1_2_IRQHandler
 .text.PWM1_3_IRQHandler
                0x00000000600071e0        0x8 ./startup/startup_mimxrt1062.o
                0x00000000600071e0                PWM1_3_IRQHandler
 .text.PWM1_FAULT_IRQHandler
                0x00000000600071e8        0x8 ./startup/startup_mimxrt1062.o
                0x00000000600071e8                PWM1_FAULT_IRQHandler
 .text.FLEXSPI2_IRQHandler
                0x00000000600071f0        0x8 ./startup/startup_mimxrt1062.o
                0x00000000600071f0                FLEXSPI2_IRQHandler
 .text.FLEXSPI_IRQHandler
                0x00000000600071f8        0x8 ./startup/startup_mimxrt1062.o
                0x00000000600071f8                FLEXSPI_IRQHandler
 .text.SEMC_IRQHandler
                0x0000000060007200        0x8 ./startup/startup_mimxrt1062.o
                0x0000000060007200                SEMC_IRQHandler
 .text.USDHC1_IRQHandler
                0x0000000060007208        0x8 ./startup/startup_mimxrt1062.o
                0x0000000060007208                USDHC1_IRQHandler
 .text.USDHC2_IRQHandler
                0x0000000060007210        0x8 ./startup/startup_mimxrt1062.o
                0x0000000060007210                USDHC2_IRQHandler
 .text.USB_OTG2_IRQHandler
                0x0000000060007218        0x8 ./startup/startup_mimxrt1062.o
                0x0000000060007218                USB_OTG2_IRQHandler
 .text.USB_OTG1_IRQHandler
                0x0000000060007220        0x8 ./startup/startup_mimxrt1062.o
                0x0000000060007220                USB_OTG1_IRQHandler
 .text.ENET_IRQHandler
                0x0000000060007228        0x8 ./startup/startup_mimxrt1062.o
                0x0000000060007228                ENET_IRQHandler
 .text.ENET_1588_Timer_IRQHandler
                0x0000000060007230        0x8 ./startup/startup_mimxrt1062.o
                0x0000000060007230                ENET_1588_Timer_IRQHandler
 .text.XBAR1_IRQ_0_1_IRQHandler
                0x0000000060007238        0x8 ./startup/startup_mimxrt1062.o
                0x0000000060007238                XBAR1_IRQ_0_1_IRQHandler
 .text.XBAR1_IRQ_2_3_IRQHandler
                0x0000000060007240        0x8 ./startup/startup_mimxrt1062.o
                0x0000000060007240                XBAR1_IRQ_2_3_IRQHandler
 .text.ADC_ETC_IRQ0_IRQHandler
                0x0000000060007248        0x8 ./startup/startup_mimxrt1062.o
                0x0000000060007248                ADC_ETC_IRQ0_IRQHandler
 .text.ADC_ETC_IRQ1_IRQHandler
                0x0000000060007250        0x8 ./startup/startup_mimxrt1062.o
                0x0000000060007250                ADC_ETC_IRQ1_IRQHandler
 .text.ADC_ETC_IRQ2_IRQHandler
                0x0000000060007258        0x8 ./startup/startup_mimxrt1062.o
                0x0000000060007258                ADC_ETC_IRQ2_IRQHandler
 .text.ADC_ETC_ERROR_IRQ_IRQHandler
                0x0000000060007260        0x8 ./startup/startup_mimxrt1062.o
                0x0000000060007260                ADC_ETC_ERROR_IRQ_IRQHandler
 .text.PIT_IRQHandler
                0x0000000060007268        0x8 ./startup/startup_mimxrt1062.o
                0x0000000060007268                PIT_IRQHandler
 .text.ACMP1_IRQHandler
                0x0000000060007270        0x8 ./startup/startup_mimxrt1062.o
                0x0000000060007270                ACMP1_IRQHandler
 .text.ACMP2_IRQHandler
                0x0000000060007278        0x8 ./startup/startup_mimxrt1062.o
                0x0000000060007278                ACMP2_IRQHandler
 .text.ACMP3_IRQHandler
                0x0000000060007280        0x8 ./startup/startup_mimxrt1062.o
                0x0000000060007280                ACMP3_IRQHandler
 .text.ACMP4_IRQHandler
                0x0000000060007288        0x8 ./startup/startup_mimxrt1062.o
                0x0000000060007288                ACMP4_IRQHandler
 .text.Reserved143_IRQHandler
                0x0000000060007290        0x8 ./startup/startup_mimxrt1062.o
                0x0000000060007290                Reserved143_IRQHandler
 .text.Reserved144_IRQHandler
                0x0000000060007298        0x8 ./startup/startup_mimxrt1062.o
                0x0000000060007298                Reserved144_IRQHandler
 .text.ENC1_IRQHandler
                0x00000000600072a0        0x8 ./startup/startup_mimxrt1062.o
                0x00000000600072a0                ENC1_IRQHandler
 .text.ENC2_IRQHandler
                0x00000000600072a8        0x8 ./startup/startup_mimxrt1062.o
                0x00000000600072a8                ENC2_IRQHandler
 .text.ENC3_IRQHandler
                0x00000000600072b0        0x8 ./startup/startup_mimxrt1062.o
                0x00000000600072b0                ENC3_IRQHandler
 .text.ENC4_IRQHandler
                0x00000000600072b8        0x8 ./startup/startup_mimxrt1062.o
                0x00000000600072b8                ENC4_IRQHandler
 .text.TMR1_IRQHandler
                0x00000000600072c0        0x8 ./startup/startup_mimxrt1062.o
                0x00000000600072c0                TMR1_IRQHandler
 .text.TMR2_IRQHandler
                0x00000000600072c8        0x8 ./startup/startup_mimxrt1062.o
                0x00000000600072c8                TMR2_IRQHandler
 .text.TMR3_IRQHandler
                0x00000000600072d0        0x8 ./startup/startup_mimxrt1062.o
                0x00000000600072d0                TMR3_IRQHandler
 .text.TMR4_IRQHandler
                0x00000000600072d8        0x8 ./startup/startup_mimxrt1062.o
                0x00000000600072d8                TMR4_IRQHandler
 .text.PWM2_0_IRQHandler
                0x00000000600072e0        0x8 ./startup/startup_mimxrt1062.o
                0x00000000600072e0                PWM2_0_IRQHandler
 .text.PWM2_1_IRQHandler
                0x00000000600072e8        0x8 ./startup/startup_mimxrt1062.o
                0x00000000600072e8                PWM2_1_IRQHandler
 .text.PWM2_2_IRQHandler
                0x00000000600072f0        0x8 ./startup/startup_mimxrt1062.o
                0x00000000600072f0                PWM2_2_IRQHandler
 .text.PWM2_3_IRQHandler
                0x00000000600072f8        0x8 ./startup/startup_mimxrt1062.o
                0x00000000600072f8                PWM2_3_IRQHandler
 .text.PWM2_FAULT_IRQHandler
                0x0000000060007300        0x8 ./startup/startup_mimxrt1062.o
                0x0000000060007300                PWM2_FAULT_IRQHandler
 .text.PWM3_0_IRQHandler
                0x0000000060007308        0x8 ./startup/startup_mimxrt1062.o
                0x0000000060007308                PWM3_0_IRQHandler
 .text.PWM3_1_IRQHandler
                0x0000000060007310        0x8 ./startup/startup_mimxrt1062.o
                0x0000000060007310                PWM3_1_IRQHandler
 .text.PWM3_2_IRQHandler
                0x0000000060007318        0x8 ./startup/startup_mimxrt1062.o
                0x0000000060007318                PWM3_2_IRQHandler
 .text.PWM3_3_IRQHandler
                0x0000000060007320        0x8 ./startup/startup_mimxrt1062.o
                0x0000000060007320                PWM3_3_IRQHandler
 .text.PWM3_FAULT_IRQHandler
                0x0000000060007328        0x8 ./startup/startup_mimxrt1062.o
                0x0000000060007328                PWM3_FAULT_IRQHandler
 .text.PWM4_0_IRQHandler
                0x0000000060007330        0x8 ./startup/startup_mimxrt1062.o
                0x0000000060007330                PWM4_0_IRQHandler
 .text.PWM4_1_IRQHandler
                0x0000000060007338        0x8 ./startup/startup_mimxrt1062.o
                0x0000000060007338                PWM4_1_IRQHandler
 .text.PWM4_2_IRQHandler
                0x0000000060007340        0x8 ./startup/startup_mimxrt1062.o
                0x0000000060007340                PWM4_2_IRQHandler
 .text.PWM4_3_IRQHandler
                0x0000000060007348        0x8 ./startup/startup_mimxrt1062.o
                0x0000000060007348                PWM4_3_IRQHandler
 .text.PWM4_FAULT_IRQHandler
                0x0000000060007350        0x8 ./startup/startup_mimxrt1062.o
                0x0000000060007350                PWM4_FAULT_IRQHandler
 .text.ENET2_IRQHandler
                0x0000000060007358        0x8 ./startup/startup_mimxrt1062.o
                0x0000000060007358                ENET2_IRQHandler
 .text.ENET2_1588_Timer_IRQHandler
                0x0000000060007360        0x8 ./startup/startup_mimxrt1062.o
                0x0000000060007360                ENET2_1588_Timer_IRQHandler
 .text.CAN3_IRQHandler
                0x0000000060007368        0x8 ./startup/startup_mimxrt1062.o
                0x0000000060007368                CAN3_IRQHandler
 .text.Reserved171_IRQHandler
                0x0000000060007370        0x8 ./startup/startup_mimxrt1062.o
                0x0000000060007370                Reserved171_IRQHandler
 .text.FLEXIO3_IRQHandler
                0x0000000060007378        0x8 ./startup/startup_mimxrt1062.o
                0x0000000060007378                FLEXIO3_IRQHandler
 .text.GPIO6_7_8_9_IRQHandler
                0x0000000060007380        0x8 ./startup/startup_mimxrt1062.o
                0x0000000060007380                GPIO6_7_8_9_IRQHandler
 .text.GPIO_PortToggle
                0x0000000060007388       0x1e ./source/freertos_hello.o
 .text.HardFault_Handler
                0x00000000600073a6       0x2c ./source/semihost_hardfault.o
                0x00000000600073a6                HardFault_Handler
 .text.CLOCK_IsPllBypassed
                0x00000000600073d2       0x32 ./drivers/fsl_clock.o
 .text.CLOCK_IsPllEnabled
                0x0000000060007404       0x3c ./drivers/fsl_clock.o
 .text.CLOCK_GetPllBypassRefClk
                0x0000000060007440       0x34 ./drivers/fsl_clock.o
 .text.DelayLoop
                0x0000000060007474       0x20 ./drivers/fsl_common.o
 .text.CLOCK_EnableClock
                0x0000000060007494       0x1e ./drivers/fsl_gpio.o
 .text.GPIO_SetPinInterruptConfig
                0x00000000600074b2       0x22 ./drivers/fsl_gpio.o
 .text.CLOCK_EnableClock
                0x00000000600074d4       0x1e ./drivers/fsl_lpuart.o
 .text.LPUART_SoftwareReset
                0x00000000600074f2       0x2c ./drivers/fsl_lpuart.o
 .text.SystemInitHook
                0x000000006000751e        0xe ./device/system_MIMXRT1062.o
                0x000000006000751e                SystemInitHook
 .text.HAL_UartGetStatus
                0x000000006000752c       0x22 ./component/uart/lpuart_adapter.o
 .text.DisableGlobalIRQ
                0x000000006000754e       0x20 ./component/serial_manager/serial_manager.o
 .text.EnableGlobalIRQ
                0x000000006000756e       0x1e ./component/serial_manager/serial_manager.o
 .text.SerialManager_StartWriting
                0x000000006000758c       0x4a ./component/serial_manager/serial_manager.o
 .text.SerialManager_WriteBlocking
                0x00000000600075d6       0x20 ./component/serial_manager/serial_manager.o
                0x00000000600075d6                SerialManager_WriteBlocking
 .text.BOARD_InitDebugConsole
                0x00000000600075f6       0x22 ./board/board.o
                0x00000000600075f6                BOARD_InitDebugConsole
 .text.CLOCK_DisableClock
                0x0000000060007618       0x1e ./board/clock_config.o
 .text.CLOCK_SetPllBypass
                0x0000000060007636       0x4e ./board/clock_config.o
 .text.IOMUXC_SetSaiMClkClockSource
                0x0000000060007684       0x6c ./board/clock_config.o
 .text.CLOCK_EnableClock
                0x00000000600076f0       0x1e ./board/pin_mux.o
 .text.IOMUXC_SetPinMux
                0x000000006000770e       0x3a ./board/pin_mux.o
 .text.IOMUXC_SetPinConfig
                0x0000000060007748       0x26 ./board/pin_mux.o
 .text.vListInitialise
                0x000000006000776e       0x40 ./amazon-freertos/freertos_kernel/list.o
                0x000000006000776e                vListInitialise
 .text.vListInitialiseItem
                0x00000000600077ae       0x1a ./amazon-freertos/freertos_kernel/list.o
                0x00000000600077ae                vListInitialiseItem
 .text.vListInsertEnd
                0x00000000600077c8       0x48 ./amazon-freertos/freertos_kernel/list.o
                0x00000000600077c8                vListInsertEnd
 .text.vListInsert
                0x0000000060007810       0x72 ./amazon-freertos/freertos_kernel/list.o
                0x0000000060007810                vListInsert
 .text.uxListRemove
                0x0000000060007882       0x54 ./amazon-freertos/freertos_kernel/list.o
                0x0000000060007882                uxListRemove
 .text.xQueueGenericCreate
                0x00000000600078d6       0x76 ./amazon-freertos/freertos_kernel/queue.o
                0x00000000600078d6                xQueueGenericCreate
 .text.prvInitialiseNewQueue
                0x000000006000794c       0x46 ./amazon-freertos/freertos_kernel/queue.o
 .text.xQueueGenericSendFromISR
                0x0000000060007992      0x128 ./amazon-freertos/freertos_kernel/queue.o
                0x0000000060007992                xQueueGenericSendFromISR
 .text.prvCopyDataToQueue
                0x0000000060007aba       0xd4 ./amazon-freertos/freertos_kernel/queue.o
 .text.prvCopyDataFromQueue
                0x0000000060007b8e       0x4c ./amazon-freertos/freertos_kernel/queue.o
 .text.prvUnlockQueue
                0x0000000060007bda       0xa4 ./amazon-freertos/freertos_kernel/queue.o
 .text.prvIsQueueEmpty
                0x0000000060007c7e       0x2c ./amazon-freertos/freertos_kernel/queue.o
 .text.prvIsQueueFull
                0x0000000060007caa       0x30 ./amazon-freertos/freertos_kernel/queue.o
 .text.vQueueWaitForMessageRestricted
                0x0000000060007cda       0x68 ./amazon-freertos/freertos_kernel/queue.o
                0x0000000060007cda                vQueueWaitForMessageRestricted
 .text.xTaskCreate
                0x0000000060007d42       0x82 ./amazon-freertos/freertos_kernel/tasks.o
                0x0000000060007d42                xTaskCreate
 .text.prvInitialiseNewTask
                0x0000000060007dc4      0x142 ./amazon-freertos/freertos_kernel/tasks.o
 .text.prvDeleteTCB
                0x0000000060007f06       0x20 ./amazon-freertos/freertos_kernel/tasks.o
 .text.prvTimerTask
                0x0000000060007f26       0x24 ./amazon-freertos/freertos_kernel/timers.o
 .text.__main   0x0000000060007f4a        0xe /usr/local/mcuxpressoide-11.1.0_3209/ide/plugins/com.nxp.mcuxpresso.tools.linux_11.1.0.201909161352/tools/bin/../lib/gcc/arm-none-eabi/8.3.1/../../../../arm-none-eabi/lib/thumb/v7e-m+dp/hard/libcr_nohost_nf.a(_cr__main.o)
                0x0000000060007f4a                __main
 .text.memcpy   0x0000000060007f58        0x4 /usr/local/mcuxpressoide-11.1.0_3209/ide/plugins/com.nxp.mcuxpresso.tools.linux_11.1.0.201909161352/tools/bin/../lib/gcc/arm-none-eabi/8.3.1/../../../../arm-none-eabi/lib/thumb/v7e-m+dp/hard/libcr_c.a(memcpy.o)
                0x0000000060007f58                memcpy
 .text.memset   0x0000000060007f5c        0x4 /usr/local/mcuxpressoide-11.1.0_3209/ide/plugins/com.nxp.mcuxpresso.tools.linux_11.1.0.201909161352/tools/bin/../lib/gcc/arm-none-eabi/8.3.1/../../../../arm-none-eabi/lib/thumb/v7e-m+dp/hard/libcr_c.a(memset.o)
                0x0000000060007f5c                memset
 .text.free     0x0000000060007f60       0x30 /usr/local/mcuxpressoide-11.1.0_3209/ide/plugins/com.nxp.mcuxpresso.tools.linux_11.1.0.201909161352/tools/bin/../lib/gcc/arm-none-eabi/8.3.1/../../../../arm-none-eabi/lib/thumb/v7e-m+dp/hard/libcr_c.a(alloc.o)
                0x0000000060007f60                free
 .text.strlen   0x0000000060007f90       0x4c /usr/local/mcuxpressoide-11.1.0_3209/ide/plugins/com.nxp.mcuxpresso.tools.linux_11.1.0.201909161352/tools/bin/../lib/gcc/arm-none-eabi/8.3.1/../../../../arm-none-eabi/lib/thumb/v7e-m+dp/hard/libcr_c.a(strlen.o)
                0x0000000060007f90                strlen
 .text._fdopen  0x0000000060007fdc       0x68 /usr/local/mcuxpressoide-11.1.0_3209/ide/plugins/com.nxp.mcuxpresso.tools.linux_11.1.0.201909161352/tools/bin/../lib/gcc/arm-none-eabi/8.3.1/../../../../arm-none-eabi/lib/thumb/v7e-m+dp/hard/libcr_c.a(_fdopen.o)
                0x0000000060007fdc                _fdopen
 .text.fclose   0x0000000060008044       0x58 /usr/local/mcuxpressoide-11.1.0_3209/ide/plugins/com.nxp.mcuxpresso.tools.linux_11.1.0.201909161352/tools/bin/../lib/gcc/arm-none-eabi/8.3.1/../../../../arm-none-eabi/lib/thumb/v7e-m+dp/hard/libcr_c.a(fclose.o)
                0x0000000060008044                fclose
 .text.remove   0x000000006000809c       0x14 /usr/local/mcuxpressoide-11.1.0_3209/ide/plugins/com.nxp.mcuxpresso.tools.linux_11.1.0.201909161352/tools/bin/../lib/gcc/arm-none-eabi/8.3.1/../../../../arm-none-eabi/lib/thumb/v7e-m+dp/hard/libcr_c.a(remove.o)
                0x000000006000809c                remove
 .text._do_fflush
                0x00000000600080b0       0x40 /usr/local/mcuxpressoide-11.1.0_3209/ide/plugins/com.nxp.mcuxpresso.tools.linux_11.1.0.201909161352/tools/bin/../lib/gcc/arm-none-eabi/8.3.1/../../../../arm-none-eabi/lib/thumb/v7e-m+dp/hard/libcr_c.a(_do_fflush.o)
                0x00000000600080b0                _do_fflush
 .text._fflush  0x00000000600080f0       0x52 /usr/local/mcuxpressoide-11.1.0_3209/ide/plugins/com.nxp.mcuxpresso.tools.linux_11.1.0.201909161352/tools/bin/../lib/gcc/arm-none-eabi/8.3.1/../../../../arm-none-eabi/lib/thumb/v7e-m+dp/hard/libcr_c.a(_fflush.o)
                0x00000000600080f0                _fflush
 .text._deferredlazyseek
                0x0000000060008142       0x40 /usr/local/mcuxpressoide-11.1.0_3209/ide/plugins/com.nxp.mcuxpresso.tools.linux_11.1.0.201909161352/tools/bin/../lib/gcc/arm-none-eabi/8.3.1/../../../../arm-none-eabi/lib/thumb/v7e-m+dp/hard/libcr_c.a(_deferredlazyseek.o)
                0x0000000060008142                _deferredlazyseek
 .text.__aeabi_division_uldivmod
                0x0000000060008182      0x174 /usr/local/mcuxpressoide-11.1.0_3209/ide/plugins/com.nxp.mcuxpresso.tools.linux_11.1.0.201909161352/tools/bin/../lib/gcc/arm-none-eabi/8.3.1/thumb/v7e-m+dp/hard/libcr_eabihelpers.a(division_64.o)
                0x0000000060008182                __aeabi_uldivmod
                0x0000000060008186                __bhs_ldivmod1
 .text.__aeabi_division_idiv0
                0x00000000600082f6        0x2 /usr/local/mcuxpressoide-11.1.0_3209/ide/plugins/com.nxp.mcuxpresso.tools.linux_11.1.0.201909161352/tools/bin/../lib/gcc/arm-none-eabi/8.3.1/thumb/v7e-m+dp/hard/libcr_eabihelpers.a(division_idiv0.o)
                0x00000000600082f6                __aeabi_idiv0
 .text.__aeabi_memcpy
                0x00000000600082f8       0x34 /usr/local/mcuxpressoide-11.1.0_3209/ide/plugins/com.nxp.mcuxpresso.tools.linux_11.1.0.201909161352/tools/bin/../lib/gcc/arm-none-eabi/8.3.1/thumb/v7e-m+dp/hard/libcr_eabihelpers.a(memcpy.o)
                0x00000000600082f8                __aeabi_memcpy
                0x0000000060008302                __aeabi_memcpy4
                0x0000000060008302                __aeabi_memcpy8
 .text.__aeabi_memset_lowlevel
                0x000000006000832c       0x32 /usr/local/mcuxpressoide-11.1.0_3209/ide/plugins/com.nxp.mcuxpresso.tools.linux_11.1.0.201909161352/tools/bin/../lib/gcc/arm-none-eabi/8.3.1/thumb/v7e-m+dp/hard/libcr_eabihelpers.a(memcpy.o)
                0x000000006000832c                __aeabi_lowlevel_memset
 .text.__sys_close
                0x000000006000835e        0x6 /usr/local/mcuxpressoide-11.1.0_3209/ide/plugins/com.nxp.mcuxpresso.tools.linux_11.1.0.201909161352/tools/bin/../lib/gcc/arm-none-eabi/8.3.1/../../../../arm-none-eabi/lib/thumb/v7e-m+dp/hard/libcr_nohost_nf.a(__sys_close.o)
                0x000000006000835e                __sys_close
 .text.__sys_flen
                0x0000000060008364        0x6 /usr/local/mcuxpressoide-11.1.0_3209/ide/plugins/com.nxp.mcuxpresso.tools.linux_11.1.0.201909161352/tools/bin/../lib/gcc/arm-none-eabi/8.3.1/../../../../arm-none-eabi/lib/thumb/v7e-m+dp/hard/libcr_nohost_nf.a(__sys_flen.o)
                0x0000000060008364                __sys_flen
 .text.__sys_istty
                0x000000006000836a        0x6 /usr/local/mcuxpressoide-11.1.0_3209/ide/plugins/com.nxp.mcuxpresso.tools.linux_11.1.0.201909161352/tools/bin/../lib/gcc/arm-none-eabi/8.3.1/../../../../arm-none-eabi/lib/thumb/v7e-m+dp/hard/libcr_nohost_nf.a(__sys_istty.o)
                0x000000006000836a                __sys_istty
 .text.__sys_remove
                0x0000000060008370        0x6 /usr/local/mcuxpressoide-11.1.0_3209/ide/plugins/com.nxp.mcuxpresso.tools.linux_11.1.0.201909161352/tools/bin/../lib/gcc/arm-none-eabi/8.3.1/../../../../arm-none-eabi/lib/thumb/v7e-m+dp/hard/libcr_nohost_nf.a(__sys_remove.o)
                0x0000000060008370                __sys_remove
 .text.__sys_seek
                0x0000000060008376        0x6 /usr/local/mcuxpressoide-11.1.0_3209/ide/plugins/com.nxp.mcuxpresso.tools.linux_11.1.0.201909161352/tools/bin/../lib/gcc/arm-none-eabi/8.3.1/../../../../arm-none-eabi/lib/thumb/v7e-m+dp/hard/libcr_nohost_nf.a(__sys_seek.o)
                0x0000000060008376                __sys_seek
 .text.__sys_tmpnam
                0x000000006000837c        0x6 /usr/local/mcuxpressoide-11.1.0_3209/ide/plugins/com.nxp.mcuxpresso.tools.linux_11.1.0.201909161352/tools/bin/../lib/gcc/arm-none-eabi/8.3.1/../../../../arm-none-eabi/lib/thumb/v7e-m+dp/hard/libcr_nohost_nf.a(__sys_tmpnam.o)
                0x000000006000837c                __sys_tmpnam
 .text.__sys_write
                0x0000000060008382        0x4 /usr/local/mcuxpressoide-11.1.0_3209/ide/plugins/com.nxp.mcuxpresso.tools.linux_11.1.0.201909161352/tools/bin/../lib/gcc/arm-none-eabi/8.3.1/../../../../arm-none-eabi/lib/thumb/v7e-m+dp/hard/libcr_nohost_nf.a(__sys_write.o)
                0x0000000060008382                __sys_write
 *freertos*/tasks.o(SORT_BY_ALIGNMENT(.rodata*))
 *fill*         0x0000000060008386        0x2 ff
 .rodata.vTaskStartScheduler.str1.4
                0x0000000060008388        0x5 ./amazon-freertos/freertos_kernel/tasks.o
 *fill*         0x000000006000838d        0x3 ff
 .rodata        0x0000000060008390       0x1c ./amazon-freertos/freertos_kernel/tasks.o
                0x0000000060008390                portArch_Name
                0x0000000060008394                FreeRTOSDebugConfig
 *(SORT_BY_ALIGNMENT(.rodata) SORT_BY_ALIGNMENT(.rodata.*) SORT_BY_ALIGNMENT(.constdata) SORT_BY_ALIGNMENT(.constdata.*))
 .rodata.__assertion_failed.str1.4
                0x00000000600083ac       0x14 ./utilities/fsl_assert.o
 .rodata.DbgConsole_SendDataReliable.str1.4
                0x00000000600083c0       0x4d ./utilities/fsl_debug_console.o
 *fill*         0x000000006000840d        0x3 ff
 .rodata.DbgConsole_Init.str1.4
                0x0000000060008410       0xcb ./utilities/fsl_debug_console.o
 *fill*         0x00000000600084db        0x1 ff
 .rodata.main.str1.4
                0x00000000600084dc       0x25 ./source/freertos_hello.o
 *fill*         0x0000000060008501        0x3 ff
 .rodata.CLOCK_InitExternalClk.str1.4
                0x0000000060008504       0x22 ./drivers/fsl_clock.o
 *fill*         0x0000000060008526        0x2 ff
 .rodata.CLOCK_GetPllFreq.str1.4
                0x0000000060008528       0x6e ./drivers/fsl_clock.o
 *fill*         0x0000000060008596        0x2 ff
 .rodata        0x0000000060008598       0x10 ./drivers/fsl_clock.o
 .rodata.SDK_DelayAtLeastUs.str1.4
                0x00000000600085a8       0x4c ./drivers/fsl_common.o
 .rodata.CLOCK_ControlGate.str1.4
                0x00000000600085f4       0x21 ./drivers/fsl_gpio.o
 *fill*         0x0000000060008615        0x3 ff
 .rodata.s_gpioBases
                0x0000000060008618       0x28 ./drivers/fsl_gpio.o
 .rodata.s_gpioClock
                0x0000000060008640        0xc ./drivers/fsl_gpio.o
 .rodata.GPIO_GetInstance.str1.4
                0x000000006000864c       0x34 ./drivers/fsl_gpio.o
 .rodata.GPIO_PinWrite.str1.4
                0x0000000060008680       0x1c ./drivers/fsl_gpio.o
 .rodata.CLOCK_ControlGate.str1.4
                0x000000006000869c       0x21 ./drivers/fsl_lpuart.o
 .rodata.s_lpuartBases
                0x000000006000869c       0x24 ./drivers/fsl_lpuart.o
 .rodata.s_lpuartClock
                0x00000000600086c0       0x12 ./drivers/fsl_lpuart.o
 *fill*         0x00000000600086d2        0x2 ff
 .rodata.LPUART_GetInstance.str1.4
                0x00000000600086d4       0x39 ./drivers/fsl_lpuart.o
 *fill*         0x000000006000870d        0x3 ff
 .rodata.LPUART_Init.str1.4
                0x0000000060008710      0x10c ./drivers/fsl_lpuart.o
 .rodata.LPUART_GetDefaultConfig.str1.4
                0x000000006000881c       0x23 ./drivers/fsl_lpuart.o
 *fill*         0x000000006000883f        0x1 ff
 .rodata.LPUART_WriteBlocking.str1.4
                0x0000000060008840       0x21 ./drivers/fsl_lpuart.o
 *fill*         0x0000000060008861        0x3 ff
 .rodata.s_LpuartAdapterBase
                0x0000000060008864       0x24 ./component/uart/lpuart_adapter.o
 .rodata.HAL_UartInit.str1.4
                0x0000000060008888       0xe2 ./component/uart/lpuart_adapter.o
 *fill*         0x000000006000896a        0x2 ff
 .rodata.HAL_UartSendBlocking.str1.4
                0x000000006000896c       0x5f ./component/uart/lpuart_adapter.o
 *fill*         0x00000000600089cb        0x1 ff
 .rodata.SerialManager_Write.str1.4
                0x00000000600089cc       0x83 ./component/serial_manager/serial_manager.o
 *fill*         0x0000000060008a4f        0x1 ff
 .rodata.SerialManager_Init.str1.4
                0x0000000060008a50       0x45 ./component/serial_manager/serial_manager.o
 *fill*         0x0000000060008a95        0x3 ff
 .rodata.SerialManager_OpenWriteHandle.str1.4
                0x0000000060008a98       0x4d ./component/serial_manager/serial_manager.o
 *fill*         0x0000000060008ae5        0x3 ff
 .rodata.SerialManager_OpenReadHandle.str1.4
                0x0000000060008ae8       0x4c ./component/serial_manager/serial_manager.o
 .rodata.Serial_UartInit.str1.4
                0x0000000060008b34       0x4f ./component/serial_manager/serial_port_uart.o
 *fill*         0x0000000060008b83        0x1 ff
 .rodata.Serial_UartWrite.str1.4
                0x0000000060008b84       0x6d ./component/serial_manager/serial_port_uart.o
 *fill*         0x0000000060008bf1        0x3 ff
 .rodata.BOARD_ConfigMPU.str1.4
                0x0000000060008bf4       0x6a ./board/board.o
 *fill*         0x0000000060008c5e        0x2 ff
 .rodata.CLOCK_SetMux.str1.4
                0x0000000060008c60       0x95 ./board/clock_config.o
 *fill*         0x0000000060008cf5        0x3 ff
 .rodata.CLOCK_SetDiv.str1.4
                0x0000000060008cf8       0x96 ./board/clock_config.o
 *fill*         0x0000000060008d8e        0x2 ff
 .rodata.CLOCK_ControlGate.str1.4
                0x0000000060008d90       0x85 ./board/clock_config.o
 *fill*         0x0000000060008e15        0x3 ff
 .rodata.armPllConfig_BOARD_BootClockRUN
                0x0000000060008e18        0x8 ./board/clock_config.o
                0x0000000060008e18                armPllConfig_BOARD_BootClockRUN
 .rodata.sysPllConfig_BOARD_BootClockRUN
                0x0000000060008e20       0x14 ./board/clock_config.o
                0x0000000060008e20                sysPllConfig_BOARD_BootClockRUN
 .rodata.CLOCK_ControlGate.str1.4
                0x0000000060008e34       0x85 ./board/pin_mux.o
 .rodata.xTimerCreateTimerTask.str1.4
                0x0000000060008e34        0x8 ./amazon-freertos/freertos_kernel/timers.o
 .rodata.prvCheckForValidListAndQueue.str1.4
                0x0000000060008e3c        0x8 ./amazon-freertos/freertos_kernel/timers.o
                                          0x5 (size before relaxing)
 .rodata.__num_Ciob_streams
                0x0000000060008e44        0x4 /usr/local/mcuxpressoide-11.1.0_3209/ide/plugins/com.nxp.mcuxpresso.tools.linux_11.1.0.201909161352/tools/bin/../lib/gcc/arm-none-eabi/8.3.1/../../../../arm-none-eabi/lib/thumb/v7e-m+dp/hard/libcr_nohost_nf.a(__ciob.o)
                0x0000000060008e44                __num_Ciob_streams
 .rodata._initio.str1.1
                0x0000000060008e48        0x4 /usr/local/mcuxpressoide-11.1.0_3209/ide/plugins/com.nxp.mcuxpresso.tools.linux_11.1.0.201909161352/tools/bin/../lib/gcc/arm-none-eabi/8.3.1/../../../../arm-none-eabi/lib/thumb/v7e-m+dp/hard/libcr_c.a(initio.o)
                0x0000000060008ebc                . = ALIGN (0x4)

.glue_7         0x0000000060008e4c        0x0
 .glue_7        0x0000000060008e4c        0x0 linker stubs

.glue_7t        0x0000000060008e4c        0x0
 .glue_7t       0x0000000060008e4c        0x0 linker stubs

.vfp11_veneer   0x0000000060008e4c        0x0
 .vfp11_veneer  0x0000000060008e4c        0x0 linker stubs

.v4_bx          0x0000000060008e4c        0x0
 .v4_bx         0x0000000060008e4c        0x0 linker stubs

.iplt           0x0000000060008e4c        0x0
 .iplt          0x0000000060008e4c        0x0 ./xip/evkmimxrt1060_flexspi_nor_config.o

.rel.dyn        0x0000000060008e4c        0x0
 .rel.iplt      0x0000000060008e4c        0x0 ./xip/evkmimxrt1060_flexspi_nor_config.o

.ARM.extab
 *(SORT_BY_ALIGNMENT(.ARM.extab*) SORT_BY_ALIGNMENT(.gnu.linkonce.armextab.*))
                0x0000000060008e4c                __exidx_start = .

.ARM.exidx
 *(SORT_BY_ALIGNMENT(.ARM.exidx*) SORT_BY_ALIGNMENT(.gnu.linkonce.armexidx.*))
                0x0000000060008e4c                __exidx_end = .
                0x0000000060008e4c                _etext = .

.data_RAM2      0x0000000000000000        0x0 load address 0x0000000060008e4c
 FILL mask 0xff
                [!provide]                        PROVIDE (__start_data_RAM2 = .)
                [!provide]                        PROVIDE (__start_data_SRAM_ITC = .)
 *(SORT_BY_ALIGNMENT(.ramfunc.$RAM2))
 *(SORT_BY_ALIGNMENT(.ramfunc.$SRAM_ITC))
 *(SORT_BY_ALIGNMENT(.data.$RAM2))
 *(SORT_BY_ALIGNMENT(.data.$SRAM_ITC))
 *(SORT_BY_ALIGNMENT(.data.$RAM2.*))
 *(SORT_BY_ALIGNMENT(.data.$SRAM_ITC.*))
                0x0000000000000000                . = ALIGN (0x4)
                [!provide]                        PROVIDE (__end_data_RAM2 = .)
                [!provide]                        PROVIDE (__end_data_SRAM_ITC = .)

.data_RAM3      0x0000000020200000        0x0 load address 0x0000000060008e4c
 FILL mask 0xff
                [!provide]                        PROVIDE (__start_data_RAM3 = .)
                [!provide]                        PROVIDE (__start_data_SRAM_OC = .)
 *(SORT_BY_ALIGNMENT(.ramfunc.$RAM3))
 *(SORT_BY_ALIGNMENT(.ramfunc.$SRAM_OC))
 *(SORT_BY_ALIGNMENT(.data.$RAM3))
 *(SORT_BY_ALIGNMENT(.data.$SRAM_OC))
 *(SORT_BY_ALIGNMENT(.data.$RAM3.*))
 *(SORT_BY_ALIGNMENT(.data.$SRAM_OC.*))
                0x0000000020200000                . = ALIGN (0x4)
                [!provide]                        PROVIDE (__end_data_RAM3 = .)
                [!provide]                        PROVIDE (__end_data_SRAM_OC = .)

.data_RAM4      0x0000000080000000        0x0 load address 0x0000000060008e4c
 FILL mask 0xff
                [!provide]                        PROVIDE (__start_data_RAM4 = .)
                [!provide]                        PROVIDE (__start_data_BOARD_SDRAM = .)
 *(SORT_BY_ALIGNMENT(.ramfunc.$RAM4))
 *(SORT_BY_ALIGNMENT(.ramfunc.$BOARD_SDRAM))
 *(SORT_BY_ALIGNMENT(.data.$RAM4))
 *(SORT_BY_ALIGNMENT(.data.$BOARD_SDRAM))
 *(SORT_BY_ALIGNMENT(.data.$RAM4.*))
 *(SORT_BY_ALIGNMENT(.data.$BOARD_SDRAM.*))
                0x0000000080000000                . = ALIGN (0x4)
                [!provide]                        PROVIDE (__end_data_RAM4 = .)
                [!provide]                        PROVIDE (__end_data_BOARD_SDRAM = .)

.data_RAM5      0x0000000081e00000        0x0 load address 0x0000000060008e4c
 FILL mask 0xff
                [!provide]                        PROVIDE (__start_data_RAM5 = .)
                [!provide]                        PROVIDE (__start_data_NCACHE_REGION = .)
 *(SORT_BY_ALIGNMENT(.ramfunc.$RAM5))
 *(SORT_BY_ALIGNMENT(.ramfunc.$NCACHE_REGION))
 *(SORT_BY_ALIGNMENT(.data.$RAM5))
 *(SORT_BY_ALIGNMENT(.data.$NCACHE_REGION))
 *(SORT_BY_ALIGNMENT(.data.$RAM5.*))
 *(SORT_BY_ALIGNMENT(.data.$NCACHE_REGION.*))
                0x0000000081e00000                . = ALIGN (0x4)
                [!provide]                        PROVIDE (__end_data_RAM5 = .)
                [!provide]                        PROVIDE (__end_data_NCACHE_REGION = .)

.uninit_RESERVED
                0x0000000020000000        0x0
                0x0000000020000000                _start_uninit_RESERVED = .
 *(SORT_BY_ALIGNMENT(.bss.$RESERVED*))
                0x0000000020000000                . = ALIGN (0x4)
                0x0000000020000000                _end_uninit_RESERVED = .

.data           0x0000000020000000        0x8 load address 0x0000000060008e4c
 FILL mask 0xff
                0x0000000020000000                _data = .
                [!provide]                        PROVIDE (__start_data_RAM = .)
                [!provide]                        PROVIDE (__start_data_SRAM_DTC = .)
 *(SORT_BY_ALIGNMENT(vtable))
 *(SORT_BY_ALIGNMENT(.ramfunc*))
 *(SORT_BY_ALIGNMENT(CodeQuickAccess))
 *(SORT_BY_ALIGNMENT(DataQuickAccess))
 *(SORT_BY_ALIGNMENT(RamFunction))
 *(SORT_BY_ALIGNMENT(NonCacheable.init))
 *(SORT_BY_ALIGNMENT(.data*))
 .data.SystemCoreClock
                0x0000000020000000        0x4 ./device/system_MIMXRT1062.o
                0x0000000020000000                SystemCoreClock
 .data.uxCriticalNesting
                0x0000000020000004        0x4 ./amazon-freertos/freertos_kernel/portable/GCC/ARM_CM4F/port.o
                0x0000000020000008                . = ALIGN (0x4)
                0x0000000020000008                _edata = .
                [!provide]                        PROVIDE (__end_data_RAM = .)
                [!provide]                        PROVIDE (__end_data_SRAM_DTC = .)

.igot.plt       0x0000000020000008        0x0 load address 0x0000000060008e54
 .igot.plt      0x0000000020000008        0x0 ./xip/evkmimxrt1060_flexspi_nor_config.o

.bss_RAM2       0x0000000000000000        0x0
                [!provide]                        PROVIDE (__start_bss_RAM2 = .)
                [!provide]                        PROVIDE (__start_bss_SRAM_ITC = .)
 *(SORT_BY_ALIGNMENT(.bss.$RAM2))
 *(SORT_BY_ALIGNMENT(.bss.$SRAM_ITC))
 *(SORT_BY_ALIGNMENT(.bss.$RAM2.*))
 *(SORT_BY_ALIGNMENT(.bss.$SRAM_ITC.*))
                0x0000000000000000                . = ALIGN ((. != 0x0)?0x4:0x1)
                [!provide]                        PROVIDE (__end_bss_RAM2 = .)
                [!provide]                        PROVIDE (__end_bss_SRAM_ITC = .)

.bss_RAM3       0x0000000020200000        0x0
                [!provide]                        PROVIDE (__start_bss_RAM3 = .)
                [!provide]                        PROVIDE (__start_bss_SRAM_OC = .)
 *(SORT_BY_ALIGNMENT(.bss.$RAM3))
 *(SORT_BY_ALIGNMENT(.bss.$SRAM_OC))
 *(SORT_BY_ALIGNMENT(.bss.$RAM3.*))
 *(SORT_BY_ALIGNMENT(.bss.$SRAM_OC.*))
                0x0000000020200000                . = ALIGN ((. != 0x0)?0x4:0x1)
                [!provide]                        PROVIDE (__end_bss_RAM3 = .)
                [!provide]                        PROVIDE (__end_bss_SRAM_OC = .)

.bss_RAM4       0x0000000080000000        0x0
                [!provide]                        PROVIDE (__start_bss_RAM4 = .)
                [!provide]                        PROVIDE (__start_bss_BOARD_SDRAM = .)
 *(SORT_BY_ALIGNMENT(.bss.$RAM4))
 *(SORT_BY_ALIGNMENT(.bss.$BOARD_SDRAM))
 *(SORT_BY_ALIGNMENT(.bss.$RAM4.*))
 *(SORT_BY_ALIGNMENT(.bss.$BOARD_SDRAM.*))
                0x0000000080000000                . = ALIGN ((. != 0x0)?0x4:0x1)
                [!provide]                        PROVIDE (__end_bss_RAM4 = .)
                [!provide]                        PROVIDE (__end_bss_BOARD_SDRAM = .)

.bss_RAM5       0x0000000081e00000        0x0
                [!provide]                        PROVIDE (__start_bss_RAM5 = .)
                [!provide]                        PROVIDE (__start_bss_NCACHE_REGION = .)
 *(SORT_BY_ALIGNMENT(.bss.$RAM5))
 *(SORT_BY_ALIGNMENT(.bss.$NCACHE_REGION))
 *(SORT_BY_ALIGNMENT(.bss.$RAM5.*))
 *(SORT_BY_ALIGNMENT(.bss.$NCACHE_REGION.*))
                0x0000000081e00000                . = ALIGN ((. != 0x0)?0x4:0x1)
                [!provide]                        PROVIDE (__end_bss_RAM5 = .)
                [!provide]                        PROVIDE (__end_bss_NCACHE_REGION = .)

.bss            0x0000000020000008     0x2aa8
                0x0000000020000008                _bss = .
                [!provide]                        PROVIDE (__start_bss_RAM = .)
                [!provide]                        PROVIDE (__start_bss_SRAM_DTC = .)
 *(SORT_BY_ALIGNMENT(NonCacheable))
 *(SORT_BY_ALIGNMENT(.bss*))
 .bss.s_debugConsoleState
                0x0000000020000008       0x1c ./utilities/fsl_debug_console.o
 .bss.g_serialHandle
                0x0000000020000024        0x4 ./utilities/fsl_debug_console.o
                0x0000000020000024                g_serialHandle
 .bss.g_xtalFreq
                0x0000000020000028        0x4 ./drivers/fsl_clock.o
                0x0000000020000028                g_xtalFreq
 .bss.g_rtcXtalFreq
                0x000000002000002c        0x4 ./drivers/fsl_clock.o
                0x000000002000002c                g_rtcXtalFreq
 .bss.s_lpuartHandle
                0x0000000020000030       0x24 ./drivers/fsl_lpuart.o
 .bss.s_lpuartIsr
                0x0000000020000054        0x4 ./drivers/fsl_lpuart.o
 .bss.ucHeap    0x0000000020000058     0x2800 ./amazon-freertos/freertos_kernel/portable/MemMang/heap_4.o
 .bss.xStart    0x0000000020002858        0x8 ./amazon-freertos/freertos_kernel/portable/MemMang/heap_4.o
 .bss.pxEnd     0x0000000020002860        0x4 ./amazon-freertos/freertos_kernel/portable/MemMang/heap_4.o
 .bss.xFreeBytesRemaining
                0x0000000020002864        0x4 ./amazon-freertos/freertos_kernel/portable/MemMang/heap_4.o
 .bss.xMinimumEverFreeBytesRemaining
                0x0000000020002868        0x4 ./amazon-freertos/freertos_kernel/portable/MemMang/heap_4.o
 .bss.xBlockAllocatedBit
                0x000000002000286c        0x4 ./amazon-freertos/freertos_kernel/portable/MemMang/heap_4.o
 .bss.ulMaxPRIGROUPValue
                0x0000000020002870        0x4 ./amazon-freertos/freertos_kernel/portable/GCC/ARM_CM4F/port.o
 .bss.xQueueRegistry
                0x0000000020002874       0x40 ./amazon-freertos/freertos_kernel/queue.o
                0x0000000020002874                xQueueRegistry
 .bss.pxCurrentTCB
                0x00000000200028b4        0x4 ./amazon-freertos/freertos_kernel/tasks.o
                0x00000000200028b4                pxCurrentTCB
 .bss.pxReadyTasksLists
                0x00000000200028b8       0x64 ./amazon-freertos/freertos_kernel/tasks.o
 .bss.xDelayedTaskList1
                0x000000002000291c       0x14 ./amazon-freertos/freertos_kernel/tasks.o
 .bss.xDelayedTaskList2
                0x0000000020002930       0x14 ./amazon-freertos/freertos_kernel/tasks.o
 .bss.pxDelayedTaskList
                0x0000000020002944        0x4 ./amazon-freertos/freertos_kernel/tasks.o
 .bss.pxOverflowDelayedTaskList
                0x0000000020002948        0x4 ./amazon-freertos/freertos_kernel/tasks.o
 .bss.xPendingReadyList
                0x000000002000294c       0x14 ./amazon-freertos/freertos_kernel/tasks.o
 .bss.xTasksWaitingTermination
                0x0000000020002960       0x14 ./amazon-freertos/freertos_kernel/tasks.o
 .bss.uxDeletedTasksWaitingCleanUp
                0x0000000020002974        0x4 ./amazon-freertos/freertos_kernel/tasks.o
 .bss.xSuspendedTaskList
                0x0000000020002978       0x14 ./amazon-freertos/freertos_kernel/tasks.o
 .bss.uxCurrentNumberOfTasks
                0x000000002000298c        0x4 ./amazon-freertos/freertos_kernel/tasks.o
 .bss.xTickCount
                0x0000000020002990        0x4 ./amazon-freertos/freertos_kernel/tasks.o
 .bss.uxTopReadyPriority
                0x0000000020002994        0x4 ./amazon-freertos/freertos_kernel/tasks.o
 .bss.xSchedulerRunning
                0x0000000020002998        0x4 ./amazon-freertos/freertos_kernel/tasks.o
 .bss.uxPendedTicks
                0x000000002000299c        0x4 ./amazon-freertos/freertos_kernel/tasks.o
 .bss.xYieldPending
                0x00000000200029a0        0x4 ./amazon-freertos/freertos_kernel/tasks.o
 .bss.xNumOfOverflows
                0x00000000200029a4        0x4 ./amazon-freertos/freertos_kernel/tasks.o
 .bss.uxTaskNumber
                0x00000000200029a8        0x4 ./amazon-freertos/freertos_kernel/tasks.o
 .bss.xNextTaskUnblockTime
                0x00000000200029ac        0x4 ./amazon-freertos/freertos_kernel/tasks.o
 .bss.xIdleTaskHandle
                0x00000000200029b0        0x4 ./amazon-freertos/freertos_kernel/tasks.o
 .bss.uxSchedulerSuspended
                0x00000000200029b4        0x4 ./amazon-freertos/freertos_kernel/tasks.o
 .bss.xActiveTimerList1
                0x00000000200029b8       0x14 ./amazon-freertos/freertos_kernel/timers.o
 .bss.xActiveTimerList2
                0x00000000200029cc       0x14 ./amazon-freertos/freertos_kernel/timers.o
 .bss.pxCurrentTimerList
                0x00000000200029e0        0x4 ./amazon-freertos/freertos_kernel/timers.o
 .bss.pxOverflowTimerList
                0x00000000200029e4        0x4 ./amazon-freertos/freertos_kernel/timers.o
 .bss.xTimerQueue
                0x00000000200029e8        0x4 ./amazon-freertos/freertos_kernel/timers.o
 .bss.xTimerTaskHandle
                0x00000000200029ec        0x4 ./amazon-freertos/freertos_kernel/timers.o
 .bss.xLastTime.5942
                0x00000000200029f0        0x4 ./amazon-freertos/freertos_kernel/timers.o
 .bss.errno     0x00000000200029f4        0x4 /usr/local/mcuxpressoide-11.1.0_3209/ide/plugins/com.nxp.mcuxpresso.tools.linux_11.1.0.201909161352/tools/bin/../lib/gcc/arm-none-eabi/8.3.1/../../../../arm-none-eabi/lib/thumb/v7e-m+dp/hard/libcr_c.a(errno.o)
                0x00000000200029f4                errno
 .bss.__Ciob    0x00000000200029f8       0xb4 /usr/local/mcuxpressoide-11.1.0_3209/ide/plugins/com.nxp.mcuxpresso.tools.linux_11.1.0.201909161352/tools/bin/../lib/gcc/arm-none-eabi/8.3.1/../../../../arm-none-eabi/lib/thumb/v7e-m+dp/hard/libcr_nohost_nf.a(__ciob.o)
                0x00000000200029f8                __Ciob
 .bss.ucMaxSysCallPriority
                0x0000000020002aac        0x1 ./amazon-freertos/freertos_kernel/portable/GCC/ARM_CM4F/port.o
 *(SORT_BY_ALIGNMENT(COMMON))
                0x0000000020002ab0                . = ALIGN (0x4)
 *fill*         0x0000000020002aad        0x3 
                0x0000000020002ab0                _ebss = .
                [!provide]                        PROVIDE (__end_bss_RAM = .)
                [!provide]                        PROVIDE (__end_bss_SRAM_DTC = .)
                [!provide]                        PROVIDE (end = .)

.noinit_RAM2    0x0000000000000000        0x0
                [!provide]                        PROVIDE (__start_noinit_RAM2 = .)
                [!provide]                        PROVIDE (__start_noinit_SRAM_ITC = .)
 *(SORT_BY_ALIGNMENT(.noinit.$RAM2))
 *(SORT_BY_ALIGNMENT(.noinit.$SRAM_ITC))
 *(SORT_BY_ALIGNMENT(.noinit.$RAM2.*))
 *(SORT_BY_ALIGNMENT(.noinit.$SRAM_ITC.*))
                0x0000000000000000                . = ALIGN (0x4)
                [!provide]                        PROVIDE (__end_noinit_RAM2 = .)
                [!provide]                        PROVIDE (__end_noinit_SRAM_ITC = .)

.noinit_RAM3    0x0000000020200000        0x0
                [!provide]                        PROVIDE (__start_noinit_RAM3 = .)
                [!provide]                        PROVIDE (__start_noinit_SRAM_OC = .)
 *(SORT_BY_ALIGNMENT(.noinit.$RAM3))
 *(SORT_BY_ALIGNMENT(.noinit.$SRAM_OC))
 *(SORT_BY_ALIGNMENT(.noinit.$RAM3.*))
 *(SORT_BY_ALIGNMENT(.noinit.$SRAM_OC.*))
                0x0000000020200000                . = ALIGN (0x4)
                [!provide]                        PROVIDE (__end_noinit_RAM3 = .)
                [!provide]                        PROVIDE (__end_noinit_SRAM_OC = .)

.noinit_RAM4    0x0000000080000000        0x0
                [!provide]                        PROVIDE (__start_noinit_RAM4 = .)
                [!provide]                        PROVIDE (__start_noinit_BOARD_SDRAM = .)
 *(SORT_BY_ALIGNMENT(.noinit.$RAM4))
 *(SORT_BY_ALIGNMENT(.noinit.$BOARD_SDRAM))
 *(SORT_BY_ALIGNMENT(.noinit.$RAM4.*))
 *(SORT_BY_ALIGNMENT(.noinit.$BOARD_SDRAM.*))
                0x0000000080000000                . = ALIGN (0x4)
                [!provide]                        PROVIDE (__end_noinit_RAM4 = .)
                [!provide]                        PROVIDE (__end_noinit_BOARD_SDRAM = .)

.noinit_RAM5    0x0000000081e00000        0x0
                [!provide]                        PROVIDE (__start_noinit_RAM5 = .)
                [!provide]                        PROVIDE (__start_noinit_NCACHE_REGION = .)
 *(SORT_BY_ALIGNMENT(.noinit.$RAM5))
 *(SORT_BY_ALIGNMENT(.noinit.$NCACHE_REGION))
 *(SORT_BY_ALIGNMENT(.noinit.$RAM5.*))
 *(SORT_BY_ALIGNMENT(.noinit.$NCACHE_REGION.*))
                0x0000000081e00000                . = ALIGN (0x4)
                [!provide]                        PROVIDE (__end_noinit_RAM5 = .)
                [!provide]                        PROVIDE (__end_noinit_NCACHE_REGION = .)

.noinit         0x0000000020002ab0        0x0
                0x0000000020002ab0                _noinit = .
                [!provide]                        PROVIDE (__start_noinit_RAM = .)
                [!provide]                        PROVIDE (__start_noinit_SRAM_DTC = .)
 *(SORT_BY_ALIGNMENT(.noinit*))
                0x0000000020002ab0                . = ALIGN (0x4)
                0x0000000020002ab0                _end_noinit = .
                [!provide]                        PROVIDE (__end_noinit_RAM = .)
                [!provide]                        PROVIDE (__end_noinit_SRAM_DTC = .)
                0x0000000000001000                _HeapSize = 0x1000

.heap           0x0000000020002ab0     0x1000
                0x0000000020002ab0                _pvHeapStart = .
                0x0000000020003ab0                . = (. + _HeapSize)
 *fill*         0x0000000020002ab0     0x1000 
                0x0000000020003ab0                . = ALIGN (0x4)
                0x0000000020003ab0                _pvHeapLimit = .
                0x0000000000001000                _StackSize = 0x1000

.heap2stackfill
                0x0000000020003ab0     0x1000
                0x0000000020004ab0                . = (. + _StackSize)
 *fill*         0x0000000020003ab0     0x1000 

.stack          0x000000002001f000        0x0
                0x000000002001f000                _vStackBase = .
                0x000000002001f000                . = ALIGN (0x4)
                0x0000000020020000                _vStackTop = (. + _StackSize)
                0x0000000060002000                _image_start = LOADADDR (.text)
                0x0000000060008e54                _image_end = (LOADADDR (.data) + SIZEOF (.data))
                0x0000000000006e54                _image_size = (_image_end - _image_start)
OUTPUT(IMXRT1062_freertos_hello_dev_repo.axf elf32-littlearm)

.debug_info     0x0000000000000000    0x13528
 .debug_info    0x0000000000000000      0x7e9 ./xip/evkmimxrt1060_flexspi_nor_config.o
 .debug_info    0x00000000000007e9      0x620 ./xip/fsl_flexspi_nor_boot.o
 .debug_info    0x0000000000000e09      0x156 ./utilities/fsl_assert.o
 .debug_info    0x0000000000000f5f      0xaa4 ./utilities/fsl_debug_console.o
 .debug_info    0x0000000000001a03      0x55e ./utilities/fsl_str.o
 .debug_info    0x0000000000001f61      0xde5 ./startup/startup_mimxrt1062.o
 .debug_info    0x0000000000002d46      0x7bd ./source/freertos_hello.o
 .debug_info    0x0000000000003503       0x3c ./source/semihost_hardfault.o
 .debug_info    0x000000000000353f     0x1e28 ./drivers/fsl_clock.o
 .debug_info    0x0000000000005367      0x2c5 ./drivers/fsl_common.o
 .debug_info    0x000000000000562c      0xce5 ./drivers/fsl_gpio.o
 .debug_info    0x0000000000006311     0x21fb ./drivers/fsl_lpuart.o
 .debug_info    0x000000000000850c      0xd52 ./device/system_MIMXRT1062.o
 .debug_info    0x000000000000925e      0xa4b ./component/uart/lpuart_adapter.o
 .debug_info    0x0000000000009ca9      0x8f8 ./component/serial_manager/serial_manager.o
 .debug_info    0x000000000000a5a1      0x582 ./component/serial_manager/serial_port_uart.o
 .debug_info    0x000000000000ab23     0x127d ./board/board.o
 .debug_info    0x000000000000bda0     0x197e ./board/clock_config.o
 .debug_info    0x000000000000d71e      0x847 ./board/pin_mux.o
 .debug_info    0x000000000000df65      0x424 ./amazon-freertos/freertos_kernel/portable/MemMang/heap_4.o
 .debug_info    0x000000000000e389      0x589 ./amazon-freertos/freertos_kernel/portable/GCC/ARM_CM4F/port.o
 .debug_info    0x000000000000e912      0x302 ./amazon-freertos/freertos_kernel/list.o
 .debug_info    0x000000000000ec14     0x1863 ./amazon-freertos/freertos_kernel/queue.o
 .debug_info    0x0000000000010477     0x21b7 ./amazon-freertos/freertos_kernel/tasks.o
 .debug_info    0x000000000001262e      0xefa ./amazon-freertos/freertos_kernel/timers.o

.debug_abbrev   0x0000000000000000     0x3166
 .debug_abbrev  0x0000000000000000      0x14c ./xip/evkmimxrt1060_flexspi_nor_config.o
 .debug_abbrev  0x000000000000014c      0x13f ./xip/fsl_flexspi_nor_boot.o
 .debug_abbrev  0x000000000000028b       0xbe ./utilities/fsl_assert.o
 .debug_abbrev  0x0000000000000349      0x20b ./utilities/fsl_debug_console.o
 .debug_abbrev  0x0000000000000554      0x1b3 ./utilities/fsl_str.o
 .debug_abbrev  0x0000000000000707      0x147 ./startup/startup_mimxrt1062.o
 .debug_abbrev  0x000000000000084e      0x1f6 ./source/freertos_hello.o
 .debug_abbrev  0x0000000000000a44       0x31 ./source/semihost_hardfault.o
 .debug_abbrev  0x0000000000000a75      0x38b ./drivers/fsl_clock.o
 .debug_abbrev  0x0000000000000e00      0x153 ./drivers/fsl_common.o
 .debug_abbrev  0x0000000000000f53      0x255 ./drivers/fsl_gpio.o
 .debug_abbrev  0x00000000000011a8      0x364 ./drivers/fsl_lpuart.o
 .debug_abbrev  0x000000000000150c      0x1c7 ./device/system_MIMXRT1062.o
 .debug_abbrev  0x00000000000016d3      0x1e1 ./component/uart/lpuart_adapter.o
 .debug_abbrev  0x00000000000018b4      0x240 ./component/serial_manager/serial_manager.o
 .debug_abbrev  0x0000000000001af4      0x160 ./component/serial_manager/serial_port_uart.o
 .debug_abbrev  0x0000000000001c54      0x322 ./board/board.o
 .debug_abbrev  0x0000000000001f76      0x234 ./board/clock_config.o
 .debug_abbrev  0x00000000000021aa      0x188 ./board/pin_mux.o
 .debug_abbrev  0x0000000000002332      0x212 ./amazon-freertos/freertos_kernel/portable/MemMang/heap_4.o
 .debug_abbrev  0x0000000000002544      0x262 ./amazon-freertos/freertos_kernel/portable/GCC/ARM_CM4F/port.o
 .debug_abbrev  0x00000000000027a6      0x12d ./amazon-freertos/freertos_kernel/list.o
 .debug_abbrev  0x00000000000028d3      0x2d9 ./amazon-freertos/freertos_kernel/queue.o
 .debug_abbrev  0x0000000000002bac      0x32b ./amazon-freertos/freertos_kernel/tasks.o
 .debug_abbrev  0x0000000000002ed7      0x28f ./amazon-freertos/freertos_kernel/timers.o

.debug_aranges  0x0000000000000000     0x11b8
 .debug_aranges
                0x0000000000000000       0x18 ./xip/evkmimxrt1060_flexspi_nor_config.o
 .debug_aranges
                0x0000000000000018       0x18 ./xip/fsl_flexspi_nor_boot.o
 .debug_aranges
                0x0000000000000030       0x20 ./utilities/fsl_assert.o
 .debug_aranges
                0x0000000000000050       0x88 ./utilities/fsl_debug_console.o
 .debug_aranges
                0x00000000000000d8       0x38 ./utilities/fsl_str.o
 .debug_aranges
                0x0000000000000110      0x550 ./startup/startup_mimxrt1062.o
 .debug_aranges
                0x0000000000000660       0x38 ./source/freertos_hello.o
 .debug_aranges
                0x0000000000000698       0x20 ./source/semihost_hardfault.o
 .debug_aranges
                0x00000000000006b8      0x170 ./drivers/fsl_clock.o
 .debug_aranges
                0x0000000000000828       0x38 ./drivers/fsl_common.o
 .debug_aranges
                0x0000000000000860       0x50 ./drivers/fsl_gpio.o
 .debug_aranges
                0x00000000000008b0      0x160 ./drivers/fsl_lpuart.o
 .debug_aranges
                0x0000000000000a10       0x30 ./device/system_MIMXRT1062.o
 .debug_aranges
                0x0000000000000a40       0x50 ./component/uart/lpuart_adapter.o
 .debug_aranges
                0x0000000000000a90       0x98 ./component/serial_manager/serial_manager.o
 .debug_aranges
                0x0000000000000b28       0x48 ./component/serial_manager/serial_port_uart.o
 .debug_aranges
                0x0000000000000b70       0x70 ./board/board.o
 .debug_aranges
                0x0000000000000be0       0x78 ./board/clock_config.o
 .debug_aranges
                0x0000000000000c58       0x48 ./board/pin_mux.o
 .debug_aranges
                0x0000000000000ca0       0x50 ./amazon-freertos/freertos_kernel/portable/MemMang/heap_4.o
 .debug_aranges
                0x0000000000000cf0       0x80 ./amazon-freertos/freertos_kernel/portable/GCC/ARM_CM4F/port.o
 .debug_aranges
                0x0000000000000d70       0x40 ./amazon-freertos/freertos_kernel/list.o
 .debug_aranges
                0x0000000000000db0      0x130 ./amazon-freertos/freertos_kernel/queue.o
 .debug_aranges
                0x0000000000000ee0      0x1f8 ./amazon-freertos/freertos_kernel/tasks.o
 .debug_aranges
                0x00000000000010d8       0xe0 ./amazon-freertos/freertos_kernel/timers.o

.debug_macro    0x0000000000000000    0x2eb4a
 .debug_macro   0x0000000000000000      0x118 ./xip/evkmimxrt1060_flexspi_nor_config.o
 .debug_macro   0x0000000000000118      0xaf6 ./xip/evkmimxrt1060_flexspi_nor_config.o
 .debug_macro   0x0000000000000c0e       0x10 ./xip/evkmimxrt1060_flexspi_nor_config.o
 .debug_macro   0x0000000000000c1e      0x12e ./xip/evkmimxrt1060_flexspi_nor_config.o
 .debug_macro   0x0000000000000d4c      0x5b3 ./xip/evkmimxrt1060_flexspi_nor_config.o
 .debug_macro   0x00000000000012ff       0x22 ./xip/evkmimxrt1060_flexspi_nor_config.o
 .debug_macro   0x0000000000001321       0x16 ./xip/evkmimxrt1060_flexspi_nor_config.o
 .debug_macro   0x0000000000001337       0x22 ./xip/evkmimxrt1060_flexspi_nor_config.o
 .debug_macro   0x0000000000001359       0x10 ./xip/evkmimxrt1060_flexspi_nor_config.o
 .debug_macro   0x0000000000001369       0x4d ./xip/evkmimxrt1060_flexspi_nor_config.o
 .debug_macro   0x00000000000013b6       0x1c ./xip/evkmimxrt1060_flexspi_nor_config.o
 .debug_macro   0x00000000000013d2       0x22 ./xip/evkmimxrt1060_flexspi_nor_config.o
 .debug_macro   0x00000000000013f4       0xd8 ./xip/evkmimxrt1060_flexspi_nor_config.o
 .debug_macro   0x00000000000014cc     0x1305 ./xip/evkmimxrt1060_flexspi_nor_config.o
 .debug_macro   0x00000000000027d1      0x11f ./xip/evkmimxrt1060_flexspi_nor_config.o
 .debug_macro   0x00000000000028f0       0x20 ./xip/evkmimxrt1060_flexspi_nor_config.o
 .debug_macro   0x0000000000002910       0x22 ./xip/evkmimxrt1060_flexspi_nor_config.o
 .debug_macro   0x0000000000002932    0x26906 ./xip/evkmimxrt1060_flexspi_nor_config.o
 .debug_macro   0x0000000000029238      0x6c5 ./xip/evkmimxrt1060_flexspi_nor_config.o
 .debug_macro   0x00000000000298fd       0xd7 ./xip/evkmimxrt1060_flexspi_nor_config.o
 .debug_macro   0x00000000000299d4      0x22b ./xip/evkmimxrt1060_flexspi_nor_config.o
 .debug_macro   0x0000000000029bff      0x1a4 ./xip/evkmimxrt1060_flexspi_nor_config.o
 .debug_macro   0x0000000000029da3      0x143 ./xip/fsl_flexspi_nor_boot.o
 .debug_macro   0x0000000000029ee6      0x136 ./xip/fsl_flexspi_nor_boot.o
 .debug_macro   0x000000000002a01c       0x10 ./xip/fsl_flexspi_nor_boot.o
 .debug_macro   0x000000000002a02c      0x2e0 ./xip/fsl_flexspi_nor_boot.o
 .debug_macro   0x000000000002a30c       0x7c ./xip/fsl_flexspi_nor_boot.o
 .debug_macro   0x000000000002a388      0x199 ./utilities/fsl_assert.o
 .debug_macro   0x000000000002a521       0x1c ./utilities/fsl_assert.o
 .debug_macro   0x000000000002a53d       0x2e ./utilities/fsl_assert.o
 .debug_macro   0x000000000002a56b      0x198 ./utilities/fsl_assert.o
 .debug_macro   0x000000000002a703      0x15a ./utilities/fsl_assert.o
 .debug_macro   0x000000000002a85d       0xe4 ./utilities/fsl_assert.o
 .debug_macro   0x000000000002a941       0x1c ./utilities/fsl_assert.o
 .debug_macro   0x000000000002a95d       0x26 ./utilities/fsl_assert.o
 .debug_macro   0x000000000002a983      0x399 ./utilities/fsl_assert.o
 .debug_macro   0x000000000002ad1c       0x22 ./utilities/fsl_assert.o
 .debug_macro   0x000000000002ad3e       0x32 ./utilities/fsl_assert.o
 .debug_macro   0x000000000002ad70       0x2e ./utilities/fsl_assert.o
 .debug_macro   0x000000000002ad9e      0x233 ./utilities/fsl_debug_console.o
 .debug_macro   0x000000000002afd1       0x16 ./utilities/fsl_debug_console.o
 .debug_macro   0x000000000002afe7       0x10 ./utilities/fsl_debug_console.o
 .debug_macro   0x000000000002aff7       0x28 ./utilities/fsl_debug_console.o
 .debug_macro   0x000000000002b01f      0x198 ./utilities/fsl_debug_console.o
 .debug_macro   0x000000000002b1b7       0xb5 ./utilities/fsl_debug_console.o
 .debug_macro   0x000000000002b26c       0xaa ./utilities/fsl_debug_console.o
 .debug_macro   0x000000000002b316       0x80 ./utilities/fsl_debug_console.o
 .debug_macro   0x000000000002b396       0x7e ./utilities/fsl_debug_console.o
 .debug_macro   0x000000000002b414       0x56 ./utilities/fsl_debug_console.o
 .debug_macro   0x000000000002b46a       0x28 ./utilities/fsl_debug_console.o
 .debug_macro   0x000000000002b492       0x34 ./utilities/fsl_debug_console.o
 .debug_macro   0x000000000002b4c6      0x122 ./utilities/fsl_str.o
 .debug_macro   0x000000000002b5e8       0xc4 ./utilities/fsl_str.o
 .debug_macro   0x000000000002b6ac       0x1c ./utilities/fsl_str.o
 .debug_macro   0x000000000002b6c8       0x29 ./startup/startup_mimxrt1062.o
 .debug_macro   0x000000000002b6f1      0x211 ./source/freertos_hello.o
 .debug_macro   0x000000000002b902       0x16 ./source/freertos_hello.o
 .debug_macro   0x000000000002b918       0x97 ./source/freertos_hello.o
 .debug_macro   0x000000000002b9af       0x1c ./source/freertos_hello.o
 .debug_macro   0x000000000002b9cb      0x13c ./source/freertos_hello.o
 .debug_macro   0x000000000002bb07       0x11 ./source/semihost_hardfault.o
 .debug_macro   0x000000000002bb18      0x103 ./drivers/fsl_clock.o
 .debug_macro   0x000000000002bc1b      0x109 ./drivers/fsl_common.o
 .debug_macro   0x000000000002bd24      0x113 ./drivers/fsl_gpio.o
 .debug_macro   0x000000000002be37      0x113 ./drivers/fsl_lpuart.o
 .debug_macro   0x000000000002bf4a       0xa7 ./device/system_MIMXRT1062.o
 .debug_macro   0x000000000002bff1      0x175 ./component/uart/lpuart_adapter.o
 .debug_macro   0x000000000002c166       0x10 ./component/uart/lpuart_adapter.o
 .debug_macro   0x000000000002c176       0x22 ./component/uart/lpuart_adapter.o
 .debug_macro   0x000000000002c198      0x1ac ./component/serial_manager/serial_manager.o
 .debug_macro   0x000000000002c344      0x194 ./component/serial_manager/serial_port_uart.o
 .debug_macro   0x000000000002c4d8      0x1c7 ./board/board.o
 .debug_macro   0x000000000002c69f     0x1b8c ./board/board.o
 .debug_macro   0x000000000002e22b      0x115 ./board/clock_config.o
 .debug_macro   0x000000000002e340      0x110 ./board/pin_mux.o
 .debug_macro   0x000000000002e450       0xdf ./amazon-freertos/freertos_kernel/portable/MemMang/heap_4.o
 .debug_macro   0x000000000002e52f      0x179 ./amazon-freertos/freertos_kernel/portable/GCC/ARM_CM4F/port.o
 .debug_macro   0x000000000002e6a8       0xb8 ./amazon-freertos/freertos_kernel/list.o
 .debug_macro   0x000000000002e760      0x125 ./amazon-freertos/freertos_kernel/queue.o
 .debug_macro   0x000000000002e885      0x192 ./amazon-freertos/freertos_kernel/tasks.o
 .debug_macro   0x000000000002ea17       0x10 ./amazon-freertos/freertos_kernel/tasks.o
 .debug_macro   0x000000000002ea27       0x16 ./amazon-freertos/freertos_kernel/tasks.o
 .debug_macro   0x000000000002ea3d      0x10d ./amazon-freertos/freertos_kernel/timers.o

.debug_line     0x0000000000000000     0xe5d1
 .debug_line    0x0000000000000000      0x3d1 ./xip/evkmimxrt1060_flexspi_nor_config.o
 .debug_line    0x00000000000003d1      0x447 ./xip/fsl_flexspi_nor_boot.o
 .debug_line    0x0000000000000818      0x6e6 ./utilities/fsl_assert.o
 .debug_line    0x0000000000000efe      0xaca ./utilities/fsl_debug_console.o
 .debug_line    0x00000000000019c8      0xa6f ./utilities/fsl_str.o
 .debug_line    0x0000000000002437      0xfcd ./startup/startup_mimxrt1062.o
 .debug_line    0x0000000000003404      0x8ab ./source/freertos_hello.o
 .debug_line    0x0000000000003caf       0x5a ./source/semihost_hardfault.o
 .debug_line    0x0000000000003d09      0xf1f ./drivers/fsl_clock.o
 .debug_line    0x0000000000004c28      0x415 ./drivers/fsl_common.o
 .debug_line    0x000000000000503d      0x52e ./drivers/fsl_gpio.o
 .debug_line    0x000000000000556b     0x1203 ./drivers/fsl_lpuart.o
 .debug_line    0x000000000000676e      0x562 ./device/system_MIMXRT1062.o
 .debug_line    0x0000000000006cd0      0x74b ./component/uart/lpuart_adapter.o
 .debug_line    0x000000000000741b      0xa2a ./component/serial_manager/serial_manager.o
 .debug_line    0x0000000000007e45      0x7d8 ./component/serial_manager/serial_port_uart.o
 .debug_line    0x000000000000861d      0xb59 ./board/board.o
 .debug_line    0x0000000000009176      0x79c ./board/clock_config.o
 .debug_line    0x0000000000009912      0x49b ./board/pin_mux.o
 .debug_line    0x0000000000009dad      0x675 ./amazon-freertos/freertos_kernel/portable/MemMang/heap_4.o
 .debug_line    0x000000000000a422      0x6d1 ./amazon-freertos/freertos_kernel/portable/GCC/ARM_CM4F/port.o
 .debug_line    0x000000000000aaf3      0x4b2 ./amazon-freertos/freertos_kernel/list.o
 .debug_line    0x000000000000afa5     0x1283 ./amazon-freertos/freertos_kernel/queue.o
 .debug_line    0x000000000000c228     0x1951 ./amazon-freertos/freertos_kernel/tasks.o
 .debug_line    0x000000000000db79      0xa58 ./amazon-freertos/freertos_kernel/timers.o

.debug_str      0x0000000000000000   0x1743e3
 .debug_str     0x0000000000000000   0x1506be ./xip/evkmimxrt1060_flexspi_nor_config.o
                                     0x150767 (size before relaxing)
 .debug_str     0x00000000001506be     0x24a1 ./xip/fsl_flexspi_nor_boot.o
                                     0x151f0e (size before relaxing)
 .debug_str     0x0000000000152b5f     0x3259 ./utilities/fsl_assert.o
                                     0x1524db (size before relaxing)
 .debug_str     0x0000000000155db8     0x26e5 ./utilities/fsl_debug_console.o
                                     0x1553d2 (size before relaxing)
 .debug_str     0x000000000015849d      0x6c8 ./utilities/fsl_str.o
                                     0x14fbae (size before relaxing)
 .debug_str     0x0000000000158b65      0xdb0 ./startup/startup_mimxrt1062.o
                                       0x3d98 (size before relaxing)
 .debug_str     0x0000000000159915      0x9f1 ./source/freertos_hello.o
                                     0x156d3a (size before relaxing)
 .debug_str     0x000000000015a306       0x1f ./source/semihost_hardfault.o
                                       0x2f58 (size before relaxing)
 .debug_str     0x000000000015a325      0xf80 ./drivers/fsl_clock.o
                                     0x150ba8 (size before relaxing)
 .debug_str     0x000000000015b2a5      0x13d ./drivers/fsl_common.o
                                     0x14f3c3 (size before relaxing)
 .debug_str     0x000000000015b3e2      0x7e1 ./drivers/fsl_gpio.o
                                     0x1504ce (size before relaxing)
 .debug_str     0x000000000015bbc3     0x1a02 ./drivers/fsl_lpuart.o
                                     0x151dee (size before relaxing)
 .debug_str     0x000000000015d5c5      0x204 ./device/system_MIMXRT1062.o
                                     0x14ddee (size before relaxing)
 .debug_str     0x000000000015d7c9      0x2f9 ./component/uart/lpuart_adapter.o
                                     0x153135 (size before relaxing)
 .debug_str     0x000000000015dac2      0x3f5 ./component/serial_manager/serial_manager.o
                                     0x1529c8 (size before relaxing)
 .debug_str     0x000000000015deb7       0xed ./component/serial_manager/serial_port_uart.o
                                     0x152991 (size before relaxing)
 .debug_str     0x000000000015dfa4    0x13004 ./board/board.o
                                     0x167a3a (size before relaxing)
 .debug_str     0x0000000000170fa8      0x449 ./board/clock_config.o
                                     0x1643ad (size before relaxing)
 .debug_str     0x00000000001713f1       0x53 ./board/pin_mux.o
                                     0x162579 (size before relaxing)
 .debug_str     0x0000000000171444      0x2c5 ./amazon-freertos/freertos_kernel/portable/MemMang/heap_4.o
                                       0x856c (size before relaxing)
 .debug_str     0x0000000000171709      0x859 ./amazon-freertos/freertos_kernel/portable/GCC/ARM_CM4F/port.o
                                       0x8afe (size before relaxing)
 .debug_str     0x0000000000171f62      0x13c ./amazon-freertos/freertos_kernel/list.o
                                       0x7d7e (size before relaxing)
 .debug_str     0x000000000017209e      0x8a7 ./amazon-freertos/freertos_kernel/queue.o
                                       0x9412 (size before relaxing)
 .debug_str     0x0000000000172945     0x14a4 ./amazon-freertos/freertos_kernel/tasks.o
                                       0xa1c9 (size before relaxing)
 .debug_str     0x0000000000173de9      0x5fa ./amazon-freertos/freertos_kernel/timers.o
                                       0x9936 (size before relaxing)

.comment        0x0000000000000000       0x76
 .comment       0x0000000000000000       0x76 ./xip/evkmimxrt1060_flexspi_nor_config.o
                                         0x77 (size before relaxing)
 .comment       0x0000000000000076       0x77 ./xip/fsl_flexspi_nor_boot.o
 .comment       0x0000000000000076       0x77 ./utilities/fsl_assert.o
 .comment       0x0000000000000076       0x77 ./utilities/fsl_debug_console.o
 .comment       0x0000000000000076       0x77 ./utilities/fsl_str.o
 .comment       0x0000000000000076       0x77 ./startup/startup_mimxrt1062.o
 .comment       0x0000000000000076       0x77 ./source/freertos_hello.o
 .comment       0x0000000000000076       0x77 ./source/semihost_hardfault.o
 .comment       0x0000000000000076       0x77 ./drivers/fsl_clock.o
 .comment       0x0000000000000076       0x77 ./drivers/fsl_common.o
 .comment       0x0000000000000076       0x77 ./drivers/fsl_gpio.o
 .comment       0x0000000000000076       0x77 ./drivers/fsl_lpuart.o
 .comment       0x0000000000000076       0x77 ./device/system_MIMXRT1062.o
 .comment       0x0000000000000076       0x77 ./component/uart/lpuart_adapter.o
 .comment       0x0000000000000076       0x77 ./component/serial_manager/serial_manager.o
 .comment       0x0000000000000076       0x77 ./component/serial_manager/serial_port_uart.o
 .comment       0x0000000000000076       0x77 ./board/board.o
 .comment       0x0000000000000076       0x77 ./board/clock_config.o
 .comment       0x0000000000000076       0x77 ./board/pin_mux.o
 .comment       0x0000000000000076       0x77 ./amazon-freertos/freertos_kernel/portable/MemMang/heap_4.o
 .comment       0x0000000000000076       0x77 ./amazon-freertos/freertos_kernel/portable/GCC/ARM_CM4F/port.o
 .comment       0x0000000000000076       0x77 ./amazon-freertos/freertos_kernel/list.o
 .comment       0x0000000000000076       0x77 ./amazon-freertos/freertos_kernel/queue.o
 .comment       0x0000000000000076       0x77 ./amazon-freertos/freertos_kernel/tasks.o
 .comment       0x0000000000000076       0x77 ./amazon-freertos/freertos_kernel/timers.o
 .comment       0x0000000000000076       0x77 /usr/local/mcuxpressoide-11.1.0_3209/ide/plugins/com.nxp.mcuxpresso.tools.linux_11.1.0.201909161352/tools/bin/../lib/gcc/arm-none-eabi/8.3.1/../../../../arm-none-eabi/lib/thumb/v7e-m+dp/hard/libcr_nohost_nf.a(_cr__main.o)
 .comment       0x0000000000000076       0x77 /usr/local/mcuxpressoide-11.1.0_3209/ide/plugins/com.nxp.mcuxpresso.tools.linux_11.1.0.201909161352/tools/bin/../lib/gcc/arm-none-eabi/8.3.1/../../../../arm-none-eabi/lib/thumb/v7e-m+dp/hard/libcr_c.a(memcpy.o)
 .comment       0x0000000000000076       0x77 /usr/local/mcuxpressoide-11.1.0_3209/ide/plugins/com.nxp.mcuxpresso.tools.linux_11.1.0.201909161352/tools/bin/../lib/gcc/arm-none-eabi/8.3.1/../../../../arm-none-eabi/lib/thumb/v7e-m+dp/hard/libcr_c.a(memset.o)
 .comment       0x0000000000000076       0x77 /usr/local/mcuxpressoide-11.1.0_3209/ide/plugins/com.nxp.mcuxpresso.tools.linux_11.1.0.201909161352/tools/bin/../lib/gcc/arm-none-eabi/8.3.1/../../../../arm-none-eabi/lib/thumb/v7e-m+dp/hard/libcr_c.a(alloc.o)
 .comment       0x0000000000000076       0x77 /usr/local/mcuxpressoide-11.1.0_3209/ide/plugins/com.nxp.mcuxpresso.tools.linux_11.1.0.201909161352/tools/bin/../lib/gcc/arm-none-eabi/8.3.1/../../../../arm-none-eabi/lib/thumb/v7e-m+dp/hard/libcr_c.a(initio.o)
 .comment       0x0000000000000076       0x77 /usr/local/mcuxpressoide-11.1.0_3209/ide/plugins/com.nxp.mcuxpresso.tools.linux_11.1.0.201909161352/tools/bin/../lib/gcc/arm-none-eabi/8.3.1/../../../../arm-none-eabi/lib/thumb/v7e-m+dp/hard/libcr_c.a(setvbuf.o)
 .comment       0x0000000000000076       0x77 /usr/local/mcuxpressoide-11.1.0_3209/ide/plugins/com.nxp.mcuxpresso.tools.linux_11.1.0.201909161352/tools/bin/../lib/gcc/arm-none-eabi/8.3.1/../../../../arm-none-eabi/lib/thumb/v7e-m+dp/hard/libcr_c.a(strlen.o)
 .comment       0x0000000000000076       0x77 /usr/local/mcuxpressoide-11.1.0_3209/ide/plugins/com.nxp.mcuxpresso.tools.linux_11.1.0.201909161352/tools/bin/../lib/gcc/arm-none-eabi/8.3.1/../../../../arm-none-eabi/lib/thumb/v7e-m+dp/hard/libcr_c.a(_fdopen.o)
 .comment       0x0000000000000076       0x77 /usr/local/mcuxpressoide-11.1.0_3209/ide/plugins/com.nxp.mcuxpresso.tools.linux_11.1.0.201909161352/tools/bin/../lib/gcc/arm-none-eabi/8.3.1/../../../../arm-none-eabi/lib/thumb/v7e-m+dp/hard/libcr_c.a(errno.o)
 .comment       0x0000000000000076       0x77 /usr/local/mcuxpressoide-11.1.0_3209/ide/plugins/com.nxp.mcuxpresso.tools.linux_11.1.0.201909161352/tools/bin/../lib/gcc/arm-none-eabi/8.3.1/../../../../arm-none-eabi/lib/thumb/v7e-m+dp/hard/libcr_c.a(fclose.o)
 .comment       0x0000000000000076       0x77 /usr/local/mcuxpressoide-11.1.0_3209/ide/plugins/com.nxp.mcuxpresso.tools.linux_11.1.0.201909161352/tools/bin/../lib/gcc/arm-none-eabi/8.3.1/../../../../arm-none-eabi/lib/thumb/v7e-m+dp/hard/libcr_c.a(fflush.o)
 .comment       0x0000000000000076       0x77 /usr/local/mcuxpressoide-11.1.0_3209/ide/plugins/com.nxp.mcuxpresso.tools.linux_11.1.0.201909161352/tools/bin/../lib/gcc/arm-none-eabi/8.3.1/../../../../arm-none-eabi/lib/thumb/v7e-m+dp/hard/libcr_c.a(fseek.o)
 .comment       0x0000000000000076       0x77 /usr/local/mcuxpressoide-11.1.0_3209/ide/plugins/com.nxp.mcuxpresso.tools.linux_11.1.0.201909161352/tools/bin/../lib/gcc/arm-none-eabi/8.3.1/../../../../arm-none-eabi/lib/thumb/v7e-m+dp/hard/libcr_c.a(ftell.o)
 .comment       0x0000000000000076       0x77 /usr/local/mcuxpressoide-11.1.0_3209/ide/plugins/com.nxp.mcuxpresso.tools.linux_11.1.0.201909161352/tools/bin/../lib/gcc/arm-none-eabi/8.3.1/../../../../arm-none-eabi/lib/thumb/v7e-m+dp/hard/libcr_c.a(remove.o)
 .comment       0x0000000000000076       0x77 /usr/local/mcuxpressoide-11.1.0_3209/ide/plugins/com.nxp.mcuxpresso.tools.linux_11.1.0.201909161352/tools/bin/../lib/gcc/arm-none-eabi/8.3.1/../../../../arm-none-eabi/lib/thumb/v7e-m+dp/hard/libcr_c.a(_do_fflush.o)
 .comment       0x0000000000000076       0x77 /usr/local/mcuxpressoide-11.1.0_3209/ide/plugins/com.nxp.mcuxpresso.tools.linux_11.1.0.201909161352/tools/bin/../lib/gcc/arm-none-eabi/8.3.1/../../../../arm-none-eabi/lib/thumb/v7e-m+dp/hard/libcr_c.a(_fflush.o)
 .comment       0x0000000000000076       0x77 /usr/local/mcuxpressoide-11.1.0_3209/ide/plugins/com.nxp.mcuxpresso.tools.linux_11.1.0.201909161352/tools/bin/../lib/gcc/arm-none-eabi/8.3.1/../../../../arm-none-eabi/lib/thumb/v7e-m+dp/hard/libcr_c.a(_writebuf.o)
 .comment       0x0000000000000076       0x77 /usr/local/mcuxpressoide-11.1.0_3209/ide/plugins/com.nxp.mcuxpresso.tools.linux_11.1.0.201909161352/tools/bin/../lib/gcc/arm-none-eabi/8.3.1/../../../../arm-none-eabi/lib/thumb/v7e-m+dp/hard/libcr_c.a(_deferredlazyseek.o)
 .comment       0x0000000000000076       0x77 /usr/local/mcuxpressoide-11.1.0_3209/ide/plugins/com.nxp.mcuxpresso.tools.linux_11.1.0.201909161352/tools/bin/../lib/gcc/arm-none-eabi/8.3.1/../../../../arm-none-eabi/lib/thumb/v7e-m+dp/hard/libcr_nohost_nf.a(__ciob.o)
 .comment       0x0000000000000076       0x77 /usr/local/mcuxpressoide-11.1.0_3209/ide/plugins/com.nxp.mcuxpresso.tools.linux_11.1.0.201909161352/tools/bin/../lib/gcc/arm-none-eabi/8.3.1/../../../../arm-none-eabi/lib/thumb/v7e-m+dp/hard/libcr_nohost_nf.a(__sys_close.o)
 .comment       0x0000000000000076       0x77 /usr/local/mcuxpressoide-11.1.0_3209/ide/plugins/com.nxp.mcuxpresso.tools.linux_11.1.0.201909161352/tools/bin/../lib/gcc/arm-none-eabi/8.3.1/../../../../arm-none-eabi/lib/thumb/v7e-m+dp/hard/libcr_nohost_nf.a(__sys_flen.o)
 .comment       0x0000000000000076       0x77 /usr/local/mcuxpressoide-11.1.0_3209/ide/plugins/com.nxp.mcuxpresso.tools.linux_11.1.0.201909161352/tools/bin/../lib/gcc/arm-none-eabi/8.3.1/../../../../arm-none-eabi/lib/thumb/v7e-m+dp/hard/libcr_nohost_nf.a(__sys_istty.o)
 .comment       0x0000000000000076       0x77 /usr/local/mcuxpressoide-11.1.0_3209/ide/plugins/com.nxp.mcuxpresso.tools.linux_11.1.0.201909161352/tools/bin/../lib/gcc/arm-none-eabi/8.3.1/../../../../arm-none-eabi/lib/thumb/v7e-m+dp/hard/libcr_nohost_nf.a(__sys_remove.o)
 .comment       0x0000000000000076       0x77 /usr/local/mcuxpressoide-11.1.0_3209/ide/plugins/com.nxp.mcuxpresso.tools.linux_11.1.0.201909161352/tools/bin/../lib/gcc/arm-none-eabi/8.3.1/../../../../arm-none-eabi/lib/thumb/v7e-m+dp/hard/libcr_nohost_nf.a(__sys_seek.o)
 .comment       0x0000000000000076       0x77 /usr/local/mcuxpressoide-11.1.0_3209/ide/plugins/com.nxp.mcuxpresso.tools.linux_11.1.0.201909161352/tools/bin/../lib/gcc/arm-none-eabi/8.3.1/../../../../arm-none-eabi/lib/thumb/v7e-m+dp/hard/libcr_nohost_nf.a(__sys_tmpnam.o)
 .comment       0x0000000000000076       0x77 /usr/local/mcuxpressoide-11.1.0_3209/ide/plugins/com.nxp.mcuxpresso.tools.linux_11.1.0.201909161352/tools/bin/../lib/gcc/arm-none-eabi/8.3.1/../../../../arm-none-eabi/lib/thumb/v7e-m+dp/hard/libcr_nohost_nf.a(__sys_write.o)

.ARM.attributes
                0x0000000000000000       0x35
 .ARM.attributes
                0x0000000000000000       0x37 ./xip/evkmimxrt1060_flexspi_nor_config.o
 .ARM.attributes
                0x0000000000000037       0x37 ./xip/fsl_flexspi_nor_boot.o
 .ARM.attributes
                0x000000000000006e       0x32 ./utilities/fsl_assert.o
 .ARM.attributes
                0x00000000000000a0       0x32 ./utilities/fsl_debug_console.o
 .ARM.attributes
                0x00000000000000d2       0x32 ./utilities/fsl_str.o
 .ARM.attributes
                0x0000000000000104       0x32 ./startup/startup_mimxrt1062.o
 .ARM.attributes
                0x0000000000000136       0x32 ./source/freertos_hello.o
 .ARM.attributes
                0x0000000000000168       0x32 ./source/semihost_hardfault.o
 .ARM.attributes
                0x000000000000019a       0x32 ./drivers/fsl_clock.o
 .ARM.attributes
                0x00000000000001cc       0x32 ./drivers/fsl_common.o
 .ARM.attributes
                0x00000000000001fe       0x32 ./drivers/fsl_gpio.o
 .ARM.attributes
                0x0000000000000230       0x32 ./drivers/fsl_lpuart.o
 .ARM.attributes
                0x0000000000000262       0x32 ./device/system_MIMXRT1062.o
 .ARM.attributes
                0x0000000000000294       0x32 ./component/uart/lpuart_adapter.o
 .ARM.attributes
                0x00000000000002c6       0x32 ./component/serial_manager/serial_manager.o
 .ARM.attributes
                0x00000000000002f8       0x32 ./component/serial_manager/serial_port_uart.o
 .ARM.attributes
                0x000000000000032a       0x32 ./board/board.o
 .ARM.attributes
                0x000000000000035c       0x32 ./board/clock_config.o
 .ARM.attributes
                0x000000000000038e       0x32 ./board/pin_mux.o
 .ARM.attributes
                0x00000000000003c0       0x32 ./amazon-freertos/freertos_kernel/portable/MemMang/heap_4.o
 .ARM.attributes
                0x00000000000003f2       0x32 ./amazon-freertos/freertos_kernel/portable/GCC/ARM_CM4F/port.o
 .ARM.attributes
                0x0000000000000424       0x32 ./amazon-freertos/freertos_kernel/list.o
 .ARM.attributes
                0x0000000000000456       0x32 ./amazon-freertos/freertos_kernel/queue.o
 .ARM.attributes
                0x0000000000000488       0x32 ./amazon-freertos/freertos_kernel/tasks.o
 .ARM.attributes
                0x00000000000004ba       0x32 ./amazon-freertos/freertos_kernel/timers.o
 .ARM.attributes
                0x00000000000004ec       0x32 /usr/local/mcuxpressoide-11.1.0_3209/ide/plugins/com.nxp.mcuxpresso.tools.linux_11.1.0.201909161352/tools/bin/../lib/gcc/arm-none-eabi/8.3.1/../../../../arm-none-eabi/lib/thumb/v7e-m+dp/hard/libcr_nohost_nf.a(_cr__main.o)
 .ARM.attributes
                0x000000000000051e       0x32 /usr/local/mcuxpressoide-11.1.0_3209/ide/plugins/com.nxp.mcuxpresso.tools.linux_11.1.0.201909161352/tools/bin/../lib/gcc/arm-none-eabi/8.3.1/../../../../arm-none-eabi/lib/thumb/v7e-m+dp/hard/libcr_c.a(memcpy.o)
 .ARM.attributes
                0x0000000000000550       0x32 /usr/local/mcuxpressoide-11.1.0_3209/ide/plugins/com.nxp.mcuxpresso.tools.linux_11.1.0.201909161352/tools/bin/../lib/gcc/arm-none-eabi/8.3.1/../../../../arm-none-eabi/lib/thumb/v7e-m+dp/hard/libcr_c.a(memset.o)
 .ARM.attributes
                0x0000000000000582       0x32 /usr/local/mcuxpressoide-11.1.0_3209/ide/plugins/com.nxp.mcuxpresso.tools.linux_11.1.0.201909161352/tools/bin/../lib/gcc/arm-none-eabi/8.3.1/../../../../arm-none-eabi/lib/thumb/v7e-m+dp/hard/libcr_c.a(alloc.o)
 .ARM.attributes
                0x00000000000005b4       0x32 /usr/local/mcuxpressoide-11.1.0_3209/ide/plugins/com.nxp.mcuxpresso.tools.linux_11.1.0.201909161352/tools/bin/../lib/gcc/arm-none-eabi/8.3.1/../../../../arm-none-eabi/lib/thumb/v7e-m+dp/hard/libcr_c.a(initio.o)
 .ARM.attributes
                0x00000000000005e6       0x32 /usr/local/mcuxpressoide-11.1.0_3209/ide/plugins/com.nxp.mcuxpresso.tools.linux_11.1.0.201909161352/tools/bin/../lib/gcc/arm-none-eabi/8.3.1/../../../../arm-none-eabi/lib/thumb/v7e-m+dp/hard/libcr_c.a(setvbuf.o)
 .ARM.attributes
                0x0000000000000618       0x32 /usr/local/mcuxpressoide-11.1.0_3209/ide/plugins/com.nxp.mcuxpresso.tools.linux_11.1.0.201909161352/tools/bin/../lib/gcc/arm-none-eabi/8.3.1/../../../../arm-none-eabi/lib/thumb/v7e-m+dp/hard/libcr_c.a(strlen.o)
 .ARM.attributes
                0x000000000000064a       0x32 /usr/local/mcuxpressoide-11.1.0_3209/ide/plugins/com.nxp.mcuxpresso.tools.linux_11.1.0.201909161352/tools/bin/../lib/gcc/arm-none-eabi/8.3.1/../../../../arm-none-eabi/lib/thumb/v7e-m+dp/hard/libcr_c.a(_fdopen.o)
 .ARM.attributes
                0x000000000000067c       0x37 /usr/local/mcuxpressoide-11.1.0_3209/ide/plugins/com.nxp.mcuxpresso.tools.linux_11.1.0.201909161352/tools/bin/../lib/gcc/arm-none-eabi/8.3.1/../../../../arm-none-eabi/lib/thumb/v7e-m+dp/hard/libcr_c.a(errno.o)
 .ARM.attributes
                0x00000000000006b3       0x32 /usr/local/mcuxpressoide-11.1.0_3209/ide/plugins/com.nxp.mcuxpresso.tools.linux_11.1.0.201909161352/tools/bin/../lib/gcc/arm-none-eabi/8.3.1/../../../../arm-none-eabi/lib/thumb/v7e-m+dp/hard/libcr_c.a(fclose.o)
 .ARM.attributes
                0x00000000000006e5       0x32 /usr/local/mcuxpressoide-11.1.0_3209/ide/plugins/com.nxp.mcuxpresso.tools.linux_11.1.0.201909161352/tools/bin/../lib/gcc/arm-none-eabi/8.3.1/../../../../arm-none-eabi/lib/thumb/v7e-m+dp/hard/libcr_c.a(fflush.o)
 .ARM.attributes
                0x0000000000000717       0x32 /usr/local/mcuxpressoide-11.1.0_3209/ide/plugins/com.nxp.mcuxpresso.tools.linux_11.1.0.201909161352/tools/bin/../lib/gcc/arm-none-eabi/8.3.1/../../../../arm-none-eabi/lib/thumb/v7e-m+dp/hard/libcr_c.a(fseek.o)
 .ARM.attributes
                0x0000000000000749       0x32 /usr/local/mcuxpressoide-11.1.0_3209/ide/plugins/com.nxp.mcuxpresso.tools.linux_11.1.0.201909161352/tools/bin/../lib/gcc/arm-none-eabi/8.3.1/../../../../arm-none-eabi/lib/thumb/v7e-m+dp/hard/libcr_c.a(ftell.o)
 .ARM.attributes
                0x000000000000077b       0x32 /usr/local/mcuxpressoide-11.1.0_3209/ide/plugins/com.nxp.mcuxpresso.tools.linux_11.1.0.201909161352/tools/bin/../lib/gcc/arm-none-eabi/8.3.1/../../../../arm-none-eabi/lib/thumb/v7e-m+dp/hard/libcr_c.a(remove.o)
 .ARM.attributes
                0x00000000000007ad       0x32 /usr/local/mcuxpressoide-11.1.0_3209/ide/plugins/com.nxp.mcuxpresso.tools.linux_11.1.0.201909161352/tools/bin/../lib/gcc/arm-none-eabi/8.3.1/../../../../arm-none-eabi/lib/thumb/v7e-m+dp/hard/libcr_c.a(_do_fflush.o)
 .ARM.attributes
                0x00000000000007df       0x32 /usr/local/mcuxpressoide-11.1.0_3209/ide/plugins/com.nxp.mcuxpresso.tools.linux_11.1.0.201909161352/tools/bin/../lib/gcc/arm-none-eabi/8.3.1/../../../../arm-none-eabi/lib/thumb/v7e-m+dp/hard/libcr_c.a(_fflush.o)
 .ARM.attributes
                0x0000000000000811       0x32 /usr/local/mcuxpressoide-11.1.0_3209/ide/plugins/com.nxp.mcuxpresso.tools.linux_11.1.0.201909161352/tools/bin/../lib/gcc/arm-none-eabi/8.3.1/../../../../arm-none-eabi/lib/thumb/v7e-m+dp/hard/libcr_c.a(_writebuf.o)
 .ARM.attributes
                0x0000000000000843       0x32 /usr/local/mcuxpressoide-11.1.0_3209/ide/plugins/com.nxp.mcuxpresso.tools.linux_11.1.0.201909161352/tools/bin/../lib/gcc/arm-none-eabi/8.3.1/../../../../arm-none-eabi/lib/thumb/v7e-m+dp/hard/libcr_c.a(_deferredlazyseek.o)
 .ARM.attributes
                0x0000000000000875       0x1e /usr/local/mcuxpressoide-11.1.0_3209/ide/plugins/com.nxp.mcuxpresso.tools.linux_11.1.0.201909161352/tools/bin/../lib/gcc/arm-none-eabi/8.3.1/thumb/v7e-m+dp/hard/libcr_eabihelpers.a(division_64.o)
 .ARM.attributes
                0x0000000000000893       0x1e /usr/local/mcuxpressoide-11.1.0_3209/ide/plugins/com.nxp.mcuxpresso.tools.linux_11.1.0.201909161352/tools/bin/../lib/gcc/arm-none-eabi/8.3.1/thumb/v7e-m+dp/hard/libcr_eabihelpers.a(division_idiv0.o)
 .ARM.attributes
                0x00000000000008b1       0x1e /usr/local/mcuxpressoide-11.1.0_3209/ide/plugins/com.nxp.mcuxpresso.tools.linux_11.1.0.201909161352/tools/bin/../lib/gcc/arm-none-eabi/8.3.1/thumb/v7e-m+dp/hard/libcr_eabihelpers.a(memcpy.o)
 .ARM.attributes
                0x00000000000008cf       0x37 /usr/local/mcuxpressoide-11.1.0_3209/ide/plugins/com.nxp.mcuxpresso.tools.linux_11.1.0.201909161352/tools/bin/../lib/gcc/arm-none-eabi/8.3.1/../../../../arm-none-eabi/lib/thumb/v7e-m+dp/hard/libcr_nohost_nf.a(__ciob.o)
 .ARM.attributes
                0x0000000000000906       0x32 /usr/local/mcuxpressoide-11.1.0_3209/ide/plugins/com.nxp.mcuxpresso.tools.linux_11.1.0.201909161352/tools/bin/../lib/gcc/arm-none-eabi/8.3.1/../../../../arm-none-eabi/lib/thumb/v7e-m+dp/hard/libcr_nohost_nf.a(__sys_close.o)
 .ARM.attributes
                0x0000000000000938       0x32 /usr/local/mcuxpressoide-11.1.0_3209/ide/plugins/com.nxp.mcuxpresso.tools.linux_11.1.0.201909161352/tools/bin/../lib/gcc/arm-none-eabi/8.3.1/../../../../arm-none-eabi/lib/thumb/v7e-m+dp/hard/libcr_nohost_nf.a(__sys_flen.o)
 .ARM.attributes
                0x000000000000096a       0x32 /usr/local/mcuxpressoide-11.1.0_3209/ide/plugins/com.nxp.mcuxpresso.tools.linux_11.1.0.201909161352/tools/bin/../lib/gcc/arm-none-eabi/8.3.1/../../../../arm-none-eabi/lib/thumb/v7e-m+dp/hard/libcr_nohost_nf.a(__sys_istty.o)
 .ARM.attributes
                0x000000000000099c       0x32 /usr/local/mcuxpressoide-11.1.0_3209/ide/plugins/com.nxp.mcuxpresso.tools.linux_11.1.0.201909161352/tools/bin/../lib/gcc/arm-none-eabi/8.3.1/../../../../arm-none-eabi/lib/thumb/v7e-m+dp/hard/libcr_nohost_nf.a(__sys_remove.o)
 .ARM.attributes
                0x00000000000009ce       0x32 /usr/local/mcuxpressoide-11.1.0_3209/ide/plugins/com.nxp.mcuxpresso.tools.linux_11.1.0.201909161352/tools/bin/../lib/gcc/arm-none-eabi/8.3.1/../../../../arm-none-eabi/lib/thumb/v7e-m+dp/hard/libcr_nohost_nf.a(__sys_seek.o)
 .ARM.attributes
                0x0000000000000a00       0x32 /usr/local/mcuxpressoide-11.1.0_3209/ide/plugins/com.nxp.mcuxpresso.tools.linux_11.1.0.201909161352/tools/bin/../lib/gcc/arm-none-eabi/8.3.1/../../../../arm-none-eabi/lib/thumb/v7e-m+dp/hard/libcr_nohost_nf.a(__sys_tmpnam.o)
 .ARM.attributes
                0x0000000000000a32       0x32 /usr/local/mcuxpressoide-11.1.0_3209/ide/plugins/com.nxp.mcuxpresso.tools.linux_11.1.0.201909161352/tools/bin/../lib/gcc/arm-none-eabi/8.3.1/../../../../arm-none-eabi/lib/thumb/v7e-m+dp/hard/libcr_nohost_nf.a(__sys_write.o)

.debug_ranges   0x0000000000000000     0x1030
 .debug_ranges  0x0000000000000000       0x10 ./utilities/fsl_assert.o
 .debug_ranges  0x0000000000000010       0x78 ./utilities/fsl_debug_console.o
 .debug_ranges  0x0000000000000088       0x28 ./utilities/fsl_str.o
 .debug_ranges  0x00000000000000b0      0x540 ./startup/startup_mimxrt1062.o
 .debug_ranges  0x00000000000005f0       0x28 ./source/freertos_hello.o
 .debug_ranges  0x0000000000000618       0x10 ./source/semihost_hardfault.o
 .debug_ranges  0x0000000000000628      0x160 ./drivers/fsl_clock.o
 .debug_ranges  0x0000000000000788       0x28 ./drivers/fsl_common.o
 .debug_ranges  0x00000000000007b0       0x40 ./drivers/fsl_gpio.o
 .debug_ranges  0x00000000000007f0      0x150 ./drivers/fsl_lpuart.o
 .debug_ranges  0x0000000000000940       0x20 ./device/system_MIMXRT1062.o
 .debug_ranges  0x0000000000000960       0x40 ./component/uart/lpuart_adapter.o
 .debug_ranges  0x00000000000009a0       0x88 ./component/serial_manager/serial_manager.o
 .debug_ranges  0x0000000000000a28       0x38 ./component/serial_manager/serial_port_uart.o
 .debug_ranges  0x0000000000000a60       0x78 ./board/board.o
 .debug_ranges  0x0000000000000ad8       0x68 ./board/clock_config.o
 .debug_ranges  0x0000000000000b40       0x38 ./board/pin_mux.o
 .debug_ranges  0x0000000000000b78       0x40 ./amazon-freertos/freertos_kernel/portable/MemMang/heap_4.o
 .debug_ranges  0x0000000000000bb8       0x70 ./amazon-freertos/freertos_kernel/portable/GCC/ARM_CM4F/port.o
 .debug_ranges  0x0000000000000c28       0x30 ./amazon-freertos/freertos_kernel/list.o
 .debug_ranges  0x0000000000000c58      0x120 ./amazon-freertos/freertos_kernel/queue.o
 .debug_ranges  0x0000000000000d78      0x1e8 ./amazon-freertos/freertos_kernel/tasks.o
 .debug_ranges  0x0000000000000f60       0xd0 ./amazon-freertos/freertos_kernel/timers.o

.debug_frame    0x0000000000000000     0x3f48
 .debug_frame   0x0000000000000000       0x30 ./utilities/fsl_assert.o
 .debug_frame   0x0000000000000030      0x244 ./utilities/fsl_debug_console.o
 .debug_frame   0x0000000000000274       0xb4 ./utilities/fsl_str.o
 .debug_frame   0x0000000000000328      0xf84 ./startup/startup_mimxrt1062.o
 .debug_frame   0x00000000000012ac       0xa0 ./source/freertos_hello.o
 .debug_frame   0x000000000000134c       0x20 ./source/semihost_hardfault.o
 .debug_frame   0x000000000000136c      0x618 ./drivers/fsl_clock.o
 .debug_frame   0x0000000000001984       0xa8 ./drivers/fsl_common.o
 .debug_frame   0x0000000000001a2c      0x110 ./drivers/fsl_gpio.o
 .debug_frame   0x0000000000001b3c      0x5bc ./drivers/fsl_lpuart.o
 .debug_frame   0x00000000000020f8       0x7c ./device/system_MIMXRT1062.o
 .debug_frame   0x0000000000002174      0x114 ./component/uart/lpuart_adapter.o
 .debug_frame   0x0000000000002288      0x258 ./component/serial_manager/serial_manager.o
 .debug_frame   0x00000000000024e0       0xe8 ./component/serial_manager/serial_port_uart.o
 .debug_frame   0x00000000000025c8      0x1b8 ./board/board.o
 .debug_frame   0x0000000000002780      0x1d4 ./board/clock_config.o
 .debug_frame   0x0000000000002954       0xe8 ./board/pin_mux.o
 .debug_frame   0x0000000000002a3c      0x108 ./amazon-freertos/freertos_kernel/portable/MemMang/heap_4.o
 .debug_frame   0x0000000000002b44      0x1a8 ./amazon-freertos/freertos_kernel/portable/GCC/ARM_CM4F/port.o
 .debug_frame   0x0000000000002cec       0xd8 ./amazon-freertos/freertos_kernel/list.o
 .debug_frame   0x0000000000002dc4      0x530 ./amazon-freertos/freertos_kernel/queue.o
 .debug_frame   0x00000000000032f4      0x8a4 ./amazon-freertos/freertos_kernel/tasks.o
 .debug_frame   0x0000000000003b98      0x3b0 ./amazon-freertos/freertos_kernel/timers.o

Cross Reference Table

Symbol                                            File
ACMP1_DriverIRQHandler                            ./startup/startup_mimxrt1062.o
ACMP1_IRQHandler                                  ./startup/startup_mimxrt1062.o
ACMP2_DriverIRQHandler                            ./startup/startup_mimxrt1062.o
ACMP2_IRQHandler                                  ./startup/startup_mimxrt1062.o
ACMP3_DriverIRQHandler                            ./startup/startup_mimxrt1062.o
ACMP3_IRQHandler                                  ./startup/startup_mimxrt1062.o
ACMP4_DriverIRQHandler                            ./startup/startup_mimxrt1062.o
ACMP4_IRQHandler                                  ./startup/startup_mimxrt1062.o
ADC1_DriverIRQHandler                             ./startup/startup_mimxrt1062.o
ADC1_IRQHandler                                   ./startup/startup_mimxrt1062.o
ADC2_DriverIRQHandler                             ./startup/startup_mimxrt1062.o
ADC2_IRQHandler                                   ./startup/startup_mimxrt1062.o
ADC_ETC_ERROR_IRQ_DriverIRQHandler                ./startup/startup_mimxrt1062.o
ADC_ETC_ERROR_IRQ_IRQHandler                      ./startup/startup_mimxrt1062.o
ADC_ETC_IRQ0_DriverIRQHandler                     ./startup/startup_mimxrt1062.o
ADC_ETC_IRQ0_IRQHandler                           ./startup/startup_mimxrt1062.o
ADC_ETC_IRQ1_DriverIRQHandler                     ./startup/startup_mimxrt1062.o
ADC_ETC_IRQ1_IRQHandler                           ./startup/startup_mimxrt1062.o
ADC_ETC_IRQ2_DriverIRQHandler                     ./startup/startup_mimxrt1062.o
ADC_ETC_IRQ2_IRQHandler                           ./startup/startup_mimxrt1062.o
BEE_DriverIRQHandler                              ./startup/startup_mimxrt1062.o
BEE_IRQHandler                                    ./startup/startup_mimxrt1062.o
BOARD_BootClockRUN                                ./board/clock_config.o
                                                  ./source/freertos_hello.o
BOARD_ConfigMPU                                   ./board/board.o
                                                  ./source/freertos_hello.o
BOARD_DebugConsoleSrcFreq                         ./board/board.o
BOARD_InitBootClocks                              ./board/clock_config.o
BOARD_InitBootPins                                ./board/pin_mux.o
BOARD_InitDebugConsole                            ./board/board.o
                                                  ./source/freertos_hello.o
BOARD_InitPins                                    ./board/pin_mux.o
                                                  ./source/freertos_hello.o
BOARD_MMC_Pin_Config                              ./board/board.o
BOARD_SD_Pin_Config                               ./board/board.o
CAN1_DriverIRQHandler                             ./startup/startup_mimxrt1062.o
CAN1_IRQHandler                                   ./startup/startup_mimxrt1062.o
CAN2_DriverIRQHandler                             ./startup/startup_mimxrt1062.o
CAN2_IRQHandler                                   ./startup/startup_mimxrt1062.o
CAN3_DriverIRQHandler                             ./startup/startup_mimxrt1062.o
CAN3_IRQHandler                                   ./startup/startup_mimxrt1062.o
CCM_1_DriverIRQHandler                            ./startup/startup_mimxrt1062.o
CCM_1_IRQHandler                                  ./startup/startup_mimxrt1062.o
CCM_2_DriverIRQHandler                            ./startup/startup_mimxrt1062.o
CCM_2_IRQHandler                                  ./startup/startup_mimxrt1062.o
CLOCK_DeinitArmPll                                ./drivers/fsl_clock.o
CLOCK_DeinitAudioPll                              ./drivers/fsl_clock.o
                                                  ./board/clock_config.o
CLOCK_DeinitEnetPll                               ./drivers/fsl_clock.o
                                                  ./board/clock_config.o
CLOCK_DeinitExternalClk                           ./drivers/fsl_clock.o
CLOCK_DeinitRcOsc24M                              ./drivers/fsl_clock.o
CLOCK_DeinitSysPfd                                ./drivers/fsl_clock.o
CLOCK_DeinitSysPll                                ./drivers/fsl_clock.o
CLOCK_DeinitUsb1Pfd                               ./drivers/fsl_clock.o
CLOCK_DeinitUsb1Pll                               ./drivers/fsl_clock.o
CLOCK_DeinitUsb2Pll                               ./drivers/fsl_clock.o
                                                  ./board/clock_config.o
CLOCK_DeinitVideoPll                              ./drivers/fsl_clock.o
CLOCK_DisableUsbhs0PhyPllClock                    ./drivers/fsl_clock.o
CLOCK_DisableUsbhs1PhyPllClock                    ./drivers/fsl_clock.o
CLOCK_EnableUsbhs0Clock                           ./drivers/fsl_clock.o
CLOCK_EnableUsbhs0PhyPllClock                     ./drivers/fsl_clock.o
CLOCK_EnableUsbhs1Clock                           ./drivers/fsl_clock.o
CLOCK_EnableUsbhs1PhyPllClock                     ./drivers/fsl_clock.o
CLOCK_GetAhbFreq                                  ./drivers/fsl_clock.o
CLOCK_GetFreq                                     ./drivers/fsl_clock.o
CLOCK_GetIpgFreq                                  ./drivers/fsl_clock.o
CLOCK_GetPerClkFreq                               ./drivers/fsl_clock.o
CLOCK_GetPllFreq                                  ./drivers/fsl_clock.o
                                                  ./board/board.o
CLOCK_GetSemcFreq                                 ./drivers/fsl_clock.o
CLOCK_GetSysPfdFreq                               ./drivers/fsl_clock.o
CLOCK_GetUsb1PfdFreq                              ./drivers/fsl_clock.o
CLOCK_InitArmPll                                  ./drivers/fsl_clock.o
                                                  ./board/clock_config.o
CLOCK_InitAudioPll                                ./drivers/fsl_clock.o
CLOCK_InitEnetPll                                 ./drivers/fsl_clock.o
CLOCK_InitExternalClk                             ./drivers/fsl_clock.o
                                                  ./board/clock_config.o
CLOCK_InitRcOsc24M                                ./drivers/fsl_clock.o
                                                  ./board/clock_config.o
CLOCK_InitSysPfd                                  ./drivers/fsl_clock.o
                                                  ./board/clock_config.o
CLOCK_InitSysPll                                  ./drivers/fsl_clock.o
                                                  ./board/clock_config.o
CLOCK_InitUsb1Pfd                                 ./drivers/fsl_clock.o
CLOCK_InitUsb1Pll                                 ./drivers/fsl_clock.o
CLOCK_InitUsb2Pll                                 ./drivers/fsl_clock.o
CLOCK_InitVideoPll                                ./drivers/fsl_clock.o
CLOCK_SwitchOsc                                   ./drivers/fsl_clock.o
                                                  ./board/clock_config.o
CORE_DriverIRQHandler                             ./startup/startup_mimxrt1062.o
CORE_IRQHandler                                   ./startup/startup_mimxrt1062.o
CSI_DriverIRQHandler                              ./startup/startup_mimxrt1062.o
CSI_IRQHandler                                    ./startup/startup_mimxrt1062.o
CSU_DriverIRQHandler                              ./startup/startup_mimxrt1062.o
CSU_IRQHandler                                    ./startup/startup_mimxrt1062.o
CTI0_ERROR_DriverIRQHandler                       ./startup/startup_mimxrt1062.o
CTI0_ERROR_IRQHandler                             ./startup/startup_mimxrt1062.o
CTI1_ERROR_DriverIRQHandler                       ./startup/startup_mimxrt1062.o
CTI1_ERROR_IRQHandler                             ./startup/startup_mimxrt1062.o
DCDC_DriverIRQHandler                             ./startup/startup_mimxrt1062.o
DCDC_IRQHandler                                   ./startup/startup_mimxrt1062.o
DCP_DriverIRQHandler                              ./startup/startup_mimxrt1062.o
DCP_IRQHandler                                    ./startup/startup_mimxrt1062.o
DCP_VMI_DriverIRQHandler                          ./startup/startup_mimxrt1062.o
DCP_VMI_IRQHandler                                ./startup/startup_mimxrt1062.o
DMA0_DMA16_DriverIRQHandler                       ./startup/startup_mimxrt1062.o
DMA0_DMA16_IRQHandler                             ./startup/startup_mimxrt1062.o
DMA10_DMA26_DriverIRQHandler                      ./startup/startup_mimxrt1062.o
DMA10_DMA26_IRQHandler                            ./startup/startup_mimxrt1062.o
DMA11_DMA27_DriverIRQHandler                      ./startup/startup_mimxrt1062.o
DMA11_DMA27_IRQHandler                            ./startup/startup_mimxrt1062.o
DMA12_DMA28_DriverIRQHandler                      ./startup/startup_mimxrt1062.o
DMA12_DMA28_IRQHandler                            ./startup/startup_mimxrt1062.o
DMA13_DMA29_DriverIRQHandler                      ./startup/startup_mimxrt1062.o
DMA13_DMA29_IRQHandler                            ./startup/startup_mimxrt1062.o
DMA14_DMA30_DriverIRQHandler                      ./startup/startup_mimxrt1062.o
DMA14_DMA30_IRQHandler                            ./startup/startup_mimxrt1062.o
DMA15_DMA31_DriverIRQHandler                      ./startup/startup_mimxrt1062.o
DMA15_DMA31_IRQHandler                            ./startup/startup_mimxrt1062.o
DMA1_DMA17_DriverIRQHandler                       ./startup/startup_mimxrt1062.o
DMA1_DMA17_IRQHandler                             ./startup/startup_mimxrt1062.o
DMA2_DMA18_DriverIRQHandler                       ./startup/startup_mimxrt1062.o
DMA2_DMA18_IRQHandler                             ./startup/startup_mimxrt1062.o
DMA3_DMA19_DriverIRQHandler                       ./startup/startup_mimxrt1062.o
DMA3_DMA19_IRQHandler                             ./startup/startup_mimxrt1062.o
DMA4_DMA20_DriverIRQHandler                       ./startup/startup_mimxrt1062.o
DMA4_DMA20_IRQHandler                             ./startup/startup_mimxrt1062.o
DMA5_DMA21_DriverIRQHandler                       ./startup/startup_mimxrt1062.o
DMA5_DMA21_IRQHandler                             ./startup/startup_mimxrt1062.o
DMA6_DMA22_DriverIRQHandler                       ./startup/startup_mimxrt1062.o
DMA6_DMA22_IRQHandler                             ./startup/startup_mimxrt1062.o
DMA7_DMA23_DriverIRQHandler                       ./startup/startup_mimxrt1062.o
DMA7_DMA23_IRQHandler                             ./startup/startup_mimxrt1062.o
DMA8_DMA24_DriverIRQHandler                       ./startup/startup_mimxrt1062.o
DMA8_DMA24_IRQHandler                             ./startup/startup_mimxrt1062.o
DMA9_DMA25_DriverIRQHandler                       ./startup/startup_mimxrt1062.o
DMA9_DMA25_IRQHandler                             ./startup/startup_mimxrt1062.o
DMA_ERROR_DriverIRQHandler                        ./startup/startup_mimxrt1062.o
DMA_ERROR_IRQHandler                              ./startup/startup_mimxrt1062.o
DbgConsole_BlockingPrintf                         ./utilities/fsl_debug_console.o
DbgConsole_Deinit                                 ./utilities/fsl_debug_console.o
DbgConsole_Flush                                  ./utilities/fsl_debug_console.o
DbgConsole_Getchar                                ./utilities/fsl_debug_console.o
DbgConsole_Init                                   ./utilities/fsl_debug_console.o
                                                  ./board/board.o
DbgConsole_Printf                                 ./utilities/fsl_debug_console.o
                                                  ./source/freertos_hello.o
                                                  ./utilities/fsl_assert.o
DbgConsole_Putchar                                ./utilities/fsl_debug_console.o
DbgConsole_ReadCharacter                          ./utilities/fsl_debug_console.o
DbgConsole_ReadLine                               ./utilities/fsl_debug_console.o
DbgConsole_ReadOneCharacter                       ./utilities/fsl_debug_console.o
DbgConsole_Scanf                                  ./utilities/fsl_debug_console.o
DbgConsole_SendData                               ./utilities/fsl_debug_console.o
DbgConsole_SendDataReliable                       ./utilities/fsl_debug_console.o
ENC1_DriverIRQHandler                             ./startup/startup_mimxrt1062.o
ENC1_IRQHandler                                   ./startup/startup_mimxrt1062.o
ENC2_DriverIRQHandler                             ./startup/startup_mimxrt1062.o
ENC2_IRQHandler                                   ./startup/startup_mimxrt1062.o
ENC3_DriverIRQHandler                             ./startup/startup_mimxrt1062.o
ENC3_IRQHandler                                   ./startup/startup_mimxrt1062.o
ENC4_DriverIRQHandler                             ./startup/startup_mimxrt1062.o
ENC4_IRQHandler                                   ./startup/startup_mimxrt1062.o
ENET2_1588_Timer_DriverIRQHandler                 ./startup/startup_mimxrt1062.o
ENET2_1588_Timer_IRQHandler                       ./startup/startup_mimxrt1062.o
ENET2_DriverIRQHandler                            ./startup/startup_mimxrt1062.o
ENET2_IRQHandler                                  ./startup/startup_mimxrt1062.o
ENET_1588_Timer_DriverIRQHandler                  ./startup/startup_mimxrt1062.o
ENET_1588_Timer_IRQHandler                        ./startup/startup_mimxrt1062.o
ENET_DriverIRQHandler                             ./startup/startup_mimxrt1062.o
ENET_IRQHandler                                   ./startup/startup_mimxrt1062.o
EWM_DriverIRQHandler                              ./startup/startup_mimxrt1062.o
EWM_IRQHandler                                    ./startup/startup_mimxrt1062.o
FLEXIO1_DriverIRQHandler                          ./startup/startup_mimxrt1062.o
FLEXIO1_IRQHandler                                ./startup/startup_mimxrt1062.o
FLEXIO2_DriverIRQHandler                          ./startup/startup_mimxrt1062.o
FLEXIO2_IRQHandler                                ./startup/startup_mimxrt1062.o
FLEXIO3_DriverIRQHandler                          ./startup/startup_mimxrt1062.o
FLEXIO3_IRQHandler                                ./startup/startup_mimxrt1062.o
FLEXRAM_DriverIRQHandler                          ./startup/startup_mimxrt1062.o
FLEXRAM_IRQHandler                                ./startup/startup_mimxrt1062.o
FLEXSPI2_DriverIRQHandler                         ./startup/startup_mimxrt1062.o
FLEXSPI2_IRQHandler                               ./startup/startup_mimxrt1062.o
FLEXSPI_DriverIRQHandler                          ./startup/startup_mimxrt1062.o
FLEXSPI_IRQHandler                                ./startup/startup_mimxrt1062.o
FreeRTOSDebugConfig                               ./amazon-freertos/freertos_kernel/tasks.o
GPC_DriverIRQHandler                              ./startup/startup_mimxrt1062.o
GPC_IRQHandler                                    ./startup/startup_mimxrt1062.o
GPIO1_Combined_0_15_DriverIRQHandler              ./startup/startup_mimxrt1062.o
GPIO1_Combined_0_15_IRQHandler                    ./startup/startup_mimxrt1062.o
GPIO1_Combined_16_31_DriverIRQHandler             ./startup/startup_mimxrt1062.o
GPIO1_Combined_16_31_IRQHandler                   ./startup/startup_mimxrt1062.o
GPIO1_INT0_DriverIRQHandler                       ./startup/startup_mimxrt1062.o
GPIO1_INT0_IRQHandler                             ./startup/startup_mimxrt1062.o
GPIO1_INT1_DriverIRQHandler                       ./startup/startup_mimxrt1062.o
GPIO1_INT1_IRQHandler                             ./startup/startup_mimxrt1062.o
GPIO1_INT2_DriverIRQHandler                       ./startup/startup_mimxrt1062.o
GPIO1_INT2_IRQHandler                             ./startup/startup_mimxrt1062.o
GPIO1_INT3_DriverIRQHandler                       ./startup/startup_mimxrt1062.o
GPIO1_INT3_IRQHandler                             ./startup/startup_mimxrt1062.o
GPIO1_INT4_DriverIRQHandler                       ./startup/startup_mimxrt1062.o
GPIO1_INT4_IRQHandler                             ./startup/startup_mimxrt1062.o
GPIO1_INT5_DriverIRQHandler                       ./startup/startup_mimxrt1062.o
GPIO1_INT5_IRQHandler                             ./startup/startup_mimxrt1062.o
GPIO1_INT6_DriverIRQHandler                       ./startup/startup_mimxrt1062.o
GPIO1_INT6_IRQHandler                             ./startup/startup_mimxrt1062.o
GPIO1_INT7_DriverIRQHandler                       ./startup/startup_mimxrt1062.o
GPIO1_INT7_IRQHandler                             ./startup/startup_mimxrt1062.o
GPIO2_Combined_0_15_DriverIRQHandler              ./startup/startup_mimxrt1062.o
GPIO2_Combined_0_15_IRQHandler                    ./startup/startup_mimxrt1062.o
GPIO2_Combined_16_31_DriverIRQHandler             ./startup/startup_mimxrt1062.o
GPIO2_Combined_16_31_IRQHandler                   ./startup/startup_mimxrt1062.o
GPIO3_Combined_0_15_DriverIRQHandler              ./startup/startup_mimxrt1062.o
GPIO3_Combined_0_15_IRQHandler                    ./startup/startup_mimxrt1062.o
GPIO3_Combined_16_31_DriverIRQHandler             ./startup/startup_mimxrt1062.o
GPIO3_Combined_16_31_IRQHandler                   ./startup/startup_mimxrt1062.o
GPIO4_Combined_0_15_DriverIRQHandler              ./startup/startup_mimxrt1062.o
GPIO4_Combined_0_15_IRQHandler                    ./startup/startup_mimxrt1062.o
GPIO4_Combined_16_31_DriverIRQHandler             ./startup/startup_mimxrt1062.o
GPIO4_Combined_16_31_IRQHandler                   ./startup/startup_mimxrt1062.o
GPIO5_Combined_0_15_DriverIRQHandler              ./startup/startup_mimxrt1062.o
GPIO5_Combined_0_15_IRQHandler                    ./startup/startup_mimxrt1062.o
GPIO5_Combined_16_31_DriverIRQHandler             ./startup/startup_mimxrt1062.o
GPIO5_Combined_16_31_IRQHandler                   ./startup/startup_mimxrt1062.o
GPIO6_7_8_9_DriverIRQHandler                      ./startup/startup_mimxrt1062.o
GPIO6_7_8_9_IRQHandler                            ./startup/startup_mimxrt1062.o
GPIO_PinInit                                      ./drivers/fsl_gpio.o
                                                  ./source/freertos_hello.o
GPIO_PinSetInterruptConfig                        ./drivers/fsl_gpio.o
GPIO_PinWrite                                     ./drivers/fsl_gpio.o
GPR_IRQ_DriverIRQHandler                          ./startup/startup_mimxrt1062.o
GPR_IRQ_IRQHandler                                ./startup/startup_mimxrt1062.o
GPT1_DriverIRQHandler                             ./startup/startup_mimxrt1062.o
GPT1_IRQHandler                                   ./startup/startup_mimxrt1062.o
GPT2_DriverIRQHandler                             ./startup/startup_mimxrt1062.o
GPT2_IRQHandler                                   ./startup/startup_mimxrt1062.o
HAL_UartDeinit                                    ./component/uart/lpuart_adapter.o
                                                  ./component/serial_manager/serial_port_uart.o
HAL_UartEnterLowpower                             ./component/uart/lpuart_adapter.o
                                                  ./component/serial_manager/serial_port_uart.o
HAL_UartExitLowpower                              ./component/uart/lpuart_adapter.o
                                                  ./component/serial_manager/serial_port_uart.o
HAL_UartInit                                      ./component/uart/lpuart_adapter.o
                                                  ./component/serial_manager/serial_port_uart.o
HAL_UartReceiveBlocking                           ./component/uart/lpuart_adapter.o
                                                  ./component/serial_manager/serial_port_uart.o
HAL_UartSendBlocking                              ./component/uart/lpuart_adapter.o
                                                  ./component/serial_manager/serial_port_uart.o
HardFault_Handler                                 ./source/semihost_hardfault.o
                                                  ./startup/startup_mimxrt1062.o
IntDefaultHandler                                 ./startup/startup_mimxrt1062.o
KPP_DriverIRQHandler                              ./startup/startup_mimxrt1062.o
KPP_IRQHandler                                    ./startup/startup_mimxrt1062.o
LCDIF_DriverIRQHandler                            ./startup/startup_mimxrt1062.o
LCDIF_IRQHandler                                  ./startup/startup_mimxrt1062.o
LIST_AddHead                                      ./component/lists/generic_list.o
LIST_AddPrevElement                               ./component/lists/generic_list.o
LIST_AddTail                                      ./component/lists/generic_list.o
LIST_GetAvailableSize                             ./component/lists/generic_list.o
LIST_GetHead                                      ./component/lists/generic_list.o
LIST_GetList                                      ./component/lists/generic_list.o
LIST_GetNext                                      ./component/lists/generic_list.o
LIST_GetPrev                                      ./component/lists/generic_list.o
LIST_GetSize                                      ./component/lists/generic_list.o
LIST_Init                                         ./component/lists/generic_list.o
LIST_RemoveElement                                ./component/lists/generic_list.o
LIST_RemoveHead                                   ./component/lists/generic_list.o
LPI2C1_DriverIRQHandler                           ./startup/startup_mimxrt1062.o
LPI2C1_IRQHandler                                 ./startup/startup_mimxrt1062.o
LPI2C2_DriverIRQHandler                           ./startup/startup_mimxrt1062.o
LPI2C2_IRQHandler                                 ./startup/startup_mimxrt1062.o
LPI2C3_DriverIRQHandler                           ./startup/startup_mimxrt1062.o
LPI2C3_IRQHandler                                 ./startup/startup_mimxrt1062.o
LPI2C4_DriverIRQHandler                           ./startup/startup_mimxrt1062.o
LPI2C4_IRQHandler                                 ./startup/startup_mimxrt1062.o
LPSPI1_DriverIRQHandler                           ./startup/startup_mimxrt1062.o
LPSPI1_IRQHandler                                 ./startup/startup_mimxrt1062.o
LPSPI2_DriverIRQHandler                           ./startup/startup_mimxrt1062.o
LPSPI2_IRQHandler                                 ./startup/startup_mimxrt1062.o
LPSPI3_DriverIRQHandler                           ./startup/startup_mimxrt1062.o
LPSPI3_IRQHandler                                 ./startup/startup_mimxrt1062.o
LPSPI4_DriverIRQHandler                           ./startup/startup_mimxrt1062.o
LPSPI4_IRQHandler                                 ./startup/startup_mimxrt1062.o
LPUART1_DriverIRQHandler                          ./drivers/fsl_lpuart.o
                                                  ./startup/startup_mimxrt1062.o
LPUART1_IRQHandler                                ./startup/startup_mimxrt1062.o
LPUART2_DriverIRQHandler                          ./drivers/fsl_lpuart.o
                                                  ./startup/startup_mimxrt1062.o
LPUART2_IRQHandler                                ./startup/startup_mimxrt1062.o
LPUART3_DriverIRQHandler                          ./drivers/fsl_lpuart.o
                                                  ./startup/startup_mimxrt1062.o
LPUART3_IRQHandler                                ./startup/startup_mimxrt1062.o
LPUART4_DriverIRQHandler                          ./drivers/fsl_lpuart.o
                                                  ./startup/startup_mimxrt1062.o
LPUART4_IRQHandler                                ./startup/startup_mimxrt1062.o
LPUART5_DriverIRQHandler                          ./drivers/fsl_lpuart.o
                                                  ./startup/startup_mimxrt1062.o
LPUART5_IRQHandler                                ./startup/startup_mimxrt1062.o
LPUART6_DriverIRQHandler                          ./drivers/fsl_lpuart.o
                                                  ./startup/startup_mimxrt1062.o
LPUART6_IRQHandler                                ./startup/startup_mimxrt1062.o
LPUART7_DriverIRQHandler                          ./drivers/fsl_lpuart.o
                                                  ./startup/startup_mimxrt1062.o
LPUART7_IRQHandler                                ./startup/startup_mimxrt1062.o
LPUART8_DriverIRQHandler                          ./drivers/fsl_lpuart.o
                                                  ./startup/startup_mimxrt1062.o
LPUART8_IRQHandler                                ./startup/startup_mimxrt1062.o
LPUART_ClearStatusFlags                           ./drivers/fsl_lpuart.o
LPUART_Deinit                                     ./drivers/fsl_lpuart.o
                                                  ./component/uart/lpuart_adapter.o
LPUART_DisableInterrupts                          ./drivers/fsl_lpuart.o
LPUART_EnableInterrupts                           ./drivers/fsl_lpuart.o
LPUART_GetDefaultConfig                           ./drivers/fsl_lpuart.o
                                                  ./component/uart/lpuart_adapter.o
LPUART_GetEnabledInterrupts                       ./drivers/fsl_lpuart.o
LPUART_GetInstance                                ./drivers/fsl_lpuart.o
LPUART_GetStatusFlags                             ./drivers/fsl_lpuart.o
LPUART_Init                                       ./drivers/fsl_lpuart.o
                                                  ./component/uart/lpuart_adapter.o
LPUART_ReadBlocking                               ./drivers/fsl_lpuart.o
                                                  ./component/uart/lpuart_adapter.o
LPUART_SetBaudRate                                ./drivers/fsl_lpuart.o
LPUART_TransferAbortReceive                       ./drivers/fsl_lpuart.o
LPUART_TransferAbortSend                          ./drivers/fsl_lpuart.o
LPUART_TransferCreateHandle                       ./drivers/fsl_lpuart.o
LPUART_TransferGetReceiveCount                    ./drivers/fsl_lpuart.o
LPUART_TransferGetRxRingBufferLength              ./drivers/fsl_lpuart.o
LPUART_TransferGetSendCount                       ./drivers/fsl_lpuart.o
LPUART_TransferHandleErrorIRQ                     ./drivers/fsl_lpuart.o
LPUART_TransferHandleIRQ                          ./drivers/fsl_lpuart.o
LPUART_TransferReceiveNonBlocking                 ./drivers/fsl_lpuart.o
LPUART_TransferSendNonBlocking                    ./drivers/fsl_lpuart.o
LPUART_TransferStartRingBuffer                    ./drivers/fsl_lpuart.o
LPUART_TransferStopRingBuffer                     ./drivers/fsl_lpuart.o
LPUART_WriteBlocking                              ./drivers/fsl_lpuart.o
                                                  ./component/uart/lpuart_adapter.o
NMI_Handler                                       ./startup/startup_mimxrt1062.o
PIT_DriverIRQHandler                              ./startup/startup_mimxrt1062.o
PIT_IRQHandler                                    ./startup/startup_mimxrt1062.o
PMU_EVENT_DriverIRQHandler                        ./startup/startup_mimxrt1062.o
PMU_EVENT_IRQHandler                              ./startup/startup_mimxrt1062.o
PWM1_0_DriverIRQHandler                           ./startup/startup_mimxrt1062.o
PWM1_0_IRQHandler                                 ./startup/startup_mimxrt1062.o
PWM1_1_DriverIRQHandler                           ./startup/startup_mimxrt1062.o
PWM1_1_IRQHandler                                 ./startup/startup_mimxrt1062.o
PWM1_2_DriverIRQHandler                           ./startup/startup_mimxrt1062.o
PWM1_2_IRQHandler                                 ./startup/startup_mimxrt1062.o
PWM1_3_DriverIRQHandler                           ./startup/startup_mimxrt1062.o
PWM1_3_IRQHandler                                 ./startup/startup_mimxrt1062.o
PWM1_FAULT_DriverIRQHandler                       ./startup/startup_mimxrt1062.o
PWM1_FAULT_IRQHandler                             ./startup/startup_mimxrt1062.o
PWM2_0_DriverIRQHandler                           ./startup/startup_mimxrt1062.o
PWM2_0_IRQHandler                                 ./startup/startup_mimxrt1062.o
PWM2_1_DriverIRQHandler                           ./startup/startup_mimxrt1062.o
PWM2_1_IRQHandler                                 ./startup/startup_mimxrt1062.o
PWM2_2_DriverIRQHandler                           ./startup/startup_mimxrt1062.o
PWM2_2_IRQHandler                                 ./startup/startup_mimxrt1062.o
PWM2_3_DriverIRQHandler                           ./startup/startup_mimxrt1062.o
PWM2_3_IRQHandler                                 ./startup/startup_mimxrt1062.o
PWM2_FAULT_DriverIRQHandler                       ./startup/startup_mimxrt1062.o
PWM2_FAULT_IRQHandler                             ./startup/startup_mimxrt1062.o
PWM3_0_DriverIRQHandler                           ./startup/startup_mimxrt1062.o
PWM3_0_IRQHandler                                 ./startup/startup_mimxrt1062.o
PWM3_1_DriverIRQHandler                           ./startup/startup_mimxrt1062.o
PWM3_1_IRQHandler                                 ./startup/startup_mimxrt1062.o
PWM3_2_DriverIRQHandler                           ./startup/startup_mimxrt1062.o
PWM3_2_IRQHandler                                 ./startup/startup_mimxrt1062.o
PWM3_3_DriverIRQHandler                           ./startup/startup_mimxrt1062.o
PWM3_3_IRQHandler                                 ./startup/startup_mimxrt1062.o
PWM3_FAULT_DriverIRQHandler                       ./startup/startup_mimxrt1062.o
PWM3_FAULT_IRQHandler                             ./startup/startup_mimxrt1062.o
PWM4_0_DriverIRQHandler                           ./startup/startup_mimxrt1062.o
PWM4_0_IRQHandler                                 ./startup/startup_mimxrt1062.o
PWM4_1_DriverIRQHandler                           ./startup/startup_mimxrt1062.o
PWM4_1_IRQHandler                                 ./startup/startup_mimxrt1062.o
PWM4_2_DriverIRQHandler                           ./startup/startup_mimxrt1062.o
PWM4_2_IRQHandler                                 ./startup/startup_mimxrt1062.o
PWM4_3_DriverIRQHandler                           ./startup/startup_mimxrt1062.o
PWM4_3_IRQHandler                                 ./startup/startup_mimxrt1062.o
PWM4_FAULT_DriverIRQHandler                       ./startup/startup_mimxrt1062.o
PWM4_FAULT_IRQHandler                             ./startup/startup_mimxrt1062.o
PXP_DriverIRQHandler                              ./startup/startup_mimxrt1062.o
PXP_IRQHandler                                    ./startup/startup_mimxrt1062.o
PendSV_Handler                                    ./amazon-freertos/freertos_kernel/portable/GCC/ARM_CM4F/port.o
                                                  ./startup/startup_mimxrt1062.o
RTWDOG_DriverIRQHandler                           ./startup/startup_mimxrt1062.o
RTWDOG_IRQHandler                                 ./startup/startup_mimxrt1062.o
Reserved115_DriverIRQHandler                      ./startup/startup_mimxrt1062.o
Reserved115_IRQHandler                            ./startup/startup_mimxrt1062.o
Reserved143_DriverIRQHandler                      ./startup/startup_mimxrt1062.o
Reserved143_IRQHandler                            ./startup/startup_mimxrt1062.o
Reserved144_DriverIRQHandler                      ./startup/startup_mimxrt1062.o
Reserved144_IRQHandler                            ./startup/startup_mimxrt1062.o
Reserved171_DriverIRQHandler                      ./startup/startup_mimxrt1062.o
Reserved171_IRQHandler                            ./startup/startup_mimxrt1062.o
Reserved68_DriverIRQHandler                       ./startup/startup_mimxrt1062.o
Reserved68_IRQHandler                             ./startup/startup_mimxrt1062.o
Reserved78_DriverIRQHandler                       ./startup/startup_mimxrt1062.o
Reserved78_IRQHandler                             ./startup/startup_mimxrt1062.o
Reserved86_DriverIRQHandler                       ./startup/startup_mimxrt1062.o
Reserved86_IRQHandler                             ./startup/startup_mimxrt1062.o
Reserved87_DriverIRQHandler                       ./startup/startup_mimxrt1062.o
Reserved87_IRQHandler                             ./startup/startup_mimxrt1062.o
ResetISR                                          ./startup/startup_mimxrt1062.o
SAI1_DriverIRQHandler                             ./startup/startup_mimxrt1062.o
SAI1_IRQHandler                                   ./startup/startup_mimxrt1062.o
SAI2_DriverIRQHandler                             ./startup/startup_mimxrt1062.o
SAI2_IRQHandler                                   ./startup/startup_mimxrt1062.o
SAI3_RX_DriverIRQHandler                          ./startup/startup_mimxrt1062.o
SAI3_RX_IRQHandler                                ./startup/startup_mimxrt1062.o
SAI3_TX_DriverIRQHandler                          ./startup/startup_mimxrt1062.o
SAI3_TX_IRQHandler                                ./startup/startup_mimxrt1062.o
SDK_DelayAtLeastUs                                ./drivers/fsl_common.o
                                                  ./source/freertos_hello.o
SDK_Free                                          ./drivers/fsl_common.o
SDK_Malloc                                        ./drivers/fsl_common.o
SEMC_DriverIRQHandler                             ./startup/startup_mimxrt1062.o
SEMC_IRQHandler                                   ./startup/startup_mimxrt1062.o
SJC_DriverIRQHandler                              ./startup/startup_mimxrt1062.o
SJC_IRQHandler                                    ./startup/startup_mimxrt1062.o
SNVS_HP_WRAPPER_DriverIRQHandler                  ./startup/startup_mimxrt1062.o
SNVS_HP_WRAPPER_IRQHandler                        ./startup/startup_mimxrt1062.o
SNVS_HP_WRAPPER_TZ_DriverIRQHandler               ./startup/startup_mimxrt1062.o
SNVS_HP_WRAPPER_TZ_IRQHandler                     ./startup/startup_mimxrt1062.o
SNVS_LP_WRAPPER_DriverIRQHandler                  ./startup/startup_mimxrt1062.o
SNVS_LP_WRAPPER_IRQHandler                        ./startup/startup_mimxrt1062.o
SPDIF_DriverIRQHandler                            ./startup/startup_mimxrt1062.o
SPDIF_IRQHandler                                  ./startup/startup_mimxrt1062.o
SRC_DriverIRQHandler                              ./startup/startup_mimxrt1062.o
SRC_IRQHandler                                    ./startup/startup_mimxrt1062.o
SVC_Handler                                       ./amazon-freertos/freertos_kernel/portable/GCC/ARM_CM4F/port.o
                                                  ./startup/startup_mimxrt1062.o
SerialManager_CloseReadHandle                     ./component/serial_manager/serial_manager.o
                                                  ./utilities/fsl_debug_console.o
SerialManager_CloseWriteHandle                    ./component/serial_manager/serial_manager.o
                                                  ./utilities/fsl_debug_console.o
SerialManager_Deinit                              ./component/serial_manager/serial_manager.o
                                                  ./utilities/fsl_debug_console.o
SerialManager_EnterLowpower                       ./component/serial_manager/serial_manager.o
SerialManager_ExitLowpower                        ./component/serial_manager/serial_manager.o
